:100000000000012009ED02004DFC02004DFC020041
:100010004DFC02004DFC02004DFC02004DFC0200B4
:100020004DFC02004DFC02004DFC02002B6802005A
:100030004DFC02004DFC0200B1980200ADCC020064
:100040004DFC02004DFC02004DFC02004DFC020084
:100050004DFC02004DFC02004DFC02004DFC020074
:100060004DFC02004DFC02004DFC02004DFC020064
:100070004DFC02004DFC02004DFC02004DFC020054
:0C0080004DFC02004DFC02004DFC020093
:10009000F0B5FFB086B006462021159123F07CFA1A
:1000A0000446471C1BA80125057020781890179658
:1000B000701EA44BD4211A915958C0B2A422169292
:1000C0005043199008182EF0CBFEE075607AA17AA3
:1000D00009020E189C48185CC00723D130B20028D2
:1000E00041D401235120C5009648415B00204905B9
:1000F00009D531463C398AB20B2A04D8BC480140A4
:10010000BC48C8401840BC498E4A515C022421407A
:100110004A424A41024300D1D4E0002800D1DEE047
:100120008421D2E02CF08EFA002800D13EE1607DDF
:10013000C007C00DD2D11F2E00D84BE2B3483018F3
:10014000112804D829468140B1480142C6D1304621
:100150003138092804D829468140AE480142BDD132
:100160001BA800210170AC483018322800D900E2E9
:100170001A9F40007844808840008744EE02511462
:100180005114511451145114511451145114511447
:100190005114E3023200320051145114511451141D
:1001A000511451145114511432005114511451145A
:1001B00051145114220332009B02320051143200B8
:1001C000511449024902511451143200511451146E
:1001D00051143200320032003D03C70232003200B7
:1001E00032005848C059199941182FF0F1F90129E6
:1001F00001D802F015FC894AB218272A00D9F2E189
:100200005200C0467A449288520097445B035B03D5
:100210005B030914091409140914091409140914B5
:1002200009145B03091409140914091409145B0364
:100230005B035B035B0309145B03091409145B0391
:10024000091409142700091409140914830A470B17
:100250005B035B035B035B035B038E0A2024179D38
:1002600028462FF001FD014653A82FF0BFFE7DA8C0
:1002700039460027078033484058199940182EF016
:10028000BFFF0A7B18924E7B002E0ED10C310079F5
:10029000801E8D1CC4B22846214622F0CDFE8F263A
:1002A000002801D102F029F8179D3E212FF01CFDF6
:1002B000044618993E2F01D102F09DFB0020E05525
:1002C0007F1CF7E7062E0AD98D21B878FA7812023A
:1002D0001018B44A904200D87CE002F0A1FB8421BF
:1002E00030462038272800D979E0400078448088BB
:1002F000400087442C0008044B032B002B002B00EC
:100300002B002B002B002B002B00FF022B002B00BF
:100310002B002B002B0051040E0496044B052B00E0
:100320002B002B007704E5052B002B0027062B0064
:100330002B002B002B002B00ED025703D305E70306
:10034000880626051C200020FC080000BDE7964D0D
:100350001A9828582EF0A0FD102801D202F041F87A
:100360008A79CB791B029A188F183C460C34A17BF2
:100370004A0013461033834201D902F032F8264670
:100380000F36B25C511849001031814201D902F098
:1003900028F8E17A0029179803D0F12901D201F059
:1003A0007FFF822128F0F4FA02F036FB2FF001F9EA
:1003B00004D1607DC007C00D00D08FE630462138E3
:1003C000142800D98AE6294681407848014200D1A4
:1003D00084E68D21179829F024FC02F01DFB062EDF
:1003E00000D929E105A176008E5B7600B744C046AE
:1003F000FF0F0000F10F0000140700007006C20696
:1004000018001800A20710076B07C0460080FFFF06
:100410007F00030083030000EB7FFFFFE07FFFFF0F
:10042000614E1A9FF059199E80192EF0DDFE01D8F9
:1004300001F0D7FF18932EF03DFD149021460D31A9
:100440002AA82FF00BFE0F342FF0B6F90746401CF8
:10045000169055481A99405880190079C01EC1B2AB
:100460002046514C22F0E8FD179A064600280DD18F
:10047000199616992FF04DF853A922F0DDFC0028AB
:1004800001D101F042FD179A474C199E38781A9015
:100490000421104620F024FD074614983870B92036
:1004A0008200A05A2AA90988884201D001F06BF87D
:1004B00000247C701699087A497A090208180328E2
:1004C00001D101F0C1FC022801D001F0C9FC129257
:1004D00019961898800214900D212FF067FD06469A
:1004E000334831490C18334B0222139230462146CF
:1004F00018949847A078B070F01C2F492A4A5118D8
:10050000139C22462B4B9847189840797071B01D68
:100510002A49254A51182246264B9847304608302A
:100520002749214A51182246224B984730460A3023
:1005300024491D4A511822461E4B98471898007BA3
:100540003073194A505B149908420FD119981C3026
:1005500005D11D48105801214905014006D11298C6
:10056000115A1648125A17982CF034F9174C01F00A
:1005700077FC1748301806281A9C01D902F050FA67
:1005800002A14000085A40008744C0460700070007
:1005900092019401490152005200179829F0FEFA85
:1005A0008CE1C046F7FF00001C2000200304180067
:1005B000E407000015E00200E7070000EA0700007A
:1005C000EC070000EE0700001405000002800000A8
:1005D0000080FFFF2846B0400149084202D07DE577
:1005E0007F002BE0AAE5EB497118152901D902F02B
:1005F00017FA01228A406F231A4200D062E10429CF
:10060000E54D00D114E1152900D1B0E002F008FA5F
:10061000E1482EF0E1FA0B2901D202F001FA2EF0A6
:1006200095FD927D0B328A4200D8E4E502F0F8F99C
:1006300017982BF00DFB41E1152E00D045E6D64969
:100640001A980858199940188179C27912025118DC
:1006500046182021179C20461A9122F09DFF05463E
:1006600000781990307B18900D3653AF022238462F
:100670002FF028FDC948C849085A398801403980F7
:1006800001D100F016FC04212FF0B6FC189901707E
:1006900000214170801C53A92FF0E0FC6878A978F4
:1006A00009020A181A98199901404B09BC482146B9
:1006B00002F0A4F8FC482EF08FFA052901D202F0CE
:1006C000AFF92EF043FD137C002B00D1FAE00C3281
:1006D0000B3200270524002B01D101F081FC2746B5
:1006E0000C378F4201D902F09BF9175D032F05D01B
:1006F000012F01D002F094F90E3400E015348C4241
:1007000001D902F08DF95B1E2F46E4E7E648C05997
:10071000199940182EF068FD00D1D3E0032901D2C9
:1007200002F07EF98279C3791B029A1880180C3086
:10073000801C891EC9B222F07FFC002801D002F083
:100740006FF9BFE0D848C059199940182EF03BFF07
:10075000012800D9B6E002F063F9D348C0591999CD
:1007600040182EF030FF032801D802F059F92FF07D
:10077000C3F9CD49C959199A89182EF0B6FD042A32
:1007800001D202F04DF92EF056FB8A785206C64B84
:1007900005D54278807800028018C44A98520878BB
:1007A000F921C900595C884201D002F039F9C048EA
:1007B000BD490858002801D102F032F9179901F01B
:1007C00080FEB948C05919992EF05FFC427B842AFB
:1007D00078D0002A01D002F023F92EF0F9FE052985
:1007E00001D202F01DF90C30007916224243501D4F
:1007F000884267D902F014F9AB48C05919994018DA
:100800002EF0E1FE02285DD0032801D202F008F9A3
:1008100001D102F005F9C00754D102F001F917988F
:100820002BF016FA002801D102F0FAF89E4D285953
:10083000199941182EF0A3FD0C18207C2EF0C8FE4B
:10084000491F0023814201D002F0E8F800281BD0A4
:10085000082801D202F0E2F80C34E17A4A00164688
:100860000836864201D902F0D9F821460C318D5C58
:100870006F00F619864201D002F0D0F820460D3004
:1008800029F07CF82573884D892000012A58002A18
:10089000179C06D0874920469047002801D101F0D7
:1008A000FDFC20461EF0CEFC4342434102F0B6F868
:1008B000112100E00221179823F0E0FD002801D16A
:1008C00002F0AEF81BA917980DF058FD02F0A4F83D
:1008D0001F462021179E2FF009FA2EF01EFD764AA2
:1008E000914204D80178890601D501F023F83046F9
:1008F00002F090F8202417982FF0B6F90546C0783A
:100900002979090208186C49884201D901F069FD6A
:1009100028780007800F01D001F063FD6878A9787E
:1009200009020E1860481A99405819992EF0ADFB2B
:10093000027B1A920A79497909028A188027022AC9
:10094000189601D201F04DFF0C30411C01D101F08D
:1009500048FF501EC2B2032026F09EFE002801D19F
:1009600001F03FFF53A927F02CFB002801D001F034
:1009700038FF53A80678471C002E01D101F030FF44
:10098000384628F003FB761E0837F5E70021179854
:10099000BBE0C0460080FFFF1C200020EC070000E9
:1009A0001580000020211798189122F0F5FD41785C
:1009B0008278424D3C4B5B590125EF021F4009D123
:1009C000431C9E78DB781B029B193D4EB34201D33A
:1009D00001F007FD1202561833491A9A8958199ADC
:1009E00089188A79CB791B029A188A18137B002FF1
:1009F00007D1002E00D0ECE4477DFF07FF0D00D1AA
:100A0000E7E413AF49C70C32561C0879401EC7B241
:100A10002AAA304639462CF05EFBD6211A900028CF
:100A2000129114D12AA819900188294048424841BE
:100A300027F000FA199D28882040400826F056FE2D
:100A4000288804210140880825F042F800211191EE
:100A500053AA304639462CF04FFB1990002804D198
:100A6000539821F0DFF9002012907DAA30463946D4
:100A70002CF006FA1690002801D101F0A1F9D62138
:100A80001A980028139C109101D101F0A0F919982F
:100A9000002801D101F09BF91698002801D101F03E
:100AA00096F9802501F096F91C20002076020000BE
:100AB000C407000004800000F7FF000014050000D8
:100AC000F8FF00001F462FF017F82EF026FCFA4A18
:100AD000914201D901F0A0FF00781690F74C1A9EC0
:100AE000A05919992EF0D1FA0D300979491EC9B2D1
:100AF000002218921FF0A6FA002801D101F0E0F8B8
:100B0000802501F086FC179819460EF021FE01F0B1
:100B100083FF2024179D28462FF0A6F8E7491A9F47
:100B2000C959199A89182EF0E0FB012A01D801F061
:100B300070FF421C9378D2781202D218F94B9A4275
:100B400001D901F066FF06780C22324001D001F095
:100B500060FF427880780002801818902EF00FFC19
:100B600009180F7B0D3153A82FF008FA05212FF03B
:100B7000BBF8077084214170EB481A9940581999C5
:100B800040182EF02AFDC91E2EF036FE26407309AD
:100B9000E648294601F031FEE3481A9940582EF004
:100BA00058F9012901D801F01CFC18938179C27908
:100BB0001202511845182EF0FFFD01781491447867
:100BC0008678287B19902DF00BFE697B1691884260
:100BD00001D800F0C5FE2DF003FE1699401AC5B2EB
:100BE00000F0BFFE189300255395CF481A9C00597A
:100BF000199940188179C2791202511846182EF0BD
:100C00007BFF1690317B707CFE28159101D100F09E
:100C1000BFFCFF28189B01D000F033FD092000F035
:100C2000B9FCC1481A994058199944182EF084FB10
:100C3000012801D801F0D5FBA579E6792021179884
:100C4000129122F0A9FC2EF068FBB64A914201D91C
:100C500001F0C7FB02780C21114001D001F0C1FB6B
:100C600011923102491961184F7BB14BAE4AD25CE7
:100C7000D41B0025BA4200D22C460E7B032C00D395
:100C80000324401C10901520139060430F90411DC9
:100C90002FF078F806702A464570A349A44BC95C2A
:100CA0008170C7700471451DE01914901346F8B2A5
:100CB0001499814201D800F0D5FE15931692189729
:100CC000A721C900984A5718F968C6008819C4793D
:100CD0005D20C000111808222FF008FAB86803211F
:100CE0006143405C2872B868401841788078A872E7
:100CF0006972F86880198079E87203280DD001289C
:100D0000189F159B18D188488A4940588019017945
:100D10004079687329730E230EE028460C30824C0C
:100D2000844FE1598919097922F07CFBE059801937
:100D300040792875139B189FED18169AD2187F1CBE
:100D4000B5E72021179C2FF0BFF941788078000289
:100D500041187448814200D9ABE0189172481A9941
:100D60004058199940182EF045FA0079401E277B0B
:100D70000D342EF085FD002801D100F0CFFF1C308E
:100D800001D101F05DF8282001F05BF81893664E60
:100D90001A9FF059199D40198179C2791202511890
:100DA00046182EF009FD04460078149016960D366C
:100DB00053A809222FF086F95B48C05940192EF03C
:100DC00002FC0A2801D201F00CFB661CB078F17815
:100DD000090208185849884201D301F002FBA07BA0
:100DE000E17B090208182CF08BFF002801D001F0EC
:100DF000F8FA5D20C0004C49081853A92EF0E2FF14
:100E00000028189905D04D4953A82EF0DBFF414228
:100E100041411A91A07BE17B09020F18607D199076
:100E2000464953A8082215462CF028FB1390384653
:100E30002AF0C6FE0446401E27468741002C01D1F9
:100E400001F0BBFA3D4953A82EF0BCFF002811D099
:100E50003B4953A82EF0B6FF00280BD053A87DA91C
:100E60002EF03EF9002805D17DA8007800212AAA9D
:100E70001EF0A8FE60426041002C189A169D02D117
:100E800001221A994A40002C01D07B21CC43002A30
:100E9000034601D001F09BFA01F0A3FA2026179C2B
:100EA00020462FF027F92EF038FA234A914200D23B
:100EB0008EE2204601F0AEFDF7FF00001C2000206E
:100EC00018930024E043169017481A9FC0592EF03B
:100ED0009DF845182EF010FE2B7B6E7B002E02D065
:100EE0000B2E00D8D5E3179D002D01D101F094FD04
:100EF000401C2EF022FB0B4A914201D901F089FDE2
:100F000001784078000244182A2128461F4622F022
:100F100043FB3B4600212A2901D100F0C2FE2EF0FE
:100F20008FFCF8E7F7FF00001C2000203280000053
:100F30003905000044050000F8FF00009838030060
:100F40009038030018932021179D2846159122F010
:100F500023FB0346F34E1A9830582DF09DFF0122D3
:100F60000228104616931A9200D3D8E2EE4974185C
:100F7000A27259789A7812025118E180197889067C
:100F8000C90F6172E07200202073062728462EF0F8
:100F9000F7FE217BE54AB21889005158C90E01714C
:100FA000217B890051581F22D2060B4693430170C2
:100FB0000A0C8270090A4170190EC170E17A417100
:100FC000DB48345C1A9804405F20C000305C454226
:100FD0004541002C00D1189D17982EF0D1FE002C11
:100FE00001D101F060F8002D01D101F05CF84079E9
:100FF000012801D001F057F8F248002217992BF090
:1010000025F801F009FD2021179D2EF0C1FF2EF0DB
:1010100084F9ED4A914201D301F0FBFC411C0A78AE
:1010200049780902891801D001F0F3FCE749E44A44
:10103000515C090705D4407DC007C00D01D101F006
:10104000E8FCDF481A9940582DF026FF802402283A
:1010500001D201F0F8FC2EF0BBF80D3101D101F006
:10106000F2FC401EC2B2042026F016FB002801D17B
:1010700001F0E9FC53A926F0A4FF002801D001F0FB
:10108000E2FC53A80678002E01D101F0DBFC002021
:101090001990C0431A9053A8451C3746002F01D120
:1010A00001F05CFC5D20C000C54908182EF047FD2A
:1010B000002801D101F0C6FC08222846F2492CF094
:1010C000DDF9002801D019981A907F1E0835E5E750
:1010D000EE493EA80180BA491A9808581999401853
:1010E0002EF07BFA0A2901D801F07BF92DF0E9FEF8
:1010F00015900D31E64C2AAF0A223846A0477DA84C
:1011000008221A923946A0472024179E30462EF016
:10111000ABFD014653AD284616942246DC4B98475A
:10112000287819900C2130460E461FF0D9FE05464E
:101130005D20C000A2490C46081839461A9A2CF0C6
:101140009DF9002801D100F028FE2AA846A92BF01D
:10115000A0FF002801D000F029FE46980078062163
:101160000140042901D000F021FE2AA82BF0D4FD73
:1011700000F016FE924C1A9D6059199A80182EF0B4
:1011800022FA042801D801F02CF9BF491746C04EB5
:101190002AA80822B0476059C0192DF092FE169077
:1011A0000D3146AD04222846B0472026179C204624
:1011B0002EF0A0FF014653AF38461A963246B44E81
:1011C000B047387819903EAF022238462946B047DA
:1011D0000C212EF011FF0546B92080007849085AED
:1011E0003F88B84201D000F056FC46A88678022E0F
:1011F00001D200F04FFE5D20C000714909182AA8F5
:101200002EF098FD80211A9C199E169800F05BFC28
:101210006B491A980858199940182DF0E5FF01D824
:1012200001F0DFF82DF04DFE18900D31984B2AADEE
:101230000226284632469847202417982EF014FD9F
:10124000014653AF38461A942246914CA04738784D
:1012500019907DAF384629463246A047B920800014
:1012600057490E5A38882D88864201D000F03DFC3F
:101270008124AE4201D000F039FC864FC85D0028C1
:1012800001D100F033FC401D0C46C1B22EF07AFDB6
:101290001899017000254570801C31462DF0B4FA74
:1012A000E25D0270412149016118401C1A9B199CA2
:1012B000954201D300F028FC04C9127842556D1CF8
:1012C0003F4AD25DF4E71E462021179D28460E9125
:1012D00022F062F9411C169100780D9000201A9BB3
:1012E000199C052803D02AA92EF01AFAF9E73448E8
:1012F000C058011908794A7912021018072801D23A
:1013000001F087FB8A79CB791B029A188F18797CB8
:10131000831F4A00934201D800F0FDFB002100F03A
:10132000FBFBC0461C200020FC0800000C0900004C
:101330000C05000022491A9808582DF08AFD03294F
:1013400001D801F04EF82DF076FE0D3053902AAD05
:1013500053A928462DF07DFB539804782021179F30
:101360003846199122F018F9017816912DF0E9FF0D
:10137000189005212EF0A4FE07460670002606717F
:10138000B92080000E49085A2988884201D000F00F
:1013900085FC002C01D100F02AFE3E48084A105C72
:1013A000412149015118002801D100F068FD04C90C
:1013B00013789C4200D03246401E1646F3E7C046E2
:1013C0001C200020056E0200F8FF0000150500003B
:1013D000169641788278120257182F4C1A99615844
:1013E000199A8A182DF0D0FE0E7B264BE35C1B0762
:1013F00009D4002F01D0FEF7ECFF437DDB07DB0DA6
:1014000001D1FEF7E6FF0C314C78402C01D900F0F9
:10141000E8FF2DF07DFF921EA24201D200F0E1FF15
:10142000891C0078199053A815902EF053FE0221C4
:101430002EF0A8FC067000211A914170159818979B
:10144000002C01D100F04CFE0646077828203946D2
:101450002CF064FE2938092855D802A1085C400008
:101460008744C0460532093D51514851511C1798D7
:101470002BF028FA47E02B212EF08EFD8D218900DC
:1014800029E0C0461505000090380300FFFF00006A
:1014900015E00200340800001C200020FD48FC4933
:1014A000415C01200840490700D5801C2AA908801A
:1014B000F849495DC90702D0001D2AA908803221D8
:1014C0002EF06AFD2AA908E02A212EF065FD0028E9
:1014D00019D017214901EF4A5118022207E02C21A7
:1014E0002EF05AFD23210901EA4A511804222CF05A
:1014F00091FD08E0B9208000E64A115AE648125AE8
:1015000017982BF067F92A2F04D117204001E149E1
:101510001A9A0A523046701C641E189F90E7081DE4
:101520002DF012FDFA4BF2540D310078401EC4B27A
:101530001E202EF059FD002801D100F0B4FD4178A5
:10154000891CA14201D300F0AEFD8178F14EEF4A33
:1015500091554A00121D631E9A4201D300F0A3FD6B
:10156000ED4AEA4B9C18C71C00258D4201D300F0C0
:1015700092FD042220462EF0BBFD3F1D6D1CE3486A
:10158000815D241DF1E780207870002400F068FC64
:101590000720189B1D46DD490959199A89182EF014
:1015A00017F80024884200D9234637460C370D36F9
:1015B0001A931D40012D07D1B81D199053A804227C
:1015C0002EF080FD539801E020461996E64304462C
:1015D00027F03CF8002D29D07A79FE2A189B19466D
:1015E000179F00D10146012922D11F20C0062546A0
:1015F00085431CD01490B9208000C4490818017C90
:1016000040182146877BE00E1A9787420FD1FF2AA8
:1016100001D101F00FF8FE2A01D001F025F8199848
:101620000178204620F0EEFE01F01AF81A9B179F71
:10163000002B16D01698401C2DF07FFF0822D243B5
:10164000521C92B291420CD20178407800024418A8
:101650002A212EF045FD00212A2909D02EF0F0F88C
:10166000FAE7002F01D101F0D7F9384601F0D2F99D
:10167000711E8E41F101417015990170C484384684
:101680001AE3062800D20125062800D2D5E3062059
:1016900081E714901593B200931C9C49C959199F76
:1016A000C9190F7949790902CF19BB4201D900F054
:1016B00098FE29460E31885CFF2800D1131DFE28B4
:1016C00001D103231343BB4201D900F08AFE8F18D6
:1016D000FE2801D000F0F3FD012E179D159B1498F4
:1016E00001D0FFF701FC7F7853A82EF00BFB539E2F
:1016F000304626F0ABFF002801D101F08AF97001D5
:1017000001D101F086F93046394620F07BFE169073
:1017100001F062F80026F5432DF071FC8218537B2E
:10172000922B00D1C5E32846C4E32DF068FC851850
:1017300000244F941C94687B002801D000F051FED7
:10174000881E0E35C6B22846314621F075FC0028A9
:1017500001D000F046FE002D01D100F042FE2EF037
:101760009BF8002801D100F03CFE0746811C7DA8B3
:10177000199008221A92694B984739460A3146A8AF
:101780001A9A664B9847394612314FA8042218928C
:10179000624B9847394616311CA8189A5F4B9847F8
:1017A0001A373EA839461A9A5C4B98470221199875
:1017B000199123F09DFD1A90002801D100F011FE2F
:1017C0002C942B942A942AAF159708372EF064F89E
:1017D00016907DA908221892159E30464F4B9847C7
:1017E0001CA9042538462A464C4B98471998307353
:1017F000374622AE4FA930462A46484DA8472B46C9
:101800001A99083153AD10222846984722985399C7
:10181000414029707078549941402971B0785599A8
:1018200041402972F07856994140297322AE0096C2
:10183000162328463946169A27F014FC3EA930464E
:10184000189A2BF01BFE002801D000F0CAFD7DA8DD
:101850002EF0F0FA4F99324A2C4EB35800011B1863
:101860000D0EDD710D0C9D710D0A5D711971B15870
:101870000818C17A09062B4A521C0A43110EC1727C
:1018800029483454294821462EF02EFC00F0A9FDA9
:10189000FC0800001C200020EA0700002EF02CF9B4
:1018A0000178890604D52DF04CFD01D100F0C4FC6F
:1018B0009120C000154908182EF0BCFA04461C48B7
:1018C000844201D100F08DFD20462CF015F8014630
:1018D00053AD2C222EF00AFC28356878C007C00DC5
:1018E00001D100F07EFD53AD284618302AA92EF014
:1018F00067FA5D980821C943F839014029852846CF
:1019000021461EF0B7F800F06CFDC0461C200020F8
:1019100004090000090900000C09000015E002009C
:10192000E4040000FFFFFF072A05000095E802001D
:10193000FFFF00004178807800024418EB481A99B4
:1019400040582DF041F9057B02212EF0B7FB0570C0
:101950008D214170E648314622463B4600F04EFF5D
:1019600000253002032D00D3032500191390162003
:101970006843411D2EF006FA07461998387000207A
:101980001A9078702CF02CFFB870169BFB703D718C
:101990007E1D189AE3208400D4480059D10756D000
:1019A000290654D001780022C907F7D01A98C0B28E
:1019B000984247D389208000CC49091808222EF08C
:1019C00059F930460830C94909598A7953A923F091
:1019D000EFFEC64B53983074000A7074B07CFC2143
:1019E0000140B174195909784907890F8C220240C6
:1019F0008818B074195949784907490E0918B17403
:101A000018590278F3200840510707D404210843ED
:101A1000B0741859417B0120084007E0B07419598F
:101A2000497BC907490F0143B1740020F07418596C
:101A300000784006000F30751859C07870756D1E1B
:101A40001636169B1A98401C1A900022A2E7199885
:101A500038701598149901404B09A6481799139AA4
:101A600000F0CCFED0B20F9988420BD2401A9F49A9
:101A70001A9A8958199A89182DF037FC101808718C
:101A8000000A487110992DF0F9FC12981199014043
:101A90004B099948F0E17DA938462BF00BFB002853
:101AA00007D17D98007806210140042901D1FFF774
:101AB0009CFB18980007800F01D000F092FC812158
:101AC0001A9C1698199E28706970A81C2AA92EF0D5
:101AD00031F90A353EA902222EF008FB53A82DF059
:101AE00022FD264073098548C6E1802405212EF099
:101AF00049F9189901704470801C29462CF084FE25
:101B0000002101701A9B199C53A82DF00CFD1C405C
:101B100063097B48B0E101213C461234A35C801A82
:101B2000C01F5A00904200D30E46012E01D100F092
:101B300070FF0C3738780A90791C53AEB01C022520
:101B40002EF0C6F8F91C301D2EF0C2F87E79750013
:101B5000615D169A107809905078089090780C90F2
:101B6000D0780B90199188194006010E179821F032
:101B700013FD002E1896139004D02146189A2AF0CF
:101B800017FF0446199A002A04D0611C13984019C3
:101B90002AF00EFF5B4AB920810054480591405A53
:101BA00053A949888842069103D00846914200D83B
:101BB000A7E255484D4A105C119053A880881090B8
:101BC00013984019129000231C46079311988442E1
:101BD00000D1F3E0A0001018412149014158487894
:101BE0001A918978090208181099884202D047484A
:101BF000814251D10F941A988079169000210D4698
:101C0000169881421ED2E8071CD1159148001A99F6
:101C10000F1808370026139C3546189886420ED2B6
:101C2000E8070CD12CF088FC06D11A980278D9B2BA
:101C30002AA829F0E1FA0346761CA41CEDE71599C1
:101C4000491CDDE71A98C07914900021149881424C
:101C500020D2E8071ED116981591081840001A994D
:101C60000F1808370026129C3546199886420ED266
:101C7000E8070CD12CF060FC06D11A980278D9B292
:101C80002AA829F0B9FA0346761CA41CEDE7159999
:101C9000491CDBE7154A0F9C641C97E7802078708D
:101CA000EBE1169A511E8A41D10141700370C48440
:101CB000282101224254284624F000FD00F0ACFE09
:101CC00013482058817A8625022900D9A1E3114AB8
:101CD000A25CCA40D10700D19BE30F49034A515A85
:101CE0000025490700D58DE3189792E31C200020BA
:101CF000428000003180000033800000018000003D
:101D000005800000F7FF000034080000FFFF00001E
:101D10003C0900003409000004050000D62500201D
:101D20001690002C00D1D0E321202146324625F028
:101D3000B3FC002800D1C8E30646811C7DAC082511
:101D400020462DF0C5FF0A3646A831462DF0C0FFCB
:101D50000221204623F0CCFA002800D1B4E3064645
:101D600004462834607800020025000500D5ADE364
:101D70000120C00216907DA82EF05CF801462820B4
:101D8000325C63781B029A18169B1A433254100A6D
:101D9000607030461DF06EFE98E3B9208000205A36
:101DA0003EA90880FC49884200D0CFE0189800077F
:101DB000800F00D015E3199E81241DE2F74AA3E1AC
:101DC0007DA8008827F062FE00201090139C2EF062
:101DD000ABF800251A9846424641247802212DF09E
:101DE000D1FF1499017045701998002800D1761C14
:101DF00016980028179D00D1761C002E00D146E2CF
:101E00000221284620F0AAF90021017071004170DA
:101E10000121284620F0A2F9002800D137E20670FF
:101E20001A98002800D163E11998002800D121E216
:101E30001698002800D02AE224E20720FFF7ABFB27
:101E40002920C543002641E302251798294620F0A2
:101E500085F9D349D34A51182DF03AFFD248441C92
:101E6000B81C2AA92EF0FAF816992DF007FB159840
:101E70001A9901404B09A0B2179900F0BFFC002E3F
:101E800000D0B7E0002C03D0FF2C01D000F012FCF2
:101E9000822004E72AA9384620F0CEFF002800D18E
:101EA000BFE10020082800D103E62AA92DF0B0FCEC
:101EB000F8E7E81E002B56D0011D00D153E10028A1
:101EC0007FD1002E00D1ECE3304628302825715D0B
:101ED000407800024018C10500D5EEE331461831C4
:101EE00053AC10222EF0F8F8705D8006400F0022EF
:101EF000032100AB17C3049220A81CA9012314F0EE
:101F0000ADFB179CA74D00F0DBFC53A82DF0B4FEF1
:101F1000002801D1FEF7B7FA024628322823C15C17
:101F2000547824026418210501D5FEF7ACFA01218A
:101F3000C9021A919D499B4E715C1A9E3443C45448
:101F4000230A53701DF096FDFEF79DFA2AA8007A29
:101F5000022800D23EE118983040082800D140E223
:101F6000199E802448E10C32971C881E2DF0B8FC85
:101F7000002826D18E498B48465801201A903946B0
:101F80002EF032F807464078401CC0B2282818D3FB
:101F9000002F16D04C36B91C20A82DF0CBFE002EF9
:101FA00004D00A37202230462EF0A2F89120C40037
:101FB0007C48071920A92DF081FD002801D100F0EF
:101FC00088FC7B4C774D295900221798E02A02D0D3
:101FD0002DF032FCFAE72A59FF21517000F01AFD6A
:101FE000FA071A9F01D0FEF706F900F019FD7148B3
:101FF0006C490E18B079F1790818400008300025B6
:102000007D7015973871C1B22DF0D0FF07460822B8
:102010002EF058F8B079B871F079FC1D1A97F87164
:1020200053A9087037460837B079854207D2022293
:1020300020462EF05DF86D1CBF1CA41CF4E704467E
:10204000159FE1B2C0B2F279101888420DD9E8B2FA
:1020500040001A9A101808304900711808312DF004
:10206000FDFF6D1C641CB079EBE71A99887940007C
:102070000818C01D53A92DF081FF179C199D189EAB
:10208000B81C2AA92DF0EAFF1698284043094A48AF
:1020900021463246B2E3002905D03878C00700D186
:1020A000F8E20420F7E2169A5078917809020D18A8
:1020B000147802212DF066FE40493A4A525C521CC7
:1020C000D3B2FF2B00D10022364B5A54027080212C
:1020D0004170159804406309394817992A468DE3E1
:1020E0001698199901404B09364817993A4685E3E5
:1020F00032212846119A2AF095FB002800D0C6E02C
:1021000092E6802007900023002B06D10B98000256
:102110000C994018904200D963E10898000209998F
:1021200045181F46591D179814461EF0D9FE06463D
:102130000698A04202D91B480599405A7DA90880FB
:10214000B01C2DF08BFF0A9830703A463771701D25
:102150002AA92BF05FFF079870700E980D99014027
:102160004B091948B9E70421179C2DF0ADFF002158
:1021700001800F490B4B5958897801220A4082701F
:1021800003D01249595C29F043FC1148A5214A00AB
:102190002DF0A4FF00F040FCFFFF0000F7FF00005F
:1021A000F10700001C2000200280FFFFB5040000A2
:1021B0003C090000F3070000048000004407000011
:1021C0003C8000004480000006800000FA0200000D
:1021D00005D50100199E002400280DD001212DF005
:1021E000E5FEE3218900F84A5158097807220A40A0
:1021F000511F4A424A410270159828706C70A81C01
:102200007DA92DF097FD0A353EA902222DF06EFF23
:1022100053A82DF088F91698064073090120C003D1
:102220002AE6012E1A9C00D0E4E101212DF0BEFE29
:1022300000210170FEF7E8FFF048C05919994018D5
:102240002CF0D8FF0E340079801EC5B220462946F6
:1022500020F0F2FE002800D0C3E02D2021462DF012
:10226000A9FE002800D1BCE0811C2AA82DF0A8FD01
:10227000FFF71EFB2C212846129A2AF0D3FA169952
:10228000084304D12B212846109A2AF0CBFA18983B
:1022900004406309DA482946159AAFE20123BDE3F9
:1022A000D84829462D5C002D00D170E2D648085C44
:1022B000002800D1ACE285211798FEF773F8FF28BB
:1022C00000D170E2052800D985E2012E179D00D0CB
:1022D00082E204467E7853A82DF014FD5399189895
:1022E00000902846224633461CF01AFC0028159B15
:1022F000149801D0FEF7F8FD8EE37DAA284621460A
:102300002AF054FA1F2029462DF06EFE002801D134
:10231000FDF7CAFF4178032901D2FDF7C5FF817897
:102320002AAA1170C1785170017991704079D070EA
:102330003821179824F038F91690B0481A99405867
:10234000199940182CF05CFF463120202DF04CFEEE
:10235000002801D1FDF7A8FF15904078032801D28D
:10236000FDF7A2FF1698801C159DA91C2DF076FE86
:10237000287916990871687948716978C91E03220D
:1023800042439142179D01D0FDF78FFF15998E1D95
:10239000169D09350027092F00D904E3874200D391
:1023A00001E3E81E02222DF08DFEB07828707F1C1C
:1023B000169840796D1DF61CEDE790489349405CF6
:1023C000000700D588E100273C46189B169D0C3578
:1023D0001A98002807D08E488849085C800700D5E5
:1023E00092E1179816E37720C0008449095C002029
:1023F000042800D186E1012282400A4200D193E103
:10240000401CF5E7C07AFF28189702D18B250020E1
:1024100018907A4880592CF0D7FB077B0226179C2E
:10242000204631461EF05CFD07704570189F002F56
:102430000ED0784871490858857AC77A002120461D
:1024400028F028FD05704770189F801C2BF018FBA2
:102450001D212DF039FE054600201D2802D02DF04B
:10246000CFF9FAE7002068702870EE736A484330AD
:102470008021E972A872287C0421014329741698EE
:1024800080060ED465485D49095C53A829F0C0FA5E
:10249000297C7F20C043084353996975090AA975AF
:1024A00007E05C48554908582DF04CF8297C01207C
:1024B00008432874002F179902D059484F4A1154E5
:1024C000584823F03FFEA7E28625169E0221179C5E
:1024D0002DF092FD07704570280600D086E0169614
:1024E0007DA8022631462AF029FC054600200D2849
:1024F00003D02AA92DF014F9F9E75D20C0003F4A66
:10250000111817461591484B2AAC08221492204600
:102510009847464BF8582D014019817BC27B120227
:10252000511812912C912673491C8173090AC173A9
:10253000F85841193EAE0422139230463A4FB8473C
:102540001699083153AC10222046B8473E9853994B
:10255000414021707078549941402171B07855996B
:1025600041402172F0785699414021732F48234908
:1025700008584119405D2CF025F83E9012982290A1
:102580002221179D284628F085FC04461599149FA2
:102590003A46254EB0472046083046A93A46B0474D
:1025A000204610303EA9139F3A46B04720461430CB
:1025B00022A93A46B047183400201A9A082805D0B4
:1025C0002DF09EF8FAE7C0461C2000200B4EB058B4
:1025D0002CF01CFD42180E32009453A82AA9162391
:1025E00026F040FDE520C00035542C46104800235D
:1025F000214602E10021FEF707FEC0461C20002014
:1026000043800000380800005E080000FC0800005D
:10261000D50700003C0900000280FFFFFA0200001D
:1026200026070000F1ED000015E00200E4040000C0
:10263000478000002AAE2DF061FC2A9814990840CA
:1026400040192A901998411C7DAF022238462BF080
:10265000E1FC1A98401C3A88C0B2314621F056F885
:10266000189B0646FEF7E3FF052A179F00D9C8E02E
:102670001998037800250095384621461CF050FA39
:10268000189B002801D0FEF7D3FF2B462E462F467D
:10269000FEF7CEFF0120179D1A9AF64E169BFEF705
:1026A00065FCF548F34D2858C07AFF2800D1ABE00F
:1026B0000320AAE08320FFF7F2FA8006400FEE49DC
:1026C000EC4D69588A7A002A00D1EBE0C97AFF29DB
:1026D00000D1E9E00321E8E01998C007C10D53A833
:1026E000002900D06FE61399002900D16BE640570E
:1026F000002800D567E601201A99484001D1FEF76D
:10270000A1FB60E68A2430E0002F2ED153A8007A86
:10271000C009EE49EB4F7A5CFE2313401818785439
:10272000EB481799395420E0002B1ED01143752235
:10273000D200E44B9A181174297880001318D970CC
:1027400031787478240261181152179E9E70092105
:102750002DF0CCFA044653AD08222DF089FA287AE0
:10276000C0092072DB483146ABE60221179F2DF0ED
:10277000A7FC2978017044703078717809020A1832
:102780001598149901404B09D348394636E0179CF7
:102790000C54D248085C42224243D1482DF09EFCA2
:1027A0002DF022FB38E10C352AA82DF0ABFA687821
:1027B000844205D253A82AA92DF0A4FA641CF6E796
:1027C000B91C7DAE02222DF055FA6878328853A9E3
:1027D00020F09CFF1690179D159B1498FEF784FB24
:1027E00000272D780221179E2DF068FC1A990170A0
:1027F000477025406B09BB483146189A23F062FDAB
:102800000AE10026FEF714FF0220179C00214DE08C
:10281000B348FE210022199218F050F9681E1A9947
:10282000A84A5158C0B2169A42432CF03CFC287E6C
:10283000697E09020818217B627B120251188842C6
:1028400004D0A94A904201D0914229D114950C3567
:102850002A460F32A87B4100501815901A92A37B8C
:1028600058001890301816901598401C1590525C1E
:10287000009300201599334620F05EF91595AA7B48
:102880001698431C1898305C009001201A9920F08B
:1028900053F996488B4A105C9549515C01432FD1FE
:1028A00086244CE0002100E00221179C0123002235
:1028B00000AE07C60392049320A81CA913F0CEFE15
:1028C00081482858022141708A482C548A48214660
:1028D000F7E57C487C49405802468078C00756D1CD
:1028E00020A8FF212AF02AFA7F49884201D1FFF768
:1028F00068FB2BF001F8064672487349425847E0DE
:102900000D3714990D31FD486E4E301802252DF00B
:10291000DFF91598C07AFA49705443204001301805
:1029200039462DF0D5F9F7483018E17A81771799B3
:10293000817672482CF0ACFC002877D08A24179856
:10294000214626F025F8F04DFB4EA85D214626F0E5
:102950001FF81999A955F94829545DE01A980028DB
:10296000179D70D153A8441CF54D002E69D0082244
:10297000204629462AF082FD002805D0204628F06E
:10298000C5FD204626F002FB761E0834EDE7002642
:102990005078012801D0FFF714FBDC48407D002867
:1029A00055D1199056E0D84D1A9FE859199D4019F4
:1029B0002CF013FE091B891E2CF01EFF0621179E0A
:1029C00030461FF0CBFBD048C05940198179C279FD
:1029D0001202511845182C460C34284644302AA9B6
:1029E0002DF090F97D98482168544835000A6870A8
:1029F00035460026189966702170202428462DF04F
:102A000033F953A92DF066FB28461CF01BFC002867
:102A100002D028461BF0C8FC1BA80378002B02D16B
:102A200017981BF0C1FC7FB006B0F0BD00241798CA
:102A3000214625F0ADFFB448BF49405C2146FDF773
:102A4000B1FC0024179D28462146FDF7C4FCB0497F
:102A50003831199101280AD1907A01280ED0022824
:102A6000284601D0FFF728FA00201A9008E02846EF
:102A7000FFF722FA1C2000203C09000010201590CE
:102A8000154611468C314C323EA8169209F0D0F909
:102A90000C35189500209F499F4A034608332FD0D4
:102AA000994B1D186B5CAD5C401EAB42F5D0AB4240
:102AB00026D25D20C00094490918189814901698E1
:102AC000189024E01C2000203C090000B9030000FD
:102AD00025070000A1A9010034800000350800008E
:102AE00035CF02002B800000FFFF00005C080000D3
:102AF0008208000027070000AD6D02000562020099
:102B00005D20C00080490F18091916981490834B56
:102B10002AAD0822169228469847284608302024D5
:102B2000149922467D4B9847284628303946169AF4
:102B30007A4FB8472846303018992246B84753AFE5
:102B40003EA938462246754B9847384620305022D9
:102B50002946724DA8477037384619992246A8472A
:102B60001A9800281CD053A8902122AC224620F0AD
:102B7000E3FA4EA8012101704FA810222DF076F83B
:102B80000020102800D1A4E04FA9095C5C224A4033
:102B90007DAB1A5436224A4053A90A54401CF0E730
:102BA00053A8902122AA199223F06CFA4EA81A90E9
:102BB000012707705B497DA8024638C938C2042145
:102BC0004170002118917E9125F02CFB0446564857
:102BD0001A992DF087FA2AF041F91A94256853AC16
:102BE000402120462CF02AFB20461999159A2CF0FA
:102BF000E7FE4B4802682F46203528461899904733
:102C0000002856D153AC494920462BF007FF1A98AB
:102C100000684022214627F0FDFA002849D13946B4
:102C20002831202238462CF0CBFE53A840492BF007
:102C3000F5FE3B480268002128469047002838D11D
:102C40001A98006853A9402227F0E4FA002830D1EE
:102C50001A9800683449012227F0DCFA002828D1AC
:102C60001A98046853A9204627F0F2FA002820D1C8
:102C70002B4802682046203000219047002818D1B8
:102C800020462830202521462DF0A0F9A52040001F
:102C9000B63020621A98006853A92A4627F0BAFA7B
:102CA000002806D11A9800681D498A6820302149F9
:102CB000904729F04FFA1F4946AC20222DF00CFA1C
:102CC0001A9800682AF07EFD1CA810222CF0CEFF76
:102CD00011E053AC204610304EA92DF04FF97DADD8
:102CE0002A4610321121204620F026FA20211CAA63
:102CF000284620F021FA0020FFF7DEF83A0800000D
:102D00003C080000440800001C20002074590020EA
:102D1000C45D0020EF0200008F04000015E00200F7
:102D20007800000F403803003C3800205C5C5C5C9D
:102D30006A6A6A6ADC380020380800005E08000011
:102D400090380300F0B5FFB0DCB0B4A82990B4AE61
:102D5000B4AB9DAFB4AC38A8DE4DDF496A5CDF4947
:102D6000695C520702D40A0700D591E0490701D4F3
:102D700001F02BFD299915312991314690310491AB
:102D80002636194615312691591D25910E33249367
:102D900039464E310E9139464D310D913C37214621
:102DA0004E311E9121464D3119913C341A94032124
:102DB0003791C9014018329000202C2805D02918DD
:102DC000332292012CF0A4FCF7E74720C243632092
:102DD0002A908300294631924732332080011F9088
:102DE00036922A500020834203D038A92CF098FC58
:102DF000F9E733930F970396329836990160B849F3
:102E0000B44847180F203490002635963546022ED8
:102E100037D0F4B20025B4AA0C232046294625F069
:102E20001FFD00280CD02BF06DFC369D7888012109
:102E300088437880204628F063FE761C3F1DE6E735
:102E4000B4A99DAA204624F0CDFF0146483101D007
:102E5000002811D19DA800880E280AD8798801225F
:102E60000A437A80388034998842E6D23596349085
:102E7000E3E70F203880D6E70F203880319D2535D5
:102E8000D4E72795349E93480F2E1BD1329F3BE009
:102E900033208001012129500024E0B2012803D809
:102EA00019F0E2F8641CF8E7E14818212950CD2018
:102EB000000100212954884AA85C06210143A95435
:102EC00001F07EFC8649441800252799329F022D87
:102ED00015D020880F280FD0359AAA420CD0B042C6
:102EE0000AD00F2020806088012188436080E8B2EA
:102EF00028F006FE319947316D1C241DE7E70E2EA0
:102F000000D03199279173487549451800263696A7
:102F1000022E31D028880F2802D1761C2D1DF7E70C
:102F2000F4B238A9204611F0C3FD0146383113D060
:102F3000411C0ED0002815D103CF2A9A5201654CAE
:102F4000A21810663878CD231B01E054D166083FE3
:102F5000E3E72BF0D7FBE0E70120B04036990143CF
:102F60003691DAE768880121884368800F2028803D
:102F7000204628F0C5FDD0E700201024554D20281C
:102F800000D199E00C22424338A989184968B94B0D
:102F9000194204D038AB9A181289002A02D1401C79
:102FA0000C34ECE7451C880F38A92A46B14E1F2A7D
:102FB00008D80B59334202D09B0F984204D1521CBF
:102FC0000C31F4E7014602E002282FD10221369AA3
:102FD000D4B22246C240D0073E4D15D0C8B2022816
:102FE00010D23A682A9B5B01EB181A66CD221401B5
:102FF0002955800018186421405A0E2847D115F031
:103000008DFC46E03698C4B2CD2000012A5C012137
:1030100008469043C440E2074ED08200AA18964B5F
:10302000D45A8C43D45228F06BFD45E001461F2D45
:103030001BD838A800598F4A104213D0860FC8B247
:10304000B0420FD08100234A5118254A8A1853886C
:103050000127BB43329F53800F22214BCA5228F0D5
:103060004FFD31466D1C0C34E1E73698C4B2C8B24E
:103070002246C240D207174DB0D10021339A8A426E
:1030800001D101F0A5FB38AA2CF0D2FBF6E713F032
:10309000D9FF00203399814203D038A92CF040FB9E
:1030A000F8E7319847303860285D38A911F000FD05
:1030B000002801D02BF026FB0749685C02222292EF
:1030C0001043685400206D4C08280BD02CF018FBDE
:1030D000FAE7C0461C200020D10C00007904000053
:1030E000C40C0000B4A8401C2E90B4A80930219054
:1030F0009DA85B300C90B4A8014608311791014699
:103100000C31169101461431159101462431149168
:1031100001462C31139101463D3112914F301890E8
:103120009DA8014608310A9101460C3109910146DA
:103130001431089101462431079101462C31069142
:1031400001463D3105914F300B90B4A8801C029090
:1031500000214B4828181D904A4828181C904A48BE
:1031600028181B904948281823904948281820906F
:10317000484828181190484828181090202901D153
:1031800001F0F8FA0C203591484338A90D18696808
:103190000B46384A1340369301D101F0E5FA38AABC
:1031A000121812893492002A01D101F0DDFA8A0F37
:1031B00033929200394B9A18394BD75A0E2F01D9B6
:1031C00001F0D2FA01223292BA404F2330931B020F
:1031D0001A4201D101F0C8FA38AA101840892F907C
:1031E0002E48304A815084183498A0803598C6B251
:1031F0001C2E00D9F8E03298B0402B49084200D18B
:10320000F2E0264829494158002906D0359880B275
:103210008847002801D101F0A7FA701E1E2801D9A5
:1032200000F04EFD03A14000085A40008744C0460C
:10323000CC0C000040007002470148054805190306
:10324000720348051D02CA02CD023C04480503046E
:10325000E6004805480548052202480538014805AA
:103260004805480548054805E300FA0248054805B1
:103270000703C046FFFFFF3FC60C00003841002097
:103280007C0400003702000092040000E40C0000FF
:103290002A0C0000F40B00000A0C00001C20002087
:1032A000C40C0000DC0C000001460018BC0C00003F
:1032B0002F98042801D100F089FF0328339D01D104
:1032C00000F073FF022801D001F04EFA9DAC5C269D
:1032D000204631462BF0B2FF284636992246334627
:1032E00024F086F9002801D001F03EFA9DA8329022
:1032F0000078012136910840F84FF94EB95DFE2261
:103300000A401018B8559BAC042220460A99F54E85
:10331000B0471D98214629F06DF90920C0013818E1
:10332000082509992A46B047329C2078022101409D
:10333000EB4BF85CFD2202405018F85489208000C5
:103340003818349008992A46B04733469E9810267C
:10335000F041B92189007A18339230917850FF20DA
:10336000E14978546078E14978546088E0497852BE
:103370009120C000381807992A461C4698470F9894
:103380000078DC4978541C9D284606993246A047AF
:10339000D848385C2874D848369939541B98059910
:1033A0003246A0472BF055FE0D9800783399C8732C
:1033B0000E98007888730D462B20000138180C22D7
:1033C0000B99A0476D88CD498D4201D101F0AAF833
:1033D0003098385A884201D101F0A4F8C849785C85
:1033E000369A104301F0A2F8BC4AC64BD05CFD21CE
:1033F0000140D15405E7B948C34915E20822239892
:103400002CF034FC2F98022801D101F0FAF82F9803
:10341000012801D100F0AEFC002801D001F0A4F990
:10342000B4A898212BF00AFF3498982801D000F016
:10343000A1FCB4AA98232CF017FB002801D001F0BE
:1034400093F904980378082B01D901F08DF90498B9
:103450004078102801D901F087F9A721C9009F4AB7
:1034600053545118487000200121029A049FDBB286
:10347000984201D301F06EF8531E1B781524A40165
:10348000964E35596D186D1E2B705378157834593A
:10349000661865547370401C3B78C91C121DE6E722
:1034A000B4AA24233398369C214625F0D9F9002864
:1034B00001D100F07BFC23F052FD01F055F9002012
:1034C000864D924969580A78904222D24A788B7880
:1034D0001B029A18CB781B0409792CF009F9820099
:1034E0008A58917ED37E1B025918137F1B04547F88
:1034F0002406E31859180AD0537E319A18325A43D9
:10350000002A04D000230B70491C521CF8E7401C11
:10351000D7E71821349826F005FC309000212F9130
:103520003098814201D101F01FF93291B4AA1823D9
:103530002CF09AFA002800D091E0744828580178BD
:10354000401CB4AA5278349200252A4691421CD0DD
:10355000067847783F02BE1987783F04C47824066E
:10356000E419A4196659B47EF77E3F023C19377FEF
:103570003F04737F1B06DB191B1903D03378349C7F
:10358000A34204D0521C2D1DE0E70B4600E0134679
:103590008A42524D5BD201782AF088FF9900405848
:1035A0002AF0A2FF5318417E302048431818002209
:1035B000914206D01C7AE40702D0521C3033F7E760
:1035C00018468A4243D2017A01220A430272B4AAFF
:1035D000117801705378437053884380B59B037111
:1035E000259E337874782402E318C380B378F47886
:1035F0002402E318C385537A037252890282002998
:103600000CD1B7994182249B19785A78120251182B
:103610009A781204DB782CF0A3F94161B4A9498AA5
:10362000024628320185B9999170269A117852780C
:103630001202511881851C21242903D0FF224254F3
:10364000491CF9E724F07CF82F98401C2F902F9804
:10365000002802D01BF0A8F901E000202F90369836
:10366000183036903299491C5AE72A9840011B4974
:103670000B58DAE000233398369C042B04D0B4A90D
:103680000022CA545B1CF8E7B4AA0423214625F0A3
:10369000E7F8002801D001F067F8241DB4A80178EC
:1036A000192086010D4A91550B20C00115180020E4
:1036B00007468F4201D301F057F8002801D001F0EE
:1036C00053F80C23339821462A4625F0C9F87F1C6D
:1036D0000C340249895D0C35EBE7C0461C20002004
:1036E0007904000015E00200FA0200003602000032
:1036F000760200006B0200006A020000FFFF00007B
:1037000014070000D10C0000680C0000AC09000098
:10371000B4AA18232CF0A8F9002801D001F024F84D
:10372000052005022CF0DEFB002838D004461022CC
:103730002946E54FB8472AF0E8FDB4AE08222CF040
:10374000C1FC002220462946B847717A8279C379A4
:103750001B029A18037A1B04407A0006C0188018CE
:103760000170112220462946B847B79929F0F2FF87
:10377000D64AB847B69929F0EDFFD54AB8477189BE
:103780002AF088FB0720420320462946B847F17DEE
:103790002AF018FB002902D020461EF023FD2CF051
:1037A000E9FB002801D100F0DFFF2021C94A2BF0FE
:1037B00049F82AF0AAFDB4A9CA890280497B817020
:1037C00000F0D2FFC448C5492EE00020339C369D4E
:1037D000042803D09DA92BF0A3FFF9E79DAA042399
:1037E0002046294623F004FF0028BB4B00D1D8E334
:1037F0009120C0001C1808222046B94929F03EFE3D
:10380000002801D100F0B0FF29F0C8FD002801D048
:1038100000F0AAFF00210122B4AB20460EF016FEF4
:1038200000F0A2FFAC48AF494358002B01D100F093
:103830009BFF33983699349A984700F095FF2F985C
:10384000002801D000F090FF0023A34C3398369954
:10385000102B01D100F079FCB4AD0022EA545B1CBE
:10386000F6E7B4AA18232CF0FFF8002801D000F0E6
:103870007BFF2024204622F085FA054600222146BF
:10388000914EB047B4992AF0EDFA0122284621461C
:10389000B0473746B5992AF0E5FAFA26714308464B
:1038A00025F048FD022228462146B847B4AF3989A1
:1038B0002AF0F0FA8C4841438C4808182CF059F94A
:1038C00045214901844A505028F070FC03222846C3
:1038D00021467D4B984779892AF0DCFA4E433046E1
:1038E00026F0C0FB042228462146774EB047B79900
:1038F0002AF0B8FA052228462146B047B8992AF09E
:10390000B1FA062228462146B047B9992AF0C2FAF0
:1039100000F02AFF2868329000233398369D042B4C
:1039200004D09DA90022CA545B1CF8E79DAA042379
:103930002946289323F05CFE06460028664C02D1F7
:103940009D986B49605426F017FF6A482F992152C1
:1039500008461C210028309100D03021002801D0D9
:103960002C2030902F1D012036903498001F26F017
:10397000D9F90546604932984860002034902946BC
:1039800026F0B0FB5C490870329529461DF0A8FA74
:1039900034992D90339D3298814200D3F7E3002E65
:1039A00000D0F4E33491B4AA2846394619F0FAFB62
:1039B000064600283AD12B972C96B4A829F09AF9FC
:1039C0004E496258289B37990840010151180C7ADA
:1039D0004D7A2D022C198D7A2D04CE7A3606751962
:1039E0002D192C46464E344066426641002B369FC8
:1039F00000D03746002F02D1401C5B1EE3E7002CAD
:103A00002C9E00D0BFE308312B9F3A463C4B1A4016
:103A100015430D702A0ECA702A0C8A702A0A4A7041
:103A20002D990870491C2D912B4C339D30983F18CF
:103A30003499491CAFE72F98012800D056E1B4AA69
:103A400008232CF011F8002801D000F08DFEB49866
:103A50002C4940189B2189001F4A50509D2081000D
:103A6000002050523499C9080901814201D100F067
:103A70007BFEB59A234BD218174D204EAB591C181C
:103A80001A54130EE370130CA370120A6270AA5931
:103A90001218002353731373AA591218D37A1024DF
:103AA0001C43D4721030E0E70020042803D09DA905
:103AB0002BF036FEF9E70020339D082824D0B4A966
:103AC0002BF02EFEF9E7C04645E8020001E00000B9
:103AD00002E00000FEEF00001C200020640C00004B
:103AE000983803006C0C000090D00300FF3B0000EE
:103AF000B2040000B604000038410020E4040000D5
:103B0000FFFFFF07FF0300009DAA04242846369903
:103B1000234623F06DFD002801D000F025FE9DA86E
:103B200040780228229800D32046379909022F9125
:103B3000012421022B913699461800200346369025
:103B4000074628949DA80078874201D300F00CFE18
:103B5000002B01D000F008FEB4AA08232846314605
:103B600023F046FD03462E9800784109052900D12F
:103B7000A0E0012909D12E994978090208182F9946
:103B800008402B99884200D194E030933496E3208A
:103B90008600854DA85939462746112432914C4359
:103BA000015D39430155B4A80078A95909198871F4
:103BB00020F0CEFA00280DD0A859369940180021DF
:103BC0003C46349E329F309B339D112972D02BF09E
:103BD00037FEFAE72E9A1078A9590B5D2D9300074E
:103BE000400E2C9087232D9803402C9818180855C8
:103BF0001078A95909194A781202C0001F23DB0264
:103C000013401818000A48702E992BF082FC0146C8
:103C10002F9A11407A02914208D1A95909194A7B79
:103C2000C006C00FFE23134018184873A95908197D
:103C3000095D2BF0AFFA2B468D186A05520F329FA3
:103C400006D1B499DB4A995401782BF0A3FA8D1868
:103C50002E994A789207520F0623294699438918CC
:103C60002A0A42702A0C82700170B4A8C178D04D23
:103C7000AA19AB591B195971A95909197F230B713D
:103C8000516800780F54B598A9590A19095D5378FD
:103C90001B02591893781B04C918C006800BC64B29
:103CA00019400818010C9170000A5070339D289C2F
:103CB000349E309B08367F1C36981130369041E791
:103CC000C9200001BA490E180025B948BB4940581F
:103CD000854201D300F048FD3168359884B2204612
:103CE0008847002836D16D1C1436EEE72D68B4AA3B
:103CF00004232BF0B9FE002801D000F035FDB49864
:103D0000AF4940189B218900A94A50509D2080004E
:103D1000002414523498001F01D100F025FDA94958
:103D20004968691AA84A914201D900F01DFD80082E
:103D30003699091DC2B233981AF09EF9A14800784D
:103D4000002801D100F010FD1AF02EFB9D480470F0
:103D500000F00AFD14206843954908189B4945580E
:103D600000972F98019020463399369A349BA847A4
:103D700000F0FAFC29F0B2FA00269D969DAF0423CC
:103D8000339836993A46329323F032FC0028884D16
:103D900000D140E2A721C9006E521C3001D100F0D1
:103DA00030FC00F0E1FCC0461C2000202434369496
:103DB000B4987F4F864978547A18B4A834904079E3
:103DC000411E88412C9210770C223092209C204674
:103DD00021992AF01FF900206070E070E0802D909A
:103DE000A0807C4D2CF07EF8064629467A4A7B4F0F
:103DF000B847299C21786278120251182AF04AF8B3
:103E000030462946229D2A46B847217B329A1140E6
:103E100029F0D8FF032230466E49B847217B890735
:103E200029F013FF207B2840400821F051FE042296
:103E3000304668490D46B8473499C97D29F0C2FF1C
:103E400005222BF076FEBA9929F0BCFF06222BF052
:103E500070FE217B4907C90F29F0B4FF07222BF020
:103E600068FE217B0907C90F29F0ACFF257B5C4860
:103E70004F4F385C6900102319402F93EF22024006
:103E80008818584056497854082230465149534FB3
:103E9000B847E906C90F29F095FF092230464D4978
:103EA000B847217B8906C90F29F08CFF0A223046CA
:103EB0004849B847349D697E29F084FF0B2230467B
:103EC0004449B847217B4906C90F29F07BFF30469A
:103ED0004049309AB847A97E29F074FF4148344AD6
:103EE00011500D2230463B490F463C4B9847217BF1
:103EF000C90929F09DFEC00923F09CFF0E2230461F
:103F00003946364B9847354FE97E29F05BFF0F2243
:103F100030463049B847617B329A114029F052FF50
:103F2000607BC007C00F23F0E1FB304629490D46F6
:103F30002F9AB847617B890729F087FE11222BF061
:103F4000F8FDBB9929F03EFF12222BF0F2FD217AF9
:103F5000627A1202511829F09DFF13222BF0E9FD1D
:103F6000A17AE27A1202511829F094FF349800796C
:103F7000411E092900D92FE14000C3B23398369E73
:103F80003146119A24F06CFCB4A909794A009619BB
:103F9000002800D17FE2319B473300203290124C41
:103FA0001DE10020102821D0B4A92BF0B9FBF9E7BE
:103FB0001C200020FA020000FF1FFC00B80C0000CB
:103FC000FF03000038410020FEFFFF7F9C0C000033
:103FD000EC0B000057FC0000FDFF000045E802006C
:103FE000FC080000DC080000FFFF000001200002C8
:103FF0002D90291D00252A469DA80078824201D3D4
:10400000FFF7F6FB002D01D0FFF7F2FB9DA84078EB
:104010000128349201D0102300E00D23B4AE2046D5
:10402000369132462F9323F0E3FA329081208500B7
:104030009F484059B17A0B27794340182BF0AEF9CD
:104040002D9A114278D10930B4AAD37A9B075B0C20
:10405000309C66020E409B190170190A4170F94CA0
:104060006059917A79434118887A00024004800FA0
:1040700019D0B4A8C07A01282CD106220846F249EA
:1040800029F0C8FFB698EF4C6159B4AA937A7B43E4
:10409000C918030ACB718871B7986159927A7A432B
:1040A0008918087229E0B4AE304622F0F3FCB698C5
:1040B0006159B27A7A438918020ACA718871B7982D
:1040C0006159B27A7A4389180872B07A31891BF043
:1040D000D3FB12E0B4AE304622F0DCFCB798D94CEA
:1040E0006159B27A7A43891808726059B17A794372
:1040F0004018D64A110AC17182716159B4A8827AF6
:104100007A4389182BF0ECF92D9B1A434A72120A54
:104110008A726159827A7A43891800224A726159F7
:10412000807A78430818817A10220A4382728320A9
:1041300080002158491C215036992F980918349A2B
:10414000521CC04B339C329D56E7B4AA102323F077
:104150004FFA002800D007E3B49825218901605266
:104160006018B4A94A888281B59AC281CA8802823D
:10417000B69A428249898182B7990184002001461A
:1041800020F094F8F0E20026AE4C339D2B9F2F9840
:10419000002807D0002E05D13298C2B228463946F1
:1041A00019F06AFFAA482554DEE29DAA5C2328463E
:1041B000369923F01DFA0446002800D092E0002032
:1041C000642877D0B4A92BF0ABFAF9E7B4AA64233A
:1041D0002BF04AFC044685E0369E9C4C2D9BB4A8EF
:1041E0003299002900D16FE18079002800D16BE17C
:1041F0000A2800D968E1430033983146109A24F028
:104200002FFBB4A989794A009619002800D150E102
:10421000319B473358E13A78A720C4002A55281922
:104220009DA9497841709000CB001818349B1B1F42
:104230009BB2834200D0E4E131984730102A00D984
:10424000A8E5102900D9A5E52C94002A314600D113
:10425000ACE13698071D00200125114604462D9635
:10426000002800D097E18C4200D394E1B4AA042343
:104270003398394623F0BCF9002812D1B4A94A7802
:10428000309215239B016F4EF6587619761E309AA0
:1042900032702D9E49886B4AD25853195155090ADC
:1042A0005970641C9DA90978ED1C3F1DD8E7C046D4
:1042B0001C200020B4A89DA95C2229F0ABFE0C981C
:1042C00000781E9B597BF8220A40072101405018B4
:1042D000587331984730CB900020C1439974090A34
:1042E000D9741875002C00D03EE2B4A8369000783E
:1042F000012133910840534F564D795DFE220A400B
:10430000101878559DAC042220461799524EB0479C
:104310001D98214628F06EF90920C001381808249C
:1043200016992246B0473698007802210140785D00
:10433000FD220240501878558920800038183490AA
:104340001599224625463294B04733464320C00093
:104350003A182F92B5981026F041B92189007C189F
:1043600030942D917850FF203C4978543699487804
:10437000907748883A4978521E9C207D907591200C
:10438000C000381814992A4698471A980078354979
:1043900078541C9D2846139932462F4B9847314834
:1043A000385C28743048339B3B541B981299324632
:1043B0001E46294B98472AF04CFE19980078309DEC
:1043C000E8732078A8733698007880092F990875CB
:1043D000607B8107C90F6973244BF9584007C00FF0
:1043E000C003F20391434018F8502B200001381805
:1043F0000C221899184B9847607B5121C9007A5AB2
:10440000C007000E80239A4310187852CB981DF0F5
:1044100009FDA07CE17C0902081825F037FB607BD0
:1044200032990840C00823F005FD6D88F9498D4296
:104430001ED02D98385A88421AD0FE49785C3043F5
:1044400019E0C0461C20002090380300FFFF000048
:10445000B40400007904000015E00200FA02000034
:10446000760200006B0200006A02000014050000E2
:10447000F049785CB04378540822349C2046E649E1
:1044800028F0FCFF002800D16EE1E248854200D10F
:104490006AE19BAA59E02C98C1711018C0880023CA
:1044A000DC4CA04200D09AE6481EDC49D44A505465
:1044B00095E62C9841771018808B0023A04203D1F9
:1044C000481ED749CE4A5054B4AA002B339801D085
:1044D000FEF7F1FFD379002B01D1FEF7ECFF042B9F
:1044E00001D9FEF7E8FF61225401C54A12195B00A9
:1044F000314624F0B5F9002801D0FEF7DCFFB4A85E
:10450000C079BF49C74A885489184200895AC14AAC
:10451000914201D0FEF7CFFF401EB949C14A8854ED
:10452000FEF7C9FFC349785C369A90437854082255
:10453000349C2046B84928F0A1FF002800D113E19F
:10454000B448854200D10FE19CAA2846214618F0C4
:10455000ADFA09E100200721039A7B78984200D345
:10456000CFE0931F1C785B78A54DAF4EAD596D1809
:10457000ED1E6B702C70A24D137807241C40AB59B4
:104580005B185B1E1C701378DB08AC596354401C2D
:104590000831D21DE1E70028994D07D000212C9A5F
:1045A000A9522F9902292CD0FFF7F7FBB596B496A4
:1045B000880036994418329F9DA8407886421DD2C3
:1045C000E119B4AA0823339823F012F80028E5D1A2
:1045D000B598954BE958CA19C855000A5070B4A847
:1045E000C17907220A40E958C9198A70C079C00800
:1045F000E958C919C870761C0837DDE72F980228DA
:104600007FD128F06BFE00269D969DAF0424339841
:1046100036993A46234622F0EBFF0028784D00D029
:104620009FE03A78A720C0002A5429189DA8407816
:1046300048709100C3005918349B1B1F9BB28B42DA
:1046400000D08EE0102A00D98BE0102800D988E035
:10465000002A314630962FD03698061D00200125BD
:10466000114607463294002822D18F4220D2B4AAA4
:1046700004233398314622F0BBFF002812D1B4A99D
:104680004A78349215239B015D4AD2585219521E22
:10469000349C1470329C4988594AD2585319515548
:1046A000090A59707F1C9DA90978ED1C361DDAE7AF
:1046B0000028534D309E54D1B596B4968800369953
:1046C00045189DA8407886421BD22919B4AA082310
:1046D000339822F08DFF002841D1B598484B524FB6
:1046E000D9590A190855000A5070B4A88179DA59C5
:1046F00012199170C079D9590919C870761C0834FB
:10470000DFE7002404253E494848085C844210D273
:104710004548085841198978032907D1405D1FF0A1
:1047200017FD002802D0E0B226F008F8641C083516
:10473000E9E73F4808580021082902D02BF080F80B
:10474000FAE7002080280FD02D49374A89580A18E7
:10475000095C29F023FF00220A700830F2E7284D97
:10476000309EA720C0002E523599491C244D274C5D
:10477000FEF704FD2078002803D019F015FE002074
:104780002070002422482C50281884802798483014
:1047900001D112F057FC1C482858002810D120469F
:1047A00027F0AEF9CD2000012C542A98400128189A
:1047B0001821C166006E401C02D101201F9968506B
:1047C000104AA85C04210143A9547FB05CB0F0BD3D
:1047D00031994731396038A910F06AF9002803D0BF
:1047E00029F090FFFEF710FC03CF2A9A5201AA1875
:1047F00010663878CD231B01E854D166FEF704FC1F
:104800001C200020D10C0000CC0C000038410020FE
:10481000DC0C0000FFFF000098380300F30B0000E1
:10482000090C00001E0C00004405000039050000C2
:104830003C05000014070000F0B595B00F91064646
:1048400035300C90371D012188030D921040002255
:104850000790002815460E960B9700D15AE110914B
:10486000FC4AFB4C31462646143600272784B77392
:104870004123E7547775432027542774A771F775B0
:104880004620275447202754E7833776908BA08310
:10489000E7858A6BCD6B002D0DD06888C1064F0F60
:1048A000002A0AD1002F14D103218902084010D117
:1048B0000121002715E0002A0BD0107A022808D227
:1048C0000021002D0DD000280BD168880005800F35
:1048D00007D00B9A1078590240181080022500F07A
:1048E00034FF03910893059228F0AEF804902AF063
:1048F0009CFEE249C8780F280ED00C980078C007BB
:104900000AD029F097FD109840050A902AF0A8FCDB
:104910000A982AF0D1F9D94908880022099000287C
:1049200010460A9222D00B460C9801788807104650
:104930001CD54807C00F197941402D2006902154FD
:104940000999CF48C181D9888181197A41819978A3
:104950000C9A1278D208D207520C51180A9A06986B
:10496000205C00030843109909024018C44948829A
:10497000002D06D00B980078012804D10E98036A08
:1049800005E00B9F46E02AF071FC0A9A034668880E
:10499000C107069301D069680691099900290AD0D8
:1049A0000C990978890706D52846099327F046FA15
:1049B000099B0A9A6888800708D4184606990993C3
:1049C0002AF01FFE099B0A9A00281DD0002F02D052
:1049D000022108461AE02889069909186161688849
:1049E000A84A0240501E8241727403980028109A0F
:1049F0000B9F0FD1184629F07DFA400A0328109A20
:104A000008D304200A9A03E00C2086210B9F29700A
:104A1000202160540E9D286B099211460CF074FC05
:104A20003020385C26F006F8002802D008984002B2
:104A30006AE026F085FE2D6C002D1ED09248C068DD
:104A40009249086000276F707F21A9702878C007FD
:104A50001FD1C8430A9124F025FF87480786C786DF
:104A6000078747864787878787860A98E870AF60F9
:104A7000EF602F61AF820B9F22E07F20C04324F0C4
:104A800011FF00207C490886C88608874886488729
:104A90001AE0E8787F2800D1C8430B9F40B224F089
:104AA00001FF2889744908866889C886A88908870B
:104AB000E8894886A88A4887288A8887688A8886F5
:104AC000287802210140480809996071002911D015
:104AD0000E98203011AA0A92AAC8AAC20B9F606938
:104AE0001190727C01210A98049B22F073FF062129
:104AF000317303E00E98049922F02EFB10285E49D2
:104B0000059D00D28DE000023978014339800225ED
:104B10000E9E099A0121C80506900A914805089041
:104B200003210C0278780002A04201D000F0D5FDEC
:104B3000049109921095464B0D9FF8020CD5187CF4
:104B4000002809D0801E4242424100201874D868D3
:104B500021461DF031FF3E4B7803019400D40DE156
:104B6000F56BD87F002809D0002D07D029780229BD
:104B70004BD8312028702AF0D7FDEEE02027D85DF1
:104B8000012836D1002D34D02AF070FB0646688803
:104B9000C107324600D06A680499084001280CD148
:104BA000304611460597374616462AF02AFD32460A
:104BB0003E46059F002800D186E0254B987F0028BF
:104BC00075D002242C702D480088002809D00C983C
:104BD0000078800705D528460C9227F02FF90C9A0B
:104BE0001B4B6888C106490F00D193E0DC550E9E2F
:104BF000C2E04621595C00294AD000280D9F00D010
:104C0000BCE00220E1490860B8E02026995D062951
:104C100022D8022800D196E0032800D09DE0392454
:104C200092E0002D4BD000270F8428460DF080FF26
:104C3000102850D30B9F3988BA78120489180002C3
:104C4000D34A114008433880080CB8705FE7C0466B
:104C5000783E002006200940CA1F022A7DD80B4A50
:104C6000928852077DD4032877D1092975D139203C
:104C700028700C20985570E0062009404C3803003D
:104C8000A420094002100000984000204C20094058
:104C90004720185C01280D9F70D1996B30468847DA
:104CA000002802D006982AF00BFDBA4B66E068880F
:104CB0000005800F85D0822028700C2008E028F0A5
:104CC0005DFA208000F00CFE862028700C20B14B8D
:104CD000D8550E9E51E028F051FA2080002D01D1C8
:104CE00000F0FEFD27F0E6FB27F03AF86080A760B1
:104CF000284627F003FF27F01DF80998002801D067
:104D000000F0EEFDF07C002801D100F0D6FDA248B5
:104D100000F0D4FD2989511859611A4614321C46F5
:104D20009E4B1840431E98415074304629F0E2F8DB
:104D3000019988421CD20520E05525F0B3FE0A985F
:104D40009249086016E0352422F0B2F92C700C204C
:104D5000904B985500200990019C0020D8770E9E1A
:104D60000CE00328F9D10A98884908609871F4E7A3
:104D70000420E0550E9E2346019C0D9F780608D521
:104D80000A982AF09DFC2120195C012901D10221F9
:104D90001954F80305D5B06B002802D027F0AEFEF9
:104DA0007C4B7F48007800280FD078020DD5212059
:104DB000185C002809D0184614300A994175007B08
:104DC000002802D10220714908607648C07802901C
:104DD0000F2808D00F980899084204D00A996B4808
:104DE00001602C20195418461430017B0590407B3B
:104DF00004290CD102280AD158696B494018214670
:104E00000A9A1DF0D9FD00281ED10B201DE00025B7
:104E1000022920D102281ED1F76B78680C907E8879
:104E20002AF024FA002505990D74FC78049A1440A0
:104E3000012C00D80124CC73F1075DD1554B58618A
:104E40000A9D0E9E0D9F03E0052004900025514B06
:104E50002020049919540A9800050390B80502D53A
:104E6000187C012808D00F98039908420CD02AF02A
:104E700053F9484B7F2807D02020185C032803D122
:104E800022F016F9434B02E0002D00D1AEE0F76BA3
:104E90007888032139704549898800290ED0242457
:104EA000185D002805D0039829F0F6FE394B002044
:104EB0001855122038702AF037FC97E0C006440FCE
:104EC000042C01D100258BE02AF026F90646242582
:104ED0007F28304A29D1505D002826D1012005992C
:104EE000087450690521090244187888800570D437
:104EF000039829F0E1FE6DE0019940180C992AF021
:104F000080FB002858D00520000260432849411842
:104F100000250C9C20462A461DF04EFD1D4B5C6171
:104F200000280E9E0D9F93D195E730467F38414271
:104F300041410C91039829F0AFFE002000951549DE
:104F400048550122B95604918E42154600DA0546AD
:104F50001849C9887B881B065B0F994200D8024616
:104F6000601E06280C9C00D99AE114434000C046FC
:104F70007844808840008744330006008101930113
:104F8000930193018D0125462AE0C0463010084068
:104F9000FF00FF00783E0020022800000210000001
:104FA000263803004C38030000FDFFFF4C20094069
:104FB00000FEFFFFA420094004980640012E0C9833
:104FC00000D03BE7862038700C2004900E9EEB4BFF
:104FD00038E754610025204601992A461DF0ECFC73
:104FE0002420FC4B185C00280E9E26D00F9800074A
:104FF00007D52220012119544020002119544320B3
:1050000019540F9840060B9F42D5402029F044FECA
:10501000F04B2020195C09293AD1EF498988CA0749
:1050200007D1CA061FD4F26B0907490F2AD01521F0
:105030002BE0F16B14220A7028E0002D00D038E735
:105040005869059AD17B491ED173090600D100E148
:105050000521090244180022204601991DF0ACFCEC
:10506000DC4B5C61C2E726229A5C002A05D028222C
:105070009A5C002A01D00A2109E0F26B890603D567
:10508000432102E0802100E0102111700C2119540D
:105090000F98400710D54720185C002808D0996B5E
:1050A00030468847002806D006982AF009FB02E01F
:1050B000042029F0F1FDC74B01240F9880040CD582
:1050C000600329F0E9FDC34B2020195C082904D1B5
:1050D000F16B10220A700C211954C049E0030C90A6
:1050E000421C0F9800921042049419D008880025A1
:1050F00005994D73097B072915D0052923D15869D6
:105100000599497C1C4628F001FF032841D126F06F
:1051100017FB2020062121540A9809902346D2E04B
:1051200000200290E4E00F99214042D1197903292F
:1051300070D102990F296FD02C21595C00296BD0B6
:105140000320C0026CE0083902290CD8FC280AD1DF
:105150009A79002A07D0F06B392101702AF0E4FA1D
:1051600000259D71AFE0029A0F2A28D19C49098839
:10517000002932D02F21595C00292ED0FC282CD1B7
:105180009849097C490762D52921595C002932D107
:1051900027E0F16B087020210C226254014631395E
:1051A0000929234600D98EE0397800020818388092
:1051B00039E0F06B102101702AF0B6FA7FE02C2262
:1051C0009A5C022933D8002A31D0FC282FD1F06B09
:1051D000182101702AF0A8FA75E02921595C0029EC
:1051E00003D14621595C002905D0072803D17D4908
:1051F000097F49072BD5197902240329109A58D120
:105200000F990C9B194034D1072851D102201EF070
:1052100035FB30E0080203E021F020FF6D4B000277
:1052200039780143398002202AF04AFA4BE0002AFB
:105230009CD0FC289AD16B49097C490796D420065A
:1052400010990918109122201D5443201D540A9DC5
:1052500039E0052111733989401858617888C004F4
:10526000C00F507425F01EFC5A4B01205E490860A7
:10527000BCE621F0F3FE109A01461AE00125002257
:105280009942284600D8104604998E4200DA154605
:105290000543A5E60498864200DB03E3002502E30C
:1052A0004C4B0098185C00280E9E00D09EE600E64D
:1052B00010212243109238780902401838800320C8
:1052C00000BF00BF434B4720185C002808D0996BF3
:1052D00030468847002802D006982AF0F1F93D4B65
:1052E00002952C2000211954089829F0B9FF394B58
:1052F0003E48001D0D9901424AD041241D5D002DFC
:1053000046D0FF2D0CD12220195C491E012918D846
:105310001E21354A1160422103225A541A5435E0A5
:105320002226985D012810D140229F5C9869002FA9
:1053300011D100280FD0018882290BD8491D8F0870
:1053400009E042200221195420E042200221195490
:105350000E9E1BE00027AF4212D3002810D0244934
:10536000096B89088D4200D882E21E201E49086020
:10537000422003211954995505E0C046783E00208B
:105380004220042119549F540E9E0B9F0020185553
:105390000998002853D0174CF56B03272F700A98F3
:1053A00022F0F4FE3046072611490E60816BA01CE6
:1053B000002400290CD069880A05920F054B1DD0E6
:1053C0002720185C00280B4800D00B480A9C1FE0DF
:1053D000004B1DE0783E0020A42009400620094033
:1053E0004C3803009840002030100840FCFF0100BA
:1053F000A01108400208000002280000890407D418
:10540000FC4909880029DBD02E21595C0029D7D01E
:105410000D94F949C884EC68002C0AD02088401DFE
:105420008108F648006B8008814200D809E1842099
:1054300000E0832028702AF077F90E9E0B9F049DD0
:1054400029020F980140079104D10F988006800F20
:1054500000D185E0B06B002800D181E0E748C76A41
:1054600010200F99009001400991042F65D300206E
:105470000C9026F0ADF985B26C1D2646E04806403A
:10548000BE425DD8DF4FB868314624F095F83B4600
:1054900007469868874203D008202AF011F99F60D8
:1054A000002F4ED022200D90185C002807D0032832
:1054B00005D043201E54D148C06844215852A10849
:1054C000F8893C181034204621F074FDF8898019C1
:1054D000F8810E9EB06B27F011FBCA4B2020195C9F
:1054E0000A2919D11521079A002A11D0032D0FD3AB
:1054F000A31CA2789B181B792A25C24F7D5DAB4265
:10550000C04B05D1A1180979C906009900D54321DE
:10551000F26B11700C21195404202AF0D1F8B7480D
:10552000C76A099800280D9A02D1985C03289CD17B
:105530000C9999544320195497E70B9F049D07E059
:10554000F14B85201871F748049D05600E9E0B9F56
:105550005879002804D0306CEE492AF075FCEA4BEB
:10556000092040020F9901420FD0B06B00280CD0E7
:10557000222000211954432019545879002804D0BE
:10558000306CE4492AF060FCDF4B2024185D0C28C5
:105590002CD1FF200002398801400198814225D199
:1055A0003746EE04109D3543039829F075FBF86BE0
:1055B0004188890439D40E99896B002935D021207E
:1055C000D14B195C002900D1EAE0D04909880029B3
:1055D0000E9E0B9F00D1D9E02E21595C002900D1ED
:1055E000D4E0D048049901602F20D7E0109D0298A4
:1055F000002872D04620195C00290AD000211954D5
:10560000B06B0DF095FA102801D329F029FD06980A
:105610000543A80761D429F04DFD032828D105983A
:10562000C07C002839D0BE4838E02121B64B595CF7
:105630000078002926D01871BA48049901600B201F
:10564000B4E0204622F07CFD6888410513D4B349BC
:10565000891E0842059900D1ABE06889A94A1084E7
:10566000887C00280B9FA84B00D1CDE00120CCE026
:1056700029F0F6FC31E0A0782188021D8A4267D922
:10568000002067E00B9F3978000208183880B01CB2
:10569000109D054300200E9EF9E0A0489949C8845A
:1056A00000240C849A4804800B209F490860306BCA
:1056B000214625F0DBF9059844759348C4852046BA
:1056C00022F064FD29F028FA1D209649086003980D
:1056D00029F0C6FD049805994873A80735D58A486E
:1056E0002021415C00290AD0F16B002904D00A78FE
:1056F0000F2A01D87A780A700A99C9040D43462105
:10570000415C002901D006990D432B21415C002901
:1057100004D0818F864A1160C08F506026F0F4FA61
:1057200028F074FE28F07CFE1BF04CFD77480088C2
:10573000002801D029F0D8F9089829F0ADFA28F00E
:105740006BF8306C73492AF07FFB284615B0F0BD2A
:10575000001980790E9E6C4B69896A4A11840599FB
:10576000897C002903D0049C21020B9F02E03902AE
:105770000B9F049C0918664A11800921059A117330
:1057800090750C9841300C90204649E04621595CB8
:1057900029229A5C0A43110675D10221195475E039
:1057A00025F0CEFF584B00200A9902910E9E0B9FC8
:1057B0006DE0002053490884554908800E99896B93
:1057C00000290B9F504B0DD0698889040AD4574992
:1057D0000C914E490A880821002A06D02E229A5C94
:1057E000002A02D03146009A0C92202299540E9E33
:1057F00016E0C0464C38030006200940A0110840BE
:10580000FCFF0100783E0020052000020E9E40496A
:1058100008800920059908730C9841300C900020ED
:10582000282158540798002807D1306B0A9925F091
:105830001DF929200021344A11540C9C204629F0DE
:105840000FFD204629F038FA3248C068286129F057
:1058500063F9022000BF00BF1C20324908600D9888
:105860000028294B00D1EAE5212001211954E6E561
:105870000D92294622F064FC42207F1B16D0224B59
:105880000499195417E00220264908600020185591
:105890005879002800D1AAE6306C1E492AF0D4FAC3
:1058A000194BA4E601252540FFF79AFB0027164B6C
:1058B0001F54022098550D9A65E518481149144A5D
:1058C000C8840F84178029F027F9022000BF00BF89
:1058D00014481D210160109F380529F0C1FC777321
:1058E0000B9F3888B978090440180B4908400321F8
:1058F0000A0202433A80000CB87021710025FFF7BC
:1059000007F9C04606200940783E00204C380300C5
:10591000A420094098400020FF00FF00020800007A
:105920000228000030100840A011084001A000002B
:105930001C210840F0B5C5B0E948EA49002902D069
:1059400029F031FDFAE70020E74C142804D0211893
:10595000382229F0DDFEF8E7E448E549002902D0C5
:1059600029F021FDFAE7DE4CE248D4210B9160508A
:105970002046D430E04B19463C31C160DF490A462D
:105980001C326F20C0000C902250DD482150194677
:105990004031DC482150194644318F200E900001DF
:1059A0000D902150A721C9006118D74ED74A1C4637
:1059B00051344C608E60CA60D54F39461031002298
:1059C000D44C802A0CD0C6480559A818A9540D0EED
:1059D000C5700D0C85700D0A45700832491CF0E742
:1059E000CD48AF21C900BE4B10915850CB48CC498F
:1059F000D963C149483103C3CA48CB49083B585011
:105A0000CA48812189000F915850384631304121D0
:105A10000491C90011915850E320810058183A466A
:105A20004532203712915F50C14D42608560C148B8
:105A3000C149585018463036C0495E500B995B58E2
:105A4000BF4E002E05D000201870A5485B1C761CA8
:105A5000F7E7E0210B9143580026042E04D00020E4
:105A600098559F48761CF8E70C9940580023192B4D
:105A700003D00022C2545B1CF9E79948A049405862
:105A800000231B2B03D00022C2545B1CF9E794486F
:105A90009C4940580023042B03D00022C2545B1CB5
:105AA000F9E78F480D9940580023042B03D00022BA
:105AB000C2545B1CF9E700200346102B23D0884911
:105AC0000A59DD005619575D71780902C919B7786E
:105AD0003F04F6783606F6197618171800220021CA
