:1000000000000120712904005D0703005D07030063
:100010005D0703005D0703005D0703005D07030044
:100020005D0703005D0703005D070300E76503004C
:100030005D0703005D070300D1BB0300C900040096
:100040005D0703005D0703005D0703005D07030014
:100050005D0703005D0703005D0703005D07030004
:100060005D0703005D0703005D0703005D070300F4
:100070005D0703005D0703005D0703005D070300E4
:0C0080005D0703005D0703005D0703003F
:10009000F0B5BDB0044601252021159132F050FE87
:1000A0000646471C1CA80570307813901894601EF3
:1000B000D24BD4211A915958C0B2A4221092504365
:1000C0001B90081842F0A0FF1290007BF075707A28
:1000D000B17A09020C188B200F9080001990195CDE
:1000E00048421691484113211191C9011491595C5C
:1000F000179529404A424A41024300D1BFE020B24D
:10010000002800D5DFE00122AD200D908100C64817
:100110000E91405A002500052E460AD520463C384F
:1001200081B20B292E4604D8C0490840C04EC640B3
:100130001640169243F030F941F07EF9002803D0C2
:100140004078001F454245418421002E00D064E2E2
:10015000F3200C900226B448199A805C4242424136
:100160002A420CD10C9AD200AF4B9B5C33405A42CE
:100170005A410028179B00D01346002B02D1062CB1
:1001800000D949E2472C00D947E2169AD50264000B
:100190007C44A4886400A7444607B307470047008F
:1001A0003C09B7068E07400240024002400240026E
:1001B0004002400240024002400240024002030866
:1001C00040029009400240024002400240024002C8
:1001D0004002400240028209C8051B076006400237
:1001E0004002400240024002400240024002DB0462
:1001F000400240024002400240029508CD08530AE6
:10020000CB094002DF0340026506F30A40024002C8
:1002100063044002400240023506A9052107280573
:100220004C0B270BF50585067F4E1A9C30591B9FFA
:10023000C01942F083FF01D803F099F8149542F0F9
:100240002CFD169029460D3139A844F0DDF80F3504
:1002500043F0D6FC1590401C19903059C019007914
:10026000C01EC1B2284632F06BFE1390002801D1A7
:1002700001F034FD00201B90199F02F03AFC3FF082
:10028000CFFA002800D1B2E1707DC007C00D00D0C8
:1002900035E71F2C00D8CEE1AE482018112805D82C
:1002A00001218140AC48014200D028E72046313886
:1002B000092805D801218140A848014200D01EE745
:1002C0001CA800210170A3482218472A01D903F075
:1002D000D5F8930001A0C0588746C0466B060000C1
:1002E0006B060000DD060000A3070000BF0700004A
:1002F00073060000730600007D3400007D340000AA
:100300007D3400007D3400007D3400007D34000029
:100310007D3400007D3400007D3400007D34000019
:100320007D3400007D3400007D3400007D34000009
:100330003D0700007D3400007D3400007D34000066
:100340007D3400007D3400007D3400007D340000E9
:100350007D3400007D340000670800005108000073
:1003600001040000010400007D3400007D34000021
:100370007D3400007D3400007D3400007D340000B9
:100380007D3400007D340000010400007D34000055
:100390007D3400007D3400007D3400007D34000099
:1003A0007B06000001040000E106000001040000DB
:1003B0007D340000010400007D340000450600008B
:1003C000450600007D3400007D340000010400007B
:1003D0007D3400007D3400007D3400000104000005
:1003E0000104000001040000E5080000B706000059
:1003F0000104000001040000010400001C20002092
:1004000009481A9940581B9941180C7949790902F1
:100410000919012901D803F031F8472A01D903F05D
:100420002DF804A2D25897461C200020FF0F000090
:10043000F10F0000B3070000B3070000B30700008E
:10044000B3070000D3070000B3070000B3070000A4
:100450007D3400007D3400007D3400007D340000D8
:100460007D3400007D3400007D3400007D340000C8
:100470007D3400007D3400007D3400007D340000B8
:100480007D3400007D340000530700007D340000FF
:100490007D3400007D3400007D3400007D34000098
:1004A0007D3400007D3400007D3400007D34000088
:1004B00093080000B3070000B3070000B307000073
:1004C0007D3400007D3400007D3400007D34000068
:1004D0007D3400007D3400007D3400007D34000058
:1004E000B30700007D3400007D3400007D3400003F
:1004F0007D3400007D340000B3070000B307000026
:10050000B3070000B30700007D340000B30700000C
:100510007D34000061050000B30700007D34000059
:100520007D340000411C00007D3400007D3400005B
:100530007D340000C11A0000551A0000B307000006
:10054000B3070000C9060000B3070000B3070000AE
:10055000D71A00000080FFFF7F0003008303000024
:10056000189831F08BF8002801D102F083FF202188
:10057000189C43F08DFEC178007900024018F049C4
:10058000884201D901F0DFFE31210E01ED49895B7E
:10059000884201D001F0D7FEEB48EA4A105A88425F
:1005A00001D001F0D0FEE74841F0C8FD0C3420AD89
:1005B0000B22284644F09AF86878002814D1A87ACB
:1005C000002811D020A84188808800044018DF4905
:1005D000491C884208D2DB498A19117C5218927B47
:1005E000002A01D103F0B3F8189C01F0ACFE42F0F0
:1005F000D3FE04D1707DC007C00D00D07FE520463A
:100600002138142800D97AE501218140D0480142DF
:1006100000D174E58D2109E08D21B878FA781202B5
:100620001018C74A904201D902F028FF18983CF0F0
:10063000B7F902F01FFF0120A040C649084200D0D0
:100640005DE529E6FC4841F047FF0B2901D202F0A5
:1006500015FFA679E7793F02BE19A419A47D0B34D2
:100660008C4200D8D9E602F009FF18983CF03AF91C
:100670009BE018983DF0DCF997E0EF481A99405854
:100680001B99411842F066FD427B842A00D190E01C
:10069000002A01D002F0F2FE42F0CCFD052901D281
:1006A00002F0ECFE0C30007916224243501D8842C5
:1006B0007FD902F0E3FEE0481A9940581B99401890
:1006C00042F03CFD00D023E116980128189C02D886
:1006D000204639F0B3F81CA920466CE0112161E0F6
:1006E000D54841F0F9FE052901D202F0C7FEA679EE
:1006F000E7793F02BE19A5192E7C002E59D00C3582
:100700000B3500240527002E01D101F055FE3C4693
:100710000C348C4201D902F0B1FEEC5D032C05D003
:10072000012C01D002F0AAFE0E3700E015378F42EF
:1007300001D902F0A3FE761E179CE4E7BE481A9981
:1007400040581B99401843F00EF8032801D802F0D6
:1007500095FE43F0A7FBB8491A9A89581B9A891845
:1007600042F072FD042A01D202F088FE42F033FA10
:100770008A78520604D542F056FFB04AAE4B9852E2
:100780000878AF49AC4A515C884201D002F076FE4D
:10079000AC48A9490858002801D002F023FD02F016
:1007A0006DFE0221189834F03DFE002801D102F0C0
:1007B00065FE1CA9189814F095FE02F05BFE1898CF
:1007C0003DF036F9002801D102F058FE9A481A99F6
:1007D00040581B99411842F0F3FD0C18207C42F060
:1007E00029FD491F0023814201D002F045FE002867
:1007F0001AD0082801D202F03FFE0C34E17A4A00F8
:1008000016460836864201D902F036FE21460C31E2
:100810008D5C6F00F619864201D002F02DFE204655
:100820000D303BF05DFA2573874883490A58002A4A
:1008300007D08649189890470028179B01D102F0ED
:100840001BFE189830F01AFF4342434102F014FE99
:1008500079481A9940581B99401842F084FF0128A2
:10086000A7D802F00BFE74481A9940581B994218F9
:10087000117953791B025918032901D202F0FEFDA8
:1008800042F026FC927BD200D21C8A4201D902F0AF
:10089000F5FD002139911B99411842F05BFC867BE4
:1008A00042F0C8FCF200D21C8A4201D902F05FFD7E
:1008B0000C30C41C002E01D102F059FD20AD0822DD
:1008C000284643F013FF39A943F0AAFD002806D1BA
:1008D000399842F0F0FC02D1807939F0C1FF083438
:1008E000761EE7E754481A9940581B99401842F081
:1008F0003AFF022800D15CE7032801D202F0BEFDD6
:1009000001D102F0BBFDC00700D052E702F0B6FDF6
:10091000032901D202F0B2FD8279C3791B029A1831
:1009200080180C30801C891EC9B232F009FB0028E7
:1009300001D002F0A3FD40481999405C1690C3E62F
:10094000F7FF00001C200020A2020000FFFFFF07AD
:10095000030418007F002BE0012801D902F08AFD72
:10096000354F1A9838581B99401842F0E7FB01D8C8
:1009700002F0FDFC42F013F9307815902021189810
:10098000199132F0DDF9441C007816908B20850017
:10099000785D002813D1B120C0002749085A4227AA
:1009A0000740400607D43F200001085AC00702D183
:1009B000274842F017FC402F01D002F049F9707827
:1009C000FE2800D3FE2023491B4B5A189070585C18
:1009D000022202435A54002014901B9A42F0D0FD88
:1009E0000FD1F61C14481A99405880180079C01E7F
:1009F00043F07EF8002804D100223046394622F028
:100A0000BDFF42F035FC0B49884201D801F071FD71
:100A10001798002801D101F029FE0F480021064A4D
:100A20001154505D012801D901F020FE0B4802F05D
:100A3000D9FBC046F7FF00001C200020A2020000E6
:100A40004C08000048080000140900000480000061
:100A50007FFC0300A4070000A5070000C9FA0300FB
:100A60002027189843F056FB19908B208000FC4AF1
:100A7000115C1A9810581B9A8018027943791B024E
:100A80009A18022A01D3002216920029179A00D040
:100A9000169A002A01D100F0A4FF002901D101F02B
:100AA0000AFF00201597FE49149A8D180124AC7294
:100AB000199B59789A7812025118E9801978890699
:100AC000C90F6972C007204600D00420E8720020D8
:100AD00028730626189843F013FC297B99221201EB
:100AE000EF4FBA1889005158C90E0171297B89004E
:100AF00051581F22D2060B469343017042F05CFD11
:100B0000190EC170E97A4171592000013D5C254000
:100B1000C9208000385C44424441002D00D1179C1C
:100B2000189843F0EDFB002D159F01D101F0C3FE95
:100B3000002C01D101F0BFFE4079012801D001F065
:100B4000BAFEED48002218993EF0BAFA02F092FC83
:100B50002024189843F0B4FA0546C0782979090290
:100B60000818E649884201D902F001FC28780007FC
:100B7000800F01D002F0FBFB6878A97809020E18FB
:100B8000DC481A9940581B99411842F0E3FA037B5C
:100B90000A79497909028A188027022A19961B9333
:100BA00001D202F058FC0C30411C01D102F053FC80
:100BB000501EC2B2032038F035FB002801D102F0EC
:100BC0004AFC20A939F049FA002801D002F043FC80
:100BD00020A80678471C002E01D102F03BFC3846C5
:100BE0003AF0DCFB761E0837F5E72027189843F02B
:100BF00091FA044641788278B320C000BD4B185862
:100C0000284009D1631C9D78DB781B025B19BC4D21
:100C1000AB4201D302F0ABFB12025518B5491A9A48
:100C200089581B9A89188A79CB791B029A188A18D5
:100C3000137B002807D1002D00D0EBE4607DC007B6
:100C4000C00D00D1E6E41593179519970C32551C89
:100C50000879401EC7B239AA284639463FF0A2FC9F
:100C6000D6211B900028139115D1149639AE3188E6
:100C7000169801404842484139F0FCFE30881499EA
:100C80000840400839F00AF83088042101408808FB
:100C900036F0F8FB0021169120AA284639463FF08D
:100CA00092FC1A90002804D1209830F0A1FC00207A
:100CB00013901DAA284639463FF014FB054600282C
:100CC00001D101F0B8FBD6211B980028149101D165
:100CD00001F0B7FB1A98002801D101F0B2FB002DFA
:100CE00001D101F0AEFB802601F0AEFB2021189C63
:100CF00043F0CEFA451C0178890608D57F4BAA78C7
:100D0000E97809028918994201D801F0AFF842F058
:100D100049FC1DA942F022F9002801D001F013FB83
:100D20001DA843F023FB01F00EFB724841F0A7FB26
:100D3000102801D202F01BFB8A79CB791B029A188A
:100D40008F183C460C34A17B4A0013461033834273
:100D500001D902F00CFB26460F36B25C511849004F
:100D60001031814201D902F002FBE07A002803D061
:100D7000F12801D201F0ACFF822118983AF09AFCD8
:100D800002F078FB2021189C43F082FA42F07FFAAF
:100D90005B4A914201D301F0D6FA5649199A895C0F
:100DA000002901D101F03CFA411C0A784978090276
:100DB000891801D001F0C7FA52494E4A515C09071F
:100DC00005D4407DC007C00D01D101F0BCFA4948EF
:100DD00041F055FB8024022811D342F0A3F90D31D4
:100DE0000DD0401EC2B2042038F01CFA002806D0F4
:100DF00020A939F032F9002801D102F0CAFC189874
:100E0000214614E414961898159F43F083F906467A
:100E1000451C04784078B178090208181DA932F001
:100E200003FB00230028199501D100F040FF334E49
:100E3000199942F075FAB04206D81DA80321022282
:100E40001D463DF00BFE2B46002B01D102F08FFA20
:100E5000187840F03BFA02F08AFA00211898B9E0BD
:100E60001C2000200025209522481A9C00591B991F
:100E700040188179C27912025118461843F012F8CD
:100E80001990317B707CFE28169101D100F038FF5B
:100E9000FF2801D000F0A2FF092300F032FFC04676
:100EA0001C2000202021189C43F0F2F94178807822
:100EB000000241181148814201D901F044FA199108
:100EC0000C481A9940581B99401842F031F90079A2
:100ED000401E217B17910D3442F026FD002801D1E0
:100EE00001F0DEF91C3001D101F0DEFA282001F01A
:100EF000DCFAC0461C200020B96D0300F7FF00009B
:100F0000F8FF000099050000ED4C1A9820581B9935
:100F1000401842F013F901D802F029FA8179C27918
:100F2000120251184118087B1A900D31FA4B39AD55
:100F300002262846324698472024189843F0C0F8E5
:100F4000014620AF38461B942246F34CA0473F7819
:100F50001DA829463246A0478B208000ED4A105C30
:100F600031210901555A022805D11DA80088854262
:100F700001D001F0DEFA39A800888124854201D031
:100F800001F0D1F9E54EE348805D002801D101F080
:100F9000D3FA401DC1B2189C43F0ACF91A99017004
:100FA00000254570801C1DA9098841F099FDD94B89
:100FB0009A5D0270DA495918401C954201D301F03C
:100FC000C9FA04C9127842556D1CD24A925DF4E701
:100FD0001898179915F0BEFA02F04CFA2021189CC7
:100FE00043F056F942F053F9CE4A914201D901F04B
:100FF000AAF90178890601D401F0A5F9457880782D
:101000000602C44B1A98185841F05DFA1B928B22C5
:1010100092009A5C002A01D101F07CFB8D2400270C
:101020001A9701F055FFC04933A80180B9491A98B1
:1010300008581B99401842F0A5FB0A2901D802F074
:1010400096F941F07FFAB44D39AC0A222046A84700
:101050001DA808221B922146A8472026189F384623
:1010600043F04EF9014620AD28461A963246AA4B67
:101070009847287817900C25384643F0BBFA074666
:10108000C5208000A3490E460818169021461B9AD9
:101090003FF08AFC002801D101F047F939A840F05F
:1010A00019FA0228189C01D001F048F939A83DF03E
:1010B00025FB01F03EF92025189C42F0A0FE411CC2
:1010C000169100780F900020052803D039A942F02E
:1010D00093FCF9E78F4841F0D2F9072801D201F0DB
:1010E00032F98A79CB791B029A188E18717C831F8A
:1010F0004A00934201D800F0DBFE002100F0D9FE47
:10110000844E1A9C30591B9A801842F02CFB0428FC
:1011100001D802F02CF985497F4F39A815460822DD
:10112000B8473059401941F00DFA1DAD0422284648
:10113000B8472027189C204642F0ECFF014620AE1D
:1011400030461A973A46744FB84730781B9033AE02
:10115000022230462946B8470C2143F0CBF8054619
:10116000312000016B49085A3688B04206D030461B
:1011700040F0BDF9022801D001F0FFF81B9C1DA82A
:101180008778022F01D201F0E1F8C5208000614983
:10119000091839A842F0BAFF8026274601F0F5F871
:1011A00063485C49085C002801D100F017FC1A98DC
:1011B00008581B99401842F0D6FA0B28189C01D801
:1011C00001F0C1F812990C3139AE0C2243F07CFACF
:1011D0007078B178090209185248814201D901F0AA
:1011E000B2F81B9139A8C01C5049082214903FF056
:1011F000DBFB002801D102F06CF92A20C0431690D5
:10120000494F0120000219903FF0D8F81A9020A809
:10121000203015901DA8851C0026F0B21A9988422E
:1012200001D302F056F920A92CF0DAFE002833D0C1
:1012300020A801898A0405D540891B9A904201D1D2
:1012400002F042F919980142179C1B9B26D108060F
:101250001DD5072001401DA801701599097841701E
:101260002099219A2A712970130EEB71130CAB711E
:10127000120A6A710A0EEA700A0CAA70090A6970E9
:1012800036F0BCFD1B99884201D102F01CF9002CFC
:10129000189C01D102F018F9761CBEE7169823308D
:1012A000444244410028D2D020AA1218128EBA42D9
:1012B00004D020AA1218528E9A42C8D0001DEFE71F
:1012C0001C20002013481A9940581B994018017996
:1012D000427912025118012901D802F048F88179A7
:1012E000C27912025118461842F08AFC0178169110
:1012F00044788578377B3FF06BFF717B199188428A
:1013000001D800F099FE3FF063FF1999401AC2B26C
:1013100000F093FE1C200020E1180400B808000033
:10132000A4080000F7FF0000FFFF0000AC830400EA
:101330001D0300002021189F3846179131F000FD51
:10134000FD491A9A89581B9A891841F07DFF012A94
:1013500001D801F0D3FE421C9378D2781202D21841
:10136000F64B9A4201D901F0C9FE03780C221A40CB
:1013700001D001F0C3FE149342F055F9139042F0EE
:101380001FF809180C7B0D3120AE0122304619924E
:1013900040F0A6FA35780521384616912FF06CF802
:1013A00004708421129041708B208000EF49085C0A
:1013B00001281B9A01D901F0E0FC0023129E7370F2
:1013C00097208400085DB070F5701594085D854223
:1013D00001D301F024FB002D1E4601D101F088FC51
:1013E0004721C900E14A515800263246072E01D94B
:1013F00001F07DFCAA4201D101F079FC2F461C4688
:101400000B78199D2B40D2182346761C491D3D466A
:10141000ECE7D6491A9808581B99401841F012FE7B
:1014200001D801F0A4FF41F037FD0D30209039AD17
:1014300020A9284641F0DFF8209804782021189F41
:1014400038461A9131F07CFC0178179141F02EFF5B
:101450001990052138462FF00FF807460670002630
:10146000067131200001C149085A2988884201D0FB
:1014700000F06EFE002C01D101F05CF9BD48BB4AC2
:10148000105CBD495118002801D101F014F804C9BD
:1014900013789C4200D03246401E1646F3E70128DE
:1014A00000D99BE2B548002218993DF009FE0028BA
:1014B00001D001F0E3FF01F0DDFFAC491A980858B4
:1014C0001B9940188179C2791202511846182021BF
:1014D000189C20461B9131F033FC054600781A9089
:1014E000307B19900D3620AF0222384642F05AFE6A
:1014F000872000019D49085A39880140398001D16F
:1015000000F021FF042142F0F5FE1999017000213D
:101510004170801C20A942F077FF6878A978090201
:101520000A181B981A9901404B09F54801F0BAF9BD
:101530008E4D1A9FE8591B9E801941F0F9FD20211C
:101540001898169131F0FCFB054600781590199417
:101550000D3420A8092243F0C9F88448C0598019E5
:1015600042F001F90A2801D201F001FF2F466C1C5C
:1015700041F07EFEE549884201D301F0F8FE42F0D9
:101580003EF83FF0CEFF8B218D007849495D02295E
:1015900003D1002801D001F0EAFE1B94C520800091
:1015A0007249081820A942F027FE0028179E05D08E
:1015B000D74920A842F020FE46424641B87BF97B3D
:1015C00009023A460F18507D1390D14920A80824EB
:1015D00022463FF0E9F91290384637F07BFD074686
:1015E000401E394681411A91002F01D101F036FB8E
:1015F000C74920A842F000FE00280DD0C54920A808
:1016000042F0FAFD002807D020A81DA941F098FC5F
:10161000002801D101F037FF78427841002F02D134
:10162000012171401791002F199D01D07B21CF43DB
:10163000189C1799002901D100F085FE01F01DFBCF
:101640004A481A9940581B99441841F01BFE01283A
:1016500001D801F08CFEA579E67920211898139124
:1016600031F06EFB41F013FE414A914201D901F085
:101670007EFE02780C21114001D001F078FE12921A
:101680003102491961184F7BA34B384AD25CD41BF5
:101690000025BA4200D22C460E7B032C00D3032433
:1016A000401C11901520149060431090411D189813
:1016B0002EF0E2FE06702B4645702C4A9649515C8E
:1016C0008170C7700471451DE01915909348161874
:1016D0001A46F8B21599814201D800F03CFD1692E5
:1016E00017931997F168C700C819C479C5208000FD
:1016F0001E490918082242F069FEB06803216143BF
:10170000405C2872B068401841788078A87269728D
:10171000F068C0198079E872032811D00128169A60
:101720001ED1B920C00011490858C019017940796B
:10173000687329730E2213E01C200020F7FF0000BD
:1017400028460C30B921CC0008490959C919097932
:1017500031F02CFE05480059C01940792875149ABB
:10176000AD18179B9B18199F7F1CB2E71C20002007
:10177000F7FF0000B8080000A40800006559020047
:101780002A20C64366481A9940581B9941F054FADA
:101790002021189C42F07CFD2B7B6F7B2A36002F8A
:1017A00002D00B2F00D822E3002C01D101F062FE01
:1017B000401C8178C278120251185A4A914201D9CC
:1017C00000F0C1FD017840780202204654182A2119
:1017D0001D4631F0B5FA2B4600212A2901D100F02F
:1017E00013FD42F0FDF8F8E7002801D101F0BFFD3C
:1017F00042F058FB41F04BFD4A4A914201D901F0B9
:1018000039FE00781990464C1A9820581B994118B7
:1018100041F0A0FC0D300979491EC9B200263246BC
:1018200029F0CEFA002801D100F0A0FE802700F0B8
:10183000A5FE2026189C204642F062FD41F027FDBF
:10184000324A914201D300F07EFD41788278120243
:101850005718334D1A9969581B9A8A1841F0F8FBAA
:101860000C7B314BEB5C1B0709D4002F01D0FEF73A
:10187000D1FE437DDB07DB0D01D1FEF7CBFE1997CF
:101880001B960C314F78402F01D901F070FD41F0CB
:1018900060FD921EBA4201D201F069FD891C0078F8
:1018A000169020AD284642F03DFD42F0D2FA047079
:1018B000002646701796002F01D101F019F82C78F8
:1018C0002820214640F0B4F82938092800D97CE0C6
:1018D00001A1085C400087440415464F78580878F9
:1018E000782B18983DF04CFD6FE0312000010C4A38
:1018F000115A0E48125A18983EF06EF865E0C0462C
:101900001580000018983FF03FF95EE0F8FF0000F6
:10191000B4830400AC830400BD050000BC050000D6
:101920001C200020F7FF0000990500006E08000051
:101930008B208000F94A105C411E88411499515C4B
:101940000840490700D5801C39A90880FC490E9A37
:10195000895CC90702D0001D39A90880322142F0F4
:1019600011FD39A906E02B2142F00CFD8D218900E3
:10197000F34A5118022226E02C2142F003FD2321D4
:101980000901EF4A511804221DE02E2142F0FAFC11
:101990001A90EB4E0E99715A0A0A04231340E94833
:1019A000325C5201164628461B9D2E4005469B1967
:1019B000402616409A19179EC905890F521839A951
:1019C0000A8002221A983FF08BFF2A2C03D1C320F1
:1019D0008000DB490E526D1C7F1E6CE78421FEF7F0
:1019E00025FE021D41F037FD4118087BD64BD44C33
:1019F000E0540D311078401EC4B21E2042F080FD2C
:101A0000002801D100F057FF4178891CA14201D381
:101A100000F051FF8178CD4DC94A51554A00121D41
:101A2000631E9A4201D300F046FF159799221201D6
:101A3000C34B9C18C61C00278F4201D300F035FF12
:101A40000422204642F0AEFB361D7F1CBC48415D9F
:101A5000241DF1E742F026FA0178890604D541F009
:101A600025FC01D100F0B8FEB948B549081842F08C
:101A7000F7FB0446B748844201D101F078FC2046C8
:101A80003EF022FF014620AD2C2242F09FFC28357B
:101A90006878C007C00D01D101F069FC20AD28466F
:101AA000183039A942F034FB2A980821C943F83983
:101AB00001402985284621462CF0F0FC01F057FC16
:101AC00041F096F98218537B2A20C043922B00D113
:101AD0006AE32A3069E341F08BF9851800243694D3
:101AE0003594687B002801D001F041FC881E0E353A
:101AF00041F0DAFF002801D001F039FC002D01D1BE
:101B000001F035FC2220294642F096FC002801D144
:101B100001F02DFC0746811C1DA81A9008221B927B
:101B20008D4B984739460A3137A81B9A8A4B9847FC
:101B30003946123136A804221992874B9847394604
:101B4000163135A8199A844B98471A3733A8394665
:101B50001B9A814B984702211A981A9134F00CFC79
:101B60001B90002801D101F002FC3B943A94399477
:101B700039AF169708372220294642F05DFC1790AE
:101B80001DA908221992169E3046734B984735A915
:101B9000042538462A46704B98471A9830733746C2
:101BA00031AE36A930462A466B4DA8472B461B99C5
:101BB000083120AD1022284698473198209941409D
:101BC00029707078219941402971B078229941405B
:101BD0002972F07823994140297331AE009616237B
:101BE00028463946179A39F021FC33A93046199A0C
:101BF0003EF0DAFE002801D001F0B9FB1DA842F04A
:101C00002FFB36992B2252014D4EB35800011B1861
:101C10000D0EDD710D0C9D710D0A5D711971B158BC
:101C20000818C17A09064D4A521C0A43110EC172A6
:101C30004B4834544B48214642F03CFD01F097FBA1
:101C40001698012802D8189837F0F8FD2024189D1E
:101C5000284642F035FA014620A842F055FC1DA85E
:101C60000026068036481A99405840F02CFC1992FC
:101C70004F7B002F0ED10C310079801E8D1CC4B219
:101C80002846214631F05CF98F27002801D100F069
:101C900037FE189D3E2142F0DFFA044619993E2E88
:101CA00001D101F06BFE0020A055761CF7E71396DA
:101CB0003C40601E21468141A878EA781202101843
:101CC000294A16469042179A00D80A46002A00D19F
:101CD000AAE2B04201D9FFF7ABF8B8E23059C01917
:101CE000017936A8009020AA31AB28463BF0AEFA25
:101CF000002800D1EAE300201B90199F00F0F2FEBB
:101D00000723179D1B9A0E490959891841F092FA29
:101D100000208B4204D9074603E0C0461C20002067
:101D2000012734460C340D363D40012D1ED1A01D37
:101D30001A9020A8042242F035FA209817E0C046F5
:101D40001C200020D2020000880900008D0900003C
:101D500004050000FFFF0000E1180400FFFFFF077B
:101D6000AE0500000D240400F7FF00001A962A219A
:101D7000CE431B9038F090FC2A36002D27D0627994
:101D8000FE2A179900D10146012918991B9822D1E2
:101D90001F23DF060546BD431DD031210B01FB4942
:101DA000CB18197C59188C7BC10E8C4201D001F0E4
:101DB00085F9FF2A01D101F06DF9FE2A01D001F069
:101DC000AAF91A99097830F013F801F076F9384633
:101DD000189F01F075F90F4601F071F906281B9A5A
:101DE00000D20125062800D25CE306238BE7199375
:101DF0001690BA00931CE5491A9C09591B9C0919B5
:101E00000C79497909020C19A34201D901F0AFFA02
:101E100029460E31885CFF2800D1131DFE2801D110
:101E200003231343A34201D901F0A1FA8A18FE2823
:101E3000189C01D000F0B1FF012F199B169800D01B
:101E4000B2E4577820A842F043FC209E304638F098
:101E500023FC002800D176E2700100D173E2304605
:101E600039462FF0C5FF064601F0F0FA19902A20F6
:101E7000C0431690C5481A9940581B99401841F024
:101E8000AFF80D370079401EC6B23846314631F002
:101E900057F804460220394642F0CEFA002800D115
:101EA000EBE380784538414241410020169BE7E34F
:101EB000012137461237BB5C801AC01F5A0090427E
:101EC000179800D30846012800D13CE20B950C3648
:101ED00030780A90711C20ADA81C022442F012FB3D
:101EE000F11C281D42F00EFB75796C00395D169AC5
:101EF000107809905078089090780E90D0780D90D6
:101F00001A9148194006010E189830F019FF002D5B
:101F10001995149004D02A4639463DF0E9FE07464B
:101F20001A9A002A04D0791C149800193DF0E0FE9A
:101F30003120010195480691405A20A949888842DC
:101F40000C9104D09248814201D800F05CFD914888
:101F50008E490A5C20A885881498001913900023E4
:101F60001946079311921095914201D101F0F6F9AB
:101F700012918800854908188749415848781B9173
:101F8000897809020818A84202D08448854250D1B5
:101F90001B988079179000210D46179881421ED218
:101FA000E8071CD1169148001B990E18083600242A
:101FB000149F2546199884420ED2E8070CD140F0B0
:101FC0004FF806D11B980278D9B239A83BF0C0FE71
:101FD0000346641CBF1CEDE71699491CDDE71B98FE
:101FE000C079159000211598814220D2E8071ED1B2
:101FF00017981691081840001B990E1808360024EF
:10200000139F25461A9884420ED2E8070CD140F05F
:1020100027F806D11B980278D9B239A83BF098FE70
:102020000346641CBF1CEDE71699491CDBE7119AB7
:10203000109D1299491C97E700222802032A00D319
:1020400003220019149016205043411D189815467C
:102050002EF012FA064615970770002444703FF0E0
:10206000B7F82A46B0701999F17035711396771D3B
:1020700023462646132E5FD810065DD0FF2085002C
:1020800042484059005DC00753D0D8B288424FD370
:102090001A931B92892080003C49091841F0B2FE36
:1020A000384608303949495909198A7920A934F044
:1020B0002BFC364B20983874000A7874B87CFC21CD
:1020C0000140B9745959095D4907890F8C220240B2
:1020D0008818B8745959091949784907490E0818D8
:1020E000B8745959095D0C9A1040490708D4042165
:1020F0000843B87458590019417B0120084008E092
:10210000B87459590919497BC907490F0143B97472
:1021100000201B9AF8745859005D4006000F38756E
:1021200058590019C0787875521E163719991A9B9C
:102130005B1C761C11349DE715981399087017984D
:10214000169901404B0916481899149A01F090F914
:102150008120787035E3D8B2109988420BD2401AAA
:102160000A491A9A89581B9A891841F06DF8101873
:102170000871000A4871119941F064FA1398129994
:1021800001404B09074800F082FEC0461C20002099
:10219000F7FF0000B8080000A4080000FFFF0000DF
:1021A00031800000338000002730002B00D109E18E
:1021B0000024011D00D13FE2002800D01FE1002CC7
:1021C00001D100F007FE204628302826A15D407886
:1021D00000024018C10501D500F064FE2146183107
:1021E00039AD102242F0F2F8A05D8006400F0022C7
:1021F000032100AB27C304921DA820A901231EF0D0
:10220000BFF8189C01F037FA711E8E41F101417040
:102210000370C484282101224254189800F078FFEA
:102220008D212046FEF703FA1DA83FF094F90028FF
:1022300002D0C07A00280AD01DA842F063FA002814
:1022400005D0274600228D201B9000F0AAFF159490
:10225000F8481A9940581B99401840F069FF0D340E
:102260000079401EC7B22046394630F069FE002290
:1022700001461C3100D1AEE3002800D0ADE337A801
:1022800000211A91017039AA20AB2046394639F055
:1022900059FA002801D100F054FFD72400F07EFF46
:1022A000D62700201690002C01D100F05EFE2120E0
:1022B000214642F0C1F8002801D100F056FE064642
:1022C000811C1DAF0824384642F01CF90A3637A895
:1022D000314642F017F90221384634F04DF8002813
:1022E00001D100F041FE0646044628342A4628253E
:1022F000405D6178090208180027149210420FD13E
:102300001DA841F0ADFF0146705D62781202101801
:10231000149A10437055000A607030462CF0BEF8D5
:10232000189C00F024FE054606E131200001305AD9
:10233000189C33A90880DD49884271D113980007A1
:10234000800F00D110E1204601F012F8002F06D0D6
:102350008B208000D449085C022800D062E339A9B0
:1023600042F07AF9002801D100F068FC002008282A
:1023700003D039A941F0C8FAF9E713980007800F94
:1023800001D000F0F4FF81261B9F199828706E7011
:10239000A81C39A941F0BAFE0A3533A9022242F03D
:1023A00015F820A841788078000242181A98074052
:1023B0007B09BF4800F06BFDE40701D0FEF72DF864
:1023C00001F05CF80C32941C881E41F0ADFA002834
:1023D00015D127208501B44843594C331DAA204606
:1023E000314639F0AFF9002809D1B248AE49081892
:1023F0001DA941F001FF002801D101F047F9272074
:102400008401A948015900221898E42A02D041F019
:102410003BFBFAE7A4490A59FF21517000F0A8FFDD
:1024200039A8007A022800D2EDE113982840082844
:1024300089D080261FE21DA8008839F01DFD0020EC
:10244000149041F04DFF00261B98474247412478E5
:1024500041F0FFFC1599017046701A98002800D1D0
:102460007F1C002D00D17F1C002F00D1DEE3022154
:10247000189E41F0F1FF00210170790041700121A7
:1024800041F0EAFF002800D1D0E307701B98002834
:1024900000D197E21A98002800D1BBE3002D00D0AC
:1024A000C4E3BEE307232EE42920C743189C179DED
:1024B000002600F05DFD002E00D03EE1002C03D090
:1024C000FF2C01D000F035FF822042E631A80578CC
:1024D00036A8067837A8009020A81DAB29463246BA
:1024E00027F096FD0028199F00D1F1E200201B90F3
:1024F000F8E241F0AEFC00214170159901706A4983
:10250000495D0229149901D37B21C9434170664A70
:10251000505D012802D868481899115420786178D4
:1025200009020A181998169901404B09634800F0EE
:10253000AEFC39A8058880240521189E41F08EFE46
:102540001A99017044703446801C294640F0C8FA3C
:102550000021017020A841788078000242181B9861
:1025600007407B0956489DE1812684E127208001B0
:102570002058817A8627022900D888E21A9B4A4887
:10258000C0581B99401840F03FFD3546067B02219C
:10259000189C20461B912DF06FFF06702E46477049
:1025A000002D08D0272080013F490858817AC27A3F
:1025B00020463FF049FA1D2141F06AFE0546002001
:1025C0001D2802D041F080F9FAE7002068702870D9
:1025D0001B98E8733B4843308021E972A872287C3D
:1025E000042101432974199880060ED436482E49D7
:1025F000095C20A83CF09AF8297C7F20C04308435E
:1026000020996975090AA9750AE0272080012649E1
:1026100008588178FE220A408270287C1699084367
:102620002874002E189902D028481F4A11542848AF
:1026300000F0D9FD1C2000200421189C41F028FE48
:102640000021018027218901174B595889780122DF
:102650000A40827003D01C49595C3CF067F81D4861
:10266000A5214A0041F080FF00F004FF18980028DF
:1026700001D000F07CFE00F0FDFE169B18462A30CB
:102680000443199A01D1204601E00020C043002CE8
:1026900000D117911799C90700D118462827002C97
:1026A0001AD1264619E0C0461C200020FFFF00007A
:1026B0000180000004050000A5070000368000002E
:1026C000058000000280FFFF26030000AA0700002B
:1026D0000538010011BE0200FE43002C01D1034663
:1026E00000E02833189C18462B3000D17BE1D81C21
:1026F00000D176E1002B01D0FEF709FB40F052FF3C
:1027000039A930F091FE8B24002801D100F06EFD34
:10271000199A69E119960C310079401E4E1C41F05E
:10272000E7F980240021002800D15DE31A910F46CB
:10273000199ECDE3DF48E0490E18B079F179081809
:102740004000083000257D7016973871C1B241F005
:1027500057FD0746082241F025FDB079B871F079A0
:10276000FC1D1B97F87120A9087037460837B0790F
:10277000854207D20222204641F096FF6D1CBF1C05
:10278000A41CF4E70446169FE1B2C0B2F279101817
:1027900088420DD9E8B240001B9A10180830490051
:1027A0007118083141F030FE6D1C641CB079EBE704
:1027B0001B99887940000818C01D20A901223FF00C
:1027C0008FF81A9C199D179EB81C39A941F01CFE60
:1027D00026407309B94887E0B7483FF0AFFC40F0A6
:1027E00071FA002801D000F0C2FD2D20214641F0F1
:1027F00081FE002801D100F0BAFD811C39A841F00A
:1028000087FCFFF731F90026002834D0012141F080
:102810006FFF05463DF07CF828708B208000A649AC
:10282000085C012827D831200001085A33A9088004
:102830001DA8082216993FF053F82846287800284A
:1028400019D039A9497A441A00261B91884200D22E
:102850003446212C00D321246000411C41F0D0FCDF
:102860001B990170401C379037AA08462146189CD6
:1028700032F0C0FC2870199838707E70B81C1DA901
:1028800041F044FC0A3733A9022241F0B3FC20A8EE
:1028900041788078000242181A98179D05406B090C
:1028A0000120C003214600F0E3FD0029159F02D05E
:1028B0003078FEF7F7F8199A5078917809020D18D8
:1028C000147841F0C6FAF921C9007B4A525C521CC7
:1028D000D3B2FF2B00D10022774B5A5402708021D3
:1028E00041703C406309764818992A4600F0C0FDC3
:1028F0001B98169901404B097248189900F0B7FDD2
:102900001DAA284621463DF03FF81F20294641F0E8
:10291000F7FD002801D1FFF7BCF94178032901D266
:10292000FFF7B7F9817839AA1170C1785170017930
:1029300091704079D0703821189835F047FC179085
:102940005D481A9940581B99401840F043FB4631A6
:10295000202041F0D5FD002801D1FFF79AF916900B
:102960004078032801D2FFF794F91798801C169D30
:10297000A91C41F049FD28791799087168794871B7
:102980006978C91E032242439142189D01D0FFF786
:1029900081F916998E1D179D09350027092F01D938
:1029A00000F0C8FF874201D300F0C4FFE81E0222F6
:1029B00041F0F8FBB07828707F1C179840796D1DA6
:1029C000F61CEBE732211898169A3DF019F800280A
:1029D00000D02BE15EE5D62000E0D7201B90159FAC
:1029E000DFE3344600E080242878697809020D1876
:1029F000D67D0421189F41F093FD05808670C47038
:102A000031483946EFE38B2080002B49085C0023D6
:102A1000022800D03DE28020079000F09FFC129831
:102A20000371B2E10026012F01D0FEF7B6FB0128A9
:102A3000274600D9A9E4C5208000091839A841F02B
:102A400065FB012141F0DCFB17903CF061FF179919
:102A50000870002800D198E41DA9CF78C11B00267A
:102A6000B84200D23146212900D3212116914800D5
:102A7000411C41F0C5FB0770401C379037AA38460F
:102A8000169932F0B7FB17990870FEF786FB0F4ACC
:102A9000A25CCA40D1071A9B00D170E5B121C900E0
:102AA000054A515A0027490701D500F049FC179EF5
:102AB00065E5C046770800001C2000200480000067
:102AC0003C80000044800000C9060300B8090000F3
:102AD00020A833A940F034FA00211B91002801D12D
:102AE00000F013FC40F058FC20A930F09DFC0028B9
:102AF00075D015980678042118982DF0BDFC044671
:102B00001698207031200201EE48805A39A90988B0
:102B1000884253D100256570387A797A09020818FD
:102B200003284FD0022800D0A5E115920D2141F0D5
:102B300067FB0746F848F7490D18022216923846F7
:102B400029461A95F54B9847A878B870F81CF449AF
:102B5000F04A5118169D2A46F04B98471A9840792A
:102B60007871B81DEF49EB4A51182A46EB4B98474C
:102B70003846083087210901E64A51182A46E74BB2
:102B8000984738460A30E849E24A51182A46E34B4A
:102B900098471A98007B3873AD208000DD49085AA9
:102BA0001499084200D064E11B98002800D142E14A
:102BB000817AC27A18983EF047F85AE18120607015
:102BC000002558E10225189829462EF0F1FED74934
:102BD000D04A511841F08EFAD548451C4BE120A847
:102BE00041F090FD002884D0024628322823C15CA1
:102BF00055782D026D1814990D4200D079E7CD4912
:102C0000C44E715C149C2543C5542B0A53702BF0A1
:102C100045FC6EE72C211898139A3CF0F1FE2843EE
:102C200004D12B211898149A3CF0EAFE199804401C
:102C30006309C1481899179A00F01AFC012F00D0B7
:102C40007CE2012141F0DCFA00260670FEF7A5FACD
:102C50008020149000201790FDF7BFFEAD48405D26
:102C6000002800D109E3AB481499405C204000D013
:102C700003E300271A9717AD31CD0C35002E18D07D
:102C8000AE48A449085C800701D4FFF75CFB2E46E0
:102C90001A9800280BD120A8007AC009A8499D4D98
:102CA0006A5CFE23134018186854A6482C54354615
:102CB0001BE30346A4489749095C0020042800D17F
:102CC000F0E2012282400A4200D1EDE2401CF5E729
:102CD0009E499048455C002D00D18FE39C49405CA3
:102CE000002801D100F0E6FC8521FEF746F81B9A8A
:102CF000169F7743072E3AD8834238D20E2B36D808
:102D000019964721CC00834E3159C95DC9072AD095
:102D10005B1C1693052141F073FA05463059C01922
:102D2000C1780079687029703059C05D4007800F04
:102D3000A8703159C95D10220A401018A870315985
:102D4000C95D179A11400818A8703059C0198178C8
:102D500020A83BF0EBFC169B1B9A2098E870000A19
:102D600028711598305C199E761C7F1DC2E7129958
:102D700048780B710028674907D01A9808588018BE
:102D800040F000FDC91E40F0AFFD179814990140B6
:102D90004B0970481899139A6AE3FF2800D13AE367
:102DA000052800D952E3012F00D04FE3054657789C
:102DB00020A841F08DFC20991798009020462A46C3
:102DC0003B462AF0A3FE0028199B169801D0FEF777
:102DD000EBFC4FE3272080014E490858C07AFF28BA
:102DE00000D1A9E20320A8E21694002E6CD0232083
:102DF00031463A4636F016FA002865D0811C20ACE0
:102E00000826204641F088F95349204641F016FC37
:102E1000002859D0514920A841F0EEF9002853D09C
:102E200020A841F06FFC1A90002801D100F012FE9A
:102E30000024179F7CE413981C3007D1B320C000F6
:102E40003449085801214905014012D18B208000E6
:102E50003049085C002804D10021FF2218983EF078
:102E6000F3FD2C481599415A2E4A825A18983CF085
:102E7000B3FD199F3A4DA01C39A941F0C5FA387825
:102E8000797809020A18179806407309A8B21899A8
:102E9000EEE21C460C983EF044FB012800D159E2BA
:102EA0007E2058E28006400F27218901194A515897
:102EB0008A7A002A00D104E3C97AFF2900D1CDE340
:102EC0000321CCE31C20002000271A97199E169C92
:102ED00076190221189D41F0BFF91B9901704470C9
:102EE000002F12D028201A99085C8106490F1B91E7
:102EF00007270740242128463CF05AFD044620A914
:102F000041F004F91B982072677216482946324630
:102F1000179BADE21C20002068080000E1180400A7
:102F20006B0800006E0800007208000075080000C1
:102F30000280FFFF310500004380000059080000B7
:102F40002D040000A90700002C040000BC080000AC
:102F5000E208000032800000AC830400B483040067
:102F600002800000428000008627189C169E179D54
:102F7000022141F0BFF905704770380600D085E0A6
:102F800016961DA8022631463DF0D4F805460020CD
:102F90000D2803D039A940F02FFDF9E7C5208000A6
:102FA000FE4A111817461791FD4B39AC08221592AD
:102FB000204698472B204301F85812932D014019C1
:102FC000817BC27B1202511813913B912673491CDD
:102FD0008173090AC173F858411933AE042214925F
:102FE0003046EF4FB8471699083120AC10222046E2
:102FF000B847339820994140217070782199414019
:103000002171B078229941402172F0782399414092
:1030100021731298E14908584119405D3FF002F8C8
:10302000339013983190222141F0ACF9044617995E
:10303000159E3246B8472046083037A93246B84771
:103040002046103033A9149E3246B847204614302B
:1030500031A93246B847183400201B9A082802D0FC
:1030600040F01EFCFAE7CD4D1A9828588018817957
:10307000C2791202511842180E32009420A839A9C0
:10308000162338F0D3F9C748189C2C54C64800239F
:103090002146ECE139AE41F0E9FA3998384040195F
:1030A00039901A98411C1DAF022241F0A3F8601C10
:1030B0003A88C0B2314630F02BFB0646189F17986D
:1030C000002818D01998401C8178C2781202511833
:1030D0000822D243521C92B291420CD2017840781D
:1030E000000244182A2141F01BFA00212A2907D0A6
:1030F00040F076FCFAE7002F00D1BBE1384637E11B
:10310000711E8E41F101417016990170C4843846D8
:1031100035F098FAAEE1052A00D9D0E11A98037883
:1031200000240094189F38461B992AF0EFFC0028D1
:103130001798C5D1204626462746C1E70026FEF748
:103140002CF839A837A93FF0FBFE9224002825D19E
:1031500037A8077838463BF0C1FE002804D138462E
:1031600036F03CFE002819D004460C3020A920225D
:103170003EF0B6FBDC2000272754217839A830F038
:1031800015F91A946078032801D0002805D11A98FF
:10319000807A022801D800F02DFC0D9C1B94159F0D
:1031A0001A9A1446139E707D00028005199901D564
:1031B00031461A3140F04BFAF67D0E2118982FF067
:1031C000BFFD058086701B99C17079094171002C83
:1031D00003D0A178169A11400171801D1DA940F0FD
:1031E00095FF7248189934F01DF943E139A841F070
:1031F00089FA002801D1FFF78BFA3FF07BFF199A7B
:1032000001D1FFF7F1FB20AC2C2241F04FFA204610
:10321000183010213EF044F920462830E15D40F09E
:103220006BFC634AF83A0A40E255110A417039A82A
:1032300041F016F8014620462BF030F940F0B2F983
:103240001DA93FF08BFE002814D15A481899534A03
:1032500011541DA804785B200001105A40F024FB93
:10326000554808180F21090338F0DCFF024653487F
:1032700041F07AF93446FFF74BFA1398C007C10DB5
:1032800020A8002900D0F4E41299002900D1F0E42C
:103290000057002800D5ECE40120704001D1FEF772
:1032A000A7F9E6E48A2720E0002B1ED01143444A08
:1032B0003A4B9A181174297880001318D9701B9D05
:1032C000297826466C782402611811529E700921D3
:1032D00040F00EFF044620AD082241F085F8287A20
:1032E000C0092072374831467DE7022141F002F8DB
:1032F0002978017047701B9940F0A4F91698159928
:1033000001404B093048FFF7CDFA33A8007836F07A
:1033100065FD002801D1FFF7E5FB817804220A430F
:103320008270C57006711D9981723799C172FFF75D
:10333000DEF88320FEF70DFF0220189C00218FE1AC
:10334000C07AFF28179E01D0FFF719F900260F9FBA
:10335000FFF715F97620C04307902346002B0AD1CA
:103360000D9800020E9940181149884203D9189807
:1033700029F0D6F87EE008980002099944181E4604
:10338000591D18982DF078F8054609480C99814286
:103390001CD902480699405A19E0C0461C2000205A
:1033A000E1180400AC07000047800000859402008B
:1033B000F7FF0000AD070000FF3B0000E9D003006D
:1033C0001C04000095B901003480000008461DA9C6
:1033D0000880A81C41F018F80A98287032462E710F
:1033E000681D39A93EF07CFA079868700B980F9910
:1033F00001404B09FA481899224639E0189C445478
:103400000146F848085C42224243F74841F0ACF8D4
:1034100040F008FF2EE016460C3539A841F058F967
:1034200000246878844205D220A839A941F050F9D7
:10343000641CF6E7B11C1DAE022241F045F9687824
:10344000328820A930F064F90646189C199B16981A
:10345000FEF7AAF900272D780221189E40F0FEFE03
:103460001B990170477025406B09ED483146199A48
:1034700034F0F8F81CA80378002B02D1189829F032
:103480004FF83DB0F0BD1DA80078002139AA27F003
:1034900059F8002801D0FEF7BFF8E248405D012846
:1034A00001D9FEF7B9F8399840784007400D01215D
:1034B0000902884201D0FEF7AFF8FFF7DAFB0026D9
:1034C000FCE50021CBE0189CD74800221B993BF07B
:1034D000F7FD8B208500D348405D002701283AD8AE
:1034E0000028149E0ED031200001CE49085A1B99A5
:1034F000884207D11B98314623F078FF293001D14B
:10350000FEF721FF20A91B982FF08EFF00286DD019
:10351000C448405D01281FD8202140F0B9FE817BBE
:10352000C27B120251181B9A891A4F424F41BD4962
:10353000495D012910D8017C1A913346467CBB496C
:1035400040F08DFC002806D037A914983FF0F8FC15
:10355000002800D124E2149E002437AB30461B998A
:10356000224617F029F900282BD1002F29D0002757
:1035700020971DA91B983FF0F1FC002800D0B8E26D
:103580001DA8007820AA179926F0DCFF002800D09B
:10359000AFE21997209A1178507840074B079E0F99
:1035A0001A964906002B03D4527B0123134019932A
:1035B000420F080F16901A98032800D022E1179C9A
:1035C00025E1002F2046214622461A9400D190E2A0
:1035D0001691199039A8C77A9248405D012813D8EE
:1035E000032A11D1B8071BD502201AE020A808220F
:1035F00040F064FE00288BD01B98314623F0F6FE85
:10360000293085D1FEF79FFE04201792104305282C
:1036100008D1119840018349085C401C169001E0D4
:10362000032017901A98022806D100201990002C28
:103630001B9800D03EE142E1002C0DD004201799E8
:103640000843052808D11A98012800D031E17848AC
:10365000744A115C491C11541B9830E10221189CDA
:10366000002200AB07C30392179804901DA820A95D
:1036700001231CF085FE272080016A4A1058022190
:1036800041706C4814546C482146ACE5654841597A
:103690008878C00700D0A9E01DA840F005FF674961
:1036A000884201D1FEF7ABFE3DF00EF904465D48BD
:1036B00041599CE05948FE210022199222F084FFD2
:1036C000681E1A99574A5158C0B2109A4243881836
:1036D0003FF080FC087E1B91497E09020818217B7F
:1036E000627B40F00DF904D0544A904201D09142DF
:1036F0002BD11B9D0C352A460F32A87B4100501858
:1037000015901A92A37B58001790301816901598B0
:10371000401C1590525C00930020159933462FF001
:10372000CFF81595AA7B1698431C1798305C00902B
:1037300001201A992FF0C4F847204001394A105C43
:103740003F49515C014300D084E08624A2E0354A21
:1037500051183C4A895CC840C00701D1FCF744FFBE
:10376000E07A612801D2FCF73FFF37482D49095C18
:10377000CA0701D0FCF738FF344A2A4B9A5C52073B
:1037800001D5FCF731FF01221143264A115430487C
:1037900028E520A80678002E01D1FDF730FB20A8EF
:1037A000451C2A20C0432A301B903746002F00D1E9
:1037B00036E1C52080001B49081840F00FFB0028A7
:1037C00001D1FDF71CFB0822284618493DF0ECF812
:1037D000002801D000201B907F1E0835E6E7C04678
:1037E00006800000B9080000750304000024487832
:1037F000012801D0FEF703FE20AA179816F032FC2C
:10380000FEF7D7FC042A00D007E10024042239A8DF
:10381000C77AB80700D48AE0012089E07503040064
:103820002B8000001C200020DDC00300AC830400BE
:1038300017040000AB0700001D940300FFFF000009
:10384000060900001F03000058080000A40700003C
:10385000ADD003000D371B990D31FE48F74E3018DF
:10386000022540F047FC1598C07A23218901705445
:10387000F9483018394640F03DFCF8483018E17AF4
:10388000817718998176F6483FF0ACFC002800D18A
:10389000E5E08A241898214637F00CFFE74DEB4EFF
:1038A000A85D214637F006FF1999A955E848295423
:1038B000E0E51B98EC4BE14AD15C491CD154002156
:1038C00020911DA93FF04AFB002800D010E11DA85F
:1038D0000078002420AA40F093FD002800D007E1E2
:1038E0003807C10F2098027843781E02B2188678F4
:1038F000360492195B075B0F179E9E4200D0D7E0FB
:1039000053079B0F1A9E9E4200D0D1E05606360FF9
:10391000169FFFB2B74200D0CAE0022B00D0BFE032
:10392000437B01261E408E4200D1BEE0C0E0022053
:103930001A9051E6C14D1A9EA8591B9FC0193FF01D
:1039400021FF091B891E3FF0CFFF062140F058FCE4
:10395000A859C0198179C2791202511845182C460C
:103960000C342846443039A940F0B2FE1D98482155
:1039700068544835000A68700027199967702170EB
:103980002024189D284640F09BFB20A940F0BAFD5A
:1039900028462DF073FE002800D16BE52846E7E4A9
:1039A00037A8017820AC204619913AF0BFFE248850
:1039B00020463DF0B6FDA2498C4200D1CBE50A4637
:1039C00004210843052800D0C5E51B9884420BD18B
:1039D00030021A994018904200D0BCE51B983DF087
:1039E00086FD022800D0B6E59E480022199932F0E3
:1039F0008FFCB0E539A840F057FD9149884202D0CC
:103A00003CF062FF07461A98807AC01E1499C94399
:103A100088422FD81A9BFDF70BFA19981699D7E50B
:103A20001B98002801D0FDF7EAF920A8441C854D19
:103A3000002E2DD00822204629463CF0B5FF002854
:103A400005D0204635F070FB204637F0A7FC761EE7
:103A50000834EDE7862400271A97FEF769FE002454
:103A60001898214637F026FE74487849405C214674
:103A7000FDF784F91A988078C0070CD103201B90B9
:103A80000225002F67D02820385C8006400F63E0B5
:103A90000024FDF7B4F90320129000251B955DE08A
:103AA000002905D0437B01241C40199B9C421FD058
:103AB000179B1B026D4C14401B191A9F7C001C198C
:103AC000169E3607760EA419120C82701A0A4270DE
:103AD0000470022F04D1427BFE231340591804E0E6
:103AE000417BFE220A401999511841733AF0F6FEC3
:103AF000149E5248405D01280ED830463DF02BFD03
:103B0000002809D04D49495D012903D04178C91EDB
:103B1000012901D840F02AFC554848490958002994
:103B2000189C06D039A88847002C01D0FEF70BFC62
:103B3000A0E4022100220C2340F0B0FB04461B98B5
:103B40002080A01C082240F02DFB39A8C07AA0726A
:103B50004848FFF747FB0020149012901A98C07A4B
:103B60008D24411E022914D300282CD0FF2801D017
:103B7000FFF714FB002F06D028377878C007C00D58
:103B800001D1FFF70BFB1A98CC302F4940F0C0FA57
:103B900025E039A837A920AA2DF01CFA401C01D134
:103BA000FFF7FCFA1A99CC3139A824F047FE002817
:103BB0001B9D1299149112D0C01C00D02AE700203E
:103BC0001B90FFF7ECFA1A99CC3139A838F010F9AC
:103BD00000281B9D1298149001D0FFF7DFFA1A9A63
:103BE0001646CC360027304639462DF083FA002899
:103BF0000D9C01D0FFF7D2FA032D0AD11A98C07A92
:103C0000002806D10020179003E020A80021C1550C
:103C10007F1C102FF9D10022149800900195029278
:103C200003961798049039A820A91446169F3B467E
:103C30001CF0A6FB1A984770FFF7B0FA1C20002072
:103C4000FFFF0000AC830400547B0400BC080000AC
:103C5000E2080000BE080000E4080000C8080000F8
:103C60008D7C0300B55303001604000081F8FF00AB
:103C70000C09000099E10300F0B5FFB0FFB081B07E
:103C8000B4A82B90B4ADB4AB9DAEB4AC38A8DA4FA9
:103C9000DA497A5CDA49795C520702D40A0700D51E
:103CA000A7E0490701D401F0E6FE2B9915312B91CD
:103CB0000921490169182491463519461531299180
:103CC000591D28910E33269331464E310E913146BF
:103CD0004D310D913C3621464E31229121464D31D8
:103CE00018913C34199403212091C9014018359052
:103CF00000202C2805D039186F2252013FF094FE85
:103D0000F7E704954720C54363208000379033953B
:103D100047356F204001219036953D50002037995E
:103D2000814203D038A93FF067FEF8E70F96359837
:103D300036990160B3483F180F2032900026349620
:103D40003146022E36D0F4B20025B4AA0C2340F03E
:103D500035F900280DD03EF0AFFA369D7888012164
:103D60008843788020463AF0A1FD2946761C3F1D05
:103D7000E7E7B4A99DAA204635F018FF014648316F
:103D800001D0002811D19DA800880E280AD8798872
:103D900001220A437A80388032998842E5D23496EB
:103DA0003290E2E70F203880D5E70F203880339D2E
:103DB0002535D3E7329E904F0F2E37D0E6483C187A
:103DC0000025022D2FD020880F280FD0349AAA4228
:103DD0000CD0B0420AD00F20208060880121884397
:103DE0006080E8B23AF062FD339947316D1C241DC2
:103DF000E7E76F204001012139500024E0B201289B
:103E000003D824F085FF641CF8E7E44818213950F2
:103E1000DF20000100213954784AB85C06210143B3
:103E2000B95401F023FE0E2E00D033992A91CA48CE
:103E30003D1800263696022E31D028880F2802D150
:103E4000761C2D1DF7E7F4B238A920461AF024FAA3
:103E50000146383113D0411C0ED0002815D1359BB6
:103E600018681B21C90179180866187ADF22120127
:103E7000B8545868C866E3E73EF01EFAE0E7012050
:103E8000B040369901433691DAE7688801218843CA
:103E900068800F20288020463AF008FDD0E70020F7
:103EA0001024359E202800D198E00C22424338A9E6
:103EB00089184968BA4B194204D038AB9A1812894C
:103EC000002A02D1401C0C34ECE7451C880F38A9AD
:103ED0002A461F2A0AD80B59B14E334202D09B0FF3
:103EE000984205D1521C0C31359EF2E7014603E0A1
:103EF0000228359E2DD10221369BDCB22246C240DB
:103F0000D00714D0C8B2022810D232681B23DB01BC
:103F1000FB181A66DF221401395580001818642135
:103F2000405A0E2845D116F0B7FF44E0DCB2DF203E
:103F300000013A5C012108469043C440E2074DD09D
:103F40008200BA18974BD45A8C43D4523AF0AEFC44
:103F500044E001461F2D1BD838A80059904A104252
:103F600012D0860FC8B2B0420ED0810079187A4ABA
:103F70008A1853880127BB431F4F53800F22764B6B
:103F8000CA523AF093FC31466D1C0C34359EE1E781
:103F9000369BDCB2C8B22246C240D207B2D1002161
:103FA000379A8A4201D101F06AFD38AA3FF040FDFC
:103FB000F6E71DF075FD00203799814203D038A93E
:103FC0003FF01AFDF8E7339847303060385D38A984
:103FD0001AF062F9002801D03EF06EF90749785CCA
:103FE000022223921043785400206F4C08280BD0F3
:103FF0003FF056FCFAE7C0461C200020F10D0000FF
:10400000F5040000E40D0000B4A8401C2F90B4A8F3
:1040100009301F909DA85B300C90B4A80146083170
:10402000169101460C311591014614311491014647
:10403000243102462C32139202463D3212924F3006
:1040400017909DA8024608320A9202460C32099245
:1040500002461432089202462432079202462C325B
:10406000069202463D3205924F300B90B4A8801C58
:10407000039000224D4838181D904D48381827905D
:104080004C4838181C904C4838181B904B4838182E
:1040900025904B4838181E904A48381811904A48C5
:1040A000381810901A91202A01D101F0B9FC0C2087
:1040B0003692504338A90F1879680B46384A134096
:1040C000379301D101F0A6FC38AA12181289349254
:1040D000002A01D101F09EFC8A0F359292003B4BE1
:1040E0009A181D4BD65A0E2E01D901F093FC0122CD
:1040F0003292B2404F2331931B021A4201D101F098
:1041000089FC38AA1018408930903048304A8150D4
:1041100084183498A0803698C5B21C2D00D9C6E00A
:104120003298A8402B49084200D1C0E027482A49CC
:104130004158002906D0369880B28847002801D11E
:1041400001F068FC681E1E2800D9B7E003A14000FA
:10415000085A40008744C046E40D0000420029048C
:104160001602B200B200D1038301B2001102430370
:10417000150390041201CD00F70550035E0CC40333
:10418000C605B20082045E0CB200B200B200B200FA
:10419000CA008001B200B2004806C046EC0D000023
:1041A000FFFFFF3FE60D0000144A0020FC04000062
:1041B00004050000610200000E050000040E00006E
:1041C0004A0D0000140D00002A0D00001C200020E4
:1041D000FC0D000001460018DC0D0000309804289A
:1041E00001D101F09CF80328359D01D101F089F837
:1041F000022801D001F00EFC9DAC5C262046314621
:104200003EF0C6FF284637992246334634F038FF41
:10421000002801D001F0FEFB9DAF387801213591D7
:104220000840ED4EED4D715DFE220A4010187055AC
:104230009BAC042220460A99E94DA8479F20C00064
:10424000301821463BF0C4FA08241D9809992246EB
:10425000A847387802210140E04BF05CFD22024083
:104260005018F05489208000301837900899224661
:10427000A8479E981021C84131210A01B050FF2063
:10428000F649705478781321490170547888F449BC
:1042900070528B2080003490305C0028329201D123
:1042A00001F0E2F908222798079901F0E2F9EA4AB9
:1042B000EC4BD05CFD210140D15437E7DB200001FD
:1042C000E5490D180027E448E7494058874201D3E3
:1042D00001F0A0FB2968369884B220468847002860
:1042E00001D000F0C6FD7F1C1435ECE7DA48DF4949
:1042F00077E23098012801D000F087FDB4AA0823A6
:104300003FF061FD0028D44ED94F01D001F082FB6F
:10431000B498C0195321C9007050152041010020E4
:1043200070523499C9080901814201D101F072FB30
:10433000B59AD2192B235B01F45825182254140E78
:10434000EC70140CAC70120A6A70F2581218002447
:1043500054731473F25812183EF0EFFCD57A2D0600
:104360002C19E318C34C641C1C431472230C937265
:10437000230ED372230A53721030D5E71C213498D0
:1043800037F050FF359C210731910027394606460A
:10439000379D3290B74201D301F03CFB002901D098
:1043A00001F038FBB4AA1C233FF008FE002802D01D
:1043B000339947314DE034973795B4A83BF0A8FEC8
:1043C000AD49A54A565800243FF056FF88003218E0
:1043D000335C55782D02EB1895782D04D7783F067D
:1043E0007D19EB181D46A34F3D4004D0132C02D875
:1043F000481C641CE8E7002D974C349F04D0339987
:104400003231359C379D23E0379E3146994F3940F4
:104410000B431370190ED170190C9170190A517059
:10442000954962581118135C4C782402E3183EF049
:104430003DFE3546E3183B40349F319C23431354E3
:10444000180EC870180C8870180A48700021359C26
:10445000329E1C357F1C9DE77F488849C1E1386842
:1044600032900020359D042803D09DA93FF0C4FA66
:10447000F9E79DAA04233FF0C8FD0646002803D1B2
:104480009D9875497E4A885437F090FC72487D4962
:10449000309A425210461C21002A319100D030211E
:1044A000002801D02C2031903798071D012037902B
:1044B0003498001F37F0B6FE0446329872494860BF
:1044C00000203490214638F02DFA6F49087032945C
:1044D0003FF0E8FE34992E905F4C3298814201D330
:1044E00000F000FF002E01D000F0FCFE3491B4AAD1
:1044F0002846394626F048FA0646002838D12C9737
:104500002D96B4A83BF004FE2B21490164581425D4
:104510003FF0B2FE080120183EF0B7FCC67A36061E
:10452000F3189A181346594E33405F425F41002DED
:10453000379E00D03E46002E02D1481C6D1EE7E794
:10454000002B454C2D9E01D000F0C9FE08302C9F59
:104550003B464E4D2B401A430270130EC370130C92
:104560008370120A42702E980170401C2E90359D67
:1045700031983F183499491CAFE71B20C0013649D8
:104580000B582FE10020344D414FE9590A789042F1
:1045900028D24A788B781B029A18CB781B040979A9
:1045A0003FF0A6F982008A58917ED37E1B025918EB
:1045B000137F1B04547F2406E31859180AD0537E36
:1045C000339A18325A43002A04D000230B70491C36
:1045D000521CF8E7401CD8E71C200020F50400001E
:1045E000E11804001821349837F01CFE31900021A6
:1045F00030913198814201D101F00CFA3291B4AA84
:1046000018233FF0E0FB002800D0B4E0E85901781F
:10461000401CB4AA5278349200221746B94218D0EE
:10462000057846783602751986783604C4782406EB
:10463000A4196419A5583EF013FC6B7F1B069B1947
:104640001B1903D02B78349CA34223D07F1C121D4E
:10465000E4E70A461FE0C0461C20002026030000B5
:10466000A2020000F10D0000D80D0000880D00002E
:10467000FF030000FFFFFF0F640500008C0D00002A
:104680002E05000032050000144A0020FFFFFF073E
:10469000CC0A00003A468F421DD2017843781B02B3
:1046A000591883781B04C0780006C0184018910080
:1046B00040583DF0C1FC5318417E30204843181843
:1046C0000022F54DF54F914209D01C7AE40705D040
:1046D000521C3033F7E7F04DF04F44E018468A4261
:1046E00041D2017A01220A430272B4AA1178017000
:1046F0005378437053884380B59B0371289E337869
:1047000074782402E318C380B378F4782402E318A1
:10471000C385537A03725289028200290CD1B7995A
:104720004182269B19785A78120251189A781204FD
:10473000DB783FF015FA4161B4A9498A0246283274
:104740000185B9999170299A3EF021FE81851C213D
:10475000242903D0FF224254491CF9E734F08CFD90
:104760003098401C30903098002802D028F014FC7B
:1047700001E0002030903798183037903299491C6A
:1047800037E70020C44E359D042803D09DA93FF093
:1047900033F9F9E79DAA04233FF037FC002800D144
:1047A00077E308222798BE493CF0FEF8002805D0A0
:1047B0003CF06AF8002801D100F079FD3EF0C4FD1C
:1047C00001D001F027F93CF05FF8002801D101F099
:1047D00021F93EF03FFA0122B4AB00F07DFDAE4876
:1047E000B0494358002B01D101F014F9359837999D
:1047F000349A984701F00EF9A420AB4A3190115831
:104800003398383048431146AC31002804D0002298
:104810000A70491C401CF8E70020382805D0A2493E
:1048200009185C223FF000F9F7E7A0219E48329179
:1048300047583498394637F0F5FC34900024264622
:104840003498844201D301F0E5F8002E01D001F044
:10485000E1F8BBB2B4AA3598379D294636F098F8EE
:104860000646002835D1B4A80189490701D008219E
:1048700000E004213BF0FCFD8B49319A8F583D4606
:104880003FF02AFE0801884A1218B423D358002D9D
:1048900004D0002B06D0481C6D1EF1E7002B01D080
:1048A00001F0B8F8B432379F1760A9227E4B359DCE
:1048B0009D543D461A465C32B79B10184365C808A4
:1048C00080001018826B4907C90E0F238B409A4352
:1048D00082637548329947587D193795641CAFE754
:1048E0003498282801D001F095F828233598379975
:1048F0006D4A36F04DF801F08DF8B4AA18233FF058
:1049000062FA002801D001F085F82026304632F006
:1049100079FB044600223146644FB847B4993CF015
:10492000EFFE01223FF059FBB5993CF0E9FEFA2574
:104930006943084634F0F4FC02223FF04EFBB4A970
:1049400009893CF0A1FE8B208000534E305C022888
:1049500009D157484143574808183FF019FA5649BA
:10496000705038F0F5FF20260322204631464F4F85
:10497000B847B4A949893CF087FE4D43284635F035
:1049800055FA04223FF029FBB7993CF0B9FE052205
:104990003FF023FBB8993CF0B3FE06223FF01DFB2D
:1049A000B9993CF071FE01F035F8B4AA18233FF034
:1049B0000AFA002801D001F02DF8052005023FF089
:1049C0001DFE002837D0044610222946374FB8472D
:1049D0003DF001FAB4AE08223FF0E4FB3FF04CF8A2
:1049E000B847717A8279C3791B029A18037A1B043B
:1049F000407A0006C018801801701122204629460E
:104A0000B847B7993CF008FA2C4AB847B6993CF039
:104A100003FA2B4AB84771893CF036FE072042035F
:104A200020462946B847F17D3CF046FE002902D0D9
:104A300020462DF011F93FF03DFD002801D100F096
:104A4000E9FF20211F4A3DF0C3FC3DF0C4F9B4A9A1
:104A5000CA890280497B817000F0DCFFB4AA24235C
:104A60003598379C214635F093FF002800D1E7E2C6
:104A700032F087FE00F0CEFF0020042803D09DA96D
:104A80003EF0BAFFF9E70020359D08281CD0B4A9F4
:104A90003EF0B2FFF9E7C0461C200020CC0A00001F
:104AA000B4830400840D0000602E0020D123040094
:104AB00090D00300FF3B00002409000001E000004B
:104AC00002E00000FEEF00009DAA0424284637996A
:104AD0003FF012FD002801D000F09CFF9DA8407817
:104AE0000228239800D32046209909023191012100
:104AF0004A0230922E9109022D91379941180026D1
:104B0000334637969DA80078864201D300F082FF95
:104B1000002B01D000F07EFFB4AA08232846349170
:104B200034F0AEFA03462F9800780106490F0529A4
:104B300000D1D0E0012909D12F994978090208183C
:104B4000319908402D99884200D1C4E03293FF206A
:104B50008400DE4B185911277743C15D2E9A11430B
:104B6000C155B4A800781959C91988712FF00CFDE6
:104B700000280BD0F9480059379940180021329B82
:104B8000112900D1A7E03EF02BFFF9E72F9D2878EF
:104B9000F2490959CA5D0007400E872313401818CF
:104BA000C8552878FB490959C9194A781202C0002A
:104BB0003EF034F83EF0F6FC0146319A1140309A4E
:104BC000914209D1F3490959C9194A7BC006C00F5E
:104BD000FE23134018184873EE4801593DF0B8FD04
:104BE0008D186A05520F0AD1B499EB4AE94B9954D2
:104BF0000178427812025118827812048D182F9988
:104C00004A789207520F06232946994389182A0A9F
:104C100042702A0C82700170B4A9CA78DD4D28193F
:104C20002B59DB195A712A59D2197F231371426803
:104C300009785654B5992A59D319D25D5D782D0259
:104C4000AA189D782D045219C906890BD34D2A4004
:104C500051180A0C9A70090A59702F9A3EF097FB66
:104C60000A46319B1A40309B9A4211D0C94ACC491E
:104C7000515C1259D219537B8907890ECF251D40EB
:104C800069185173C17E491CC1762F9A3EF07FFB93
:104C9000319AE0320A40309B20339A42359D329B54
:104CA00019D1BC4A1259D219537B090A3C250D402F
:104CB000C32119404919359D5173817E491C817664
:104CC000B4480059C0192F9949788906090F002264
:104CD00034F044FF329B34990831761C37981130F8
:104CE00037900FE70023AB4F3598379C042B04D047
:104CF000B4A90022CA545B1CF8E7B4AA04232146D5
:104D000035F046FE002801D000F084FE241DB4A832
:104D10000178A4483954A4483D18002006468E4224
:104D200001D300F077FE002801D000F073FE0C23C1
:104D3000359821462A4635F02BFE761C0C349949CD
:104D4000795C0C35EBE7082225983FF0CFFC3098D2
:104D5000022801D100F0AAFD3098012800D172E2AA
:104D6000002801D000F056FE012634022520C100A3
:104D7000B4A83EF00DFA28343498A04200D062E284
:104D8000B4AA359837993FF0B7FB002801D000F05E
:104D900041FE24980278102A01D900F03BFE2498A5
:104DA0004078202801D900F035FE7A4F7F497A54A7
:104DB0007918487000200399D2B2904201D300F0D4
:104DC000F8FC4A1E12787A4C3B599B195B1E1A70EC
:104DD0004A780B783C59A519A3556A70401C249A4F
:104DE0001278F61C091DE7E73098002801D000F082
:104DF00011FE0023674C35983799102B00D139E20A
:104E0000B4AD0022EA545B1CF7E73D68B4AA042362
:104E10003EF0D9FF00285F4A664901D000F0FAFD54
:104E2000B49840185321C900505015204001002467
:104E300014523498001F01D100F0ECFD5E4949681E
:104E4000691A5E4A914201D900F0E4FD8008379961
:104E5000091DC2B2359826F0C9F9574800780028D4
:104E600001D100F0D7FD27F05BFB5348047000F040
:104E7000D1FD1420784347490818514945580096F8
:104E80003098019020463599379A349BA84700F016
:104E9000C1FD0020102803D0B4A93EF0ADFDF9E714
:104EA0000120000232903798011D00231A469DA868
:104EB0000078824200D374E4002B00D071E49DA8F6
:104EC00040780128349203D0102402E01C200020F6
:104ED0000D24B4AF284637913A463FF00DFB034608
:104EE000812085002B484059B97A0B267143401820
:104EF0003EF020FA329A114200D09AE03093093005
:104F0000B4AAD37A9B075B0C319F7F020F40DB1959
:104F10000170190A41701F4F7859917A71434118F5
:104F2000887A00024004800F1AD0B4A8C07A012801
:104F30004AD10622084623493CF0D2FCB69879595A
:104F4000B4AA937A7343C918030ACB718871B798CE
:104F50007959927A7243891808724AE01C2000201D
:104F6000B4AF384633F05EF9B6980A494959BA7A6F
:104F700072438918020ACA718871B798054949595C
:104F8000BA7A724389180872B87A3989014F29F0C0
:104F90002FFA2EE01C20002026030000FF1FFC003B
:104FA000B3020000C406000004060000BC050000B7
:104FB000C4050000FF030000144A0020FEFFFF7F2D
:104FC000BC0D0000AC830400B4AF384633F02AF9BE
:104FD000B798F2494959BA7A724389180872EF486A
:104FE0004059B97AED4F71434018ED4A110AC17129
:104FF00082717959B4A8827A724389183EF045FBD0
:10500000329B1A434A72120A8A727959827A72431F
:10501000891800224A727959807A70430818817A77
:1050200010220A438272832080003958491C39506B
:10503000309B37990919349A521CD84E359D36E762
:1050400024343794B498D54FD64978547A18B4A8F4
:1050500034904079411E88412C9210770C22319275
:105060001E9C20461F993CF03BFC00206070E070C5
:10507000E0802D90A080CC4D3FF0C0FA0746294635
:10508000CA4ACB4CA0472B9B19785A781E463BF056
:105090000AFE2946239D2A46A047317B329A1140B9
:1050A0003CF00AFB03223846BF49A047317B890701
:1050B0003CF052F9307B2840400832F0E3F90422FA
:1050C0003846B94D2946A0473499C97D3CF0F4FAD9
:1050D00005223EF011FFBA993CF0EEFA06223EF0AE
:1050E0000BFF317B4907C90F3CF0E6FA07223EF07F
:1050F00003FF317B0907C90F3CF0DEFA357B132033
:105100003090C401A54E315D6A00102002402E90FF
:10511000EF230B40D1184140315508223846A249AF
:105120000E46A34CA047E906C90F3CF0C5FA092278
:10513000384635463146A0472B9E317B8906C90F3C
:105140003CF0BAFA0A223EF0D7FE349D697E3CF06C
:10515000B3FA0B2238469449A047317B4906C90F60
:105160003CF0AAFA38469049319AA047A97E3CF013
:10517000A3FA4B204001894A11500D2238468A4932
:105180000D46A047317BC9098279C3791B029A1861
:10519000037A1B04407A0006C01880180170307B27
:1051A000C00935F067FC0E223EF0A6FE3499C97E98
:1051B0003CF082FA0F223EF09FFE2546717B329A28
:1051C00011403CF079FA707BC007C00F34F066FDE7
:1051D000384675490C462E9AA847717B89073CF0E2
:1051E000BBF811223EF08BFEBB993CF065FA12220F
:1051F0003EF085FE317A727A3BF055FD3746214606
:10520000309AA847B17AF27A120251183CF03CFA6F
:1052100034980079411E092900D986E04000C3B2C4
:10522000359C2046379D2946119A35F0B1FBB4A92B
:1052300009794A005519002800D1CFE1339B473343
:105240000020329074E03BF09FFA00249D949DAFC3
:105250000426359D284637993A46334633F010FFE9
:10526000002800D180E04D49524A8C521C3000D1B8
:105270001CE3CFE3B4AA102333F002FF002800D0D0
:10528000C8E3B4984C4960526018B4A94A88828136
:10529000B59AC281CA880282B69A428249898182BD
:1052A000B7990184002001462FF0CAFAB2E38B209F
:1052B0008500705D002800D1ACE301240021B4AB6F
:1052C0002798224615F078FA705D012800D0A1E3F6
:1052D0003DF0C0FCB4AB224615F06EFA9AE300260E
:1052E000359D2C9F3098002807D0002E05D132988C
:1052F000C2B22846394625F079FF532000012554D3
:1053000088E39DAA5C233EF080FE044600286DD110
:105310000020642852D0B4A93EF06EFBF9E7B4AA8D
:1053200064233EF050FD044660E0359C379D2D9B84
:10533000B4A83299002900D16AE18079002800D10F
:1053400066E10A2800D963E1430020462946109A05
:1053500035F01EFBB4A989794A005519002800D1FF
:105360004AE1339B473353E131943A780B48114972
:10537000425440189DA9497841709000CB001818FC
:10538000349B1B1F9BB2834200D08FE2339847307F
:10539000102A00D8DCE1319C65E7C0461C200020C3
:1053A000FFFF00000C0D000057FC0000FDFF000097
:1053B000D1230400BC050000C4090000B4A89DA9C5
:1053C0005C223CF08DFA0C980078229B597BF822E5
:1053D0000A40072101405018587333984730CB904A
:1053E0000020C1439974090AD9741875002C00D0A3
:1053F00010E3B4AE3078012137910840FD4FFE4DE7
:10540000795DFE220A40101878559DAC0422204692
:105410001699FA4DA8473EF065F808241D9815998D
:105420002246A847307802210140FC4BF85CFD225F
:1054300002405018F854892080003818359014998B
:105440002246A8474320C0003818B5991022D14100
:1054500031221301F950FF21F24AB9547178132215
:105460005201B9547188F04AB9522299097D817567
:10547000007D00283494329303D0082227981A998B
:1054800004E0C52080003918082227983CF028FA4B
:1054900019980078E549785410261C9C20461399E9
:1054A0003246DF4DA847E148385C2074A5208000D3
:1054B000379D3D541B9812993246D94B98473F204F
:1054C0000001395A40220A433A5218980078D249CA
:1054D000329E8F19F873229C2078B873B4A8007894
:1054E00080098B218A00CC4931928854607B8107E6
:1054F000C90F7973B321C900C74A52584007C00F7A
:10550000C003EB039A438018C34A5050B720800071
:10551000C14908180C221799C14B9847607BAD21EF
:105520008900BD4A525AC007000E80239A431018C2
:10553000B94A5052CB982CF05BF8A07CE17C090270
:10554000081836F099FC607B34990840C00835F0A3
:1055500091FA7C88B04FB6498C4208D0B85B88423B
:1055600005D0F320C000385C3799084304E0F320ED
:10557000C000385C37998843F321C90078543198CA
:10558000385C002810D0359E08223046A9493BF0EF
:105590000BFA002800D13DE2A548844200D139E24F
:1055A0009BAA20463146B8E008221A9D2846A14908
:1055B0003BF0FAF90028359EE6D0082228469E499D
:1055C0003BF0F2F90028DFD0C5208000381808220F
:1055D0001A993CF085F999483C5AD5E72C98C17145
:1055E0001018C0880023924A904200D0A0E6481EBE
:1055F0009349894A50549BE62C9841771018808B28
:1056000000238B4A904203D1481E8E49824A50544F
:10561000B4A8002B01D0FFF72BFAC079002801D1E4
:10562000FFF726FA042801D9FFF722FA352189016C
:10563000794A521843003EF0C1FC002801D0FFF720
:1056400017FAB4A8C07974497F4A8854891842006F
:10565000895A774A914201D0FFF70AFA401E6E49F3
:10566000794A8854FFF704FAC520800031180822CF
:1056700027983CF035F90F9800786C497054102445
:105680001C9D284606992246654FB8476748305CFE
:105690002874A5208000359D35541B980599224615
:1056A000B8473B463F200001315A40220A4332525C
:1056B0000D980078329FF419E0730E980078A0736B
:1056C000B720800030180C220B9998476488FD4958
:1056D0008C4207D0F05B884204D0F320C000305CDD
:1056E000284303E0F320C000305CA843379F349A7E
:1056F000F321C9007054B05C002811D0082238464C
:10570000F1493BF051F9002800D183E1ED48844292
:1057100000D17FE19CAA2046394624F0F3F879E1D4
:105720000822079D2846E8493BF03EF90028E5D0CD
:1057300008222846E5493BF037F90028DED0C5208D
:105740008000301808223EF04FFEE448345AD5E776
:105750001029319C00D986E53296002A2146274639
:1057600074D03798071D00200126114604460028F2
:1057700046D18C4244D2B4AA04232846394633F099
:105780007FFC00280FD1B4A94A78D24DC84B5B5991
:105790009B195B1E1A704988C54A5259359D931949
:1057A0009155090A5970641C9DA90978F61C3F1D82
:1057B000DDE700200721049A249B5B78984200D300
:1057C000F3E0931F1C785B78B925ED007E597618BD
:1057D000F61E73703470137807241C407B595B18D5
:1057E0005B1E1C701378DB087C596354401C083125
:1057F000D21DE1E71C200020F5040000E1180400A0
:105800000028319F22D00021A94AB14BD1523099B2
:1058100002294BD02AE5C0461C200020F5040000D8
:10582000E118040026030000A20200009502000017
:10583000FFFF0000B4830400AC83040012030000E7
:10584000130D0000290D00003E0D0000B597B49720
:105850008800379940183190954C9DA84078874230
:1058600021D2329E31988119B4AA0823284633F0F8
:1058700007FC0028C7D1B598B921C900625893190F
:105880009055000A5870B4A8C27907231340625893
:1058900092199370C079C00861588919C8707F1C2B
:1058A00008363296D9E7309802287ED13AF06CFF5C
:1058B00000269D969DAF0424359D284637993A468B
:1058C0003EF01AFE002800D0A1E03A7878488049DE
:1058D000425441189DA8407848709100C30059185F
:1058E000349B1B1F9BB28B4200D090E0102A00D942
:1058F0008DE0102800D98AE0002A314632962CD05B
:1059000034943798061D00200127114604460028CC
:105910001FD18C421DD2B4AA04232846314633F04D
:10592000AFFB00280FD1B4A94A786A4D604B5B5990
:10593000DB195B1E1A7049885D4A5259359DD3198F
:10594000D155090A5970641C9DA90978FF1C361DA0
:10595000DDE70028329E349C59D12746B596B4968F
:105960008800379944183546514E9DA840788542A5
:105970001BD2E119B4AA0823359833F081FB002823
:1059800044D1B598B921C9007258D319D055000A2D
:105990005870B4A882797358DB199A70C07971581D
:1059A000C919C8706D1C0837DFE700240425404E74
:1059B000494FF05D844211D2B920C00030584119DE
:1059C0008978032907D1405D2EF0DEFD002802D042
:1059D000E0B237F02FFB641C0835EAE7172080019E
:1059E00030580021082902D03DF0FAFFFAE70020E4
:1059F00080280FD0B921C9002D4A51580A18095CD6
:105A00003CF06AFB00220A700830F1E7329E284819
:105A10002F494652369A521C254F284CFEF743FB1D
:105A20002078002803D026F07BFD00202070002481
:105A300023483C50381884802A98483001D11CF003
:105A40002FF81D483858002810D1204638F02EFF76
:105A5000DF2000013C541B20C00138181821C1660A
:105A6000006E401C02D1012021997850114AB85C87
:105A700004210143B9547FB07FB001B0F0BD339928
:105A80004731316038A918F007FC002803D03CF0FA
:105A900013FCFEF74CFA30681B21C901791808661F
:105AA000307ADF221201B8547068C866FEF73FFAF8
:105AB0001C200020F10D0000EC0D0000144A002015
:105AC000FC0D0000FFFF0000B4830400AC83040061
:105AD000BC050000C4050000BD0500001203000065
