:1000000000000120E9F403001DAE03001DAE030053
:100010001DAE03001DAE03001DAE03001DAE0300A8
:100020001DAE03001DAE03001DAE0300B74203006A
:100030001DAE03001DAE0300218C030079CE03002A
:100040001DAE03001DAE03001DAE03001DAE030078
:100050001DAE03001DAE03001DAE03001DAE030068
:100060001DAE03001DAE03001DAE03001DAE030058
:100070001DAE03001DAE03001DAE03001DAE030048
:0C0080001DAE03001DAE03001DAE03000A
:10009000F0B5FFB088B004462021159130F072F819
:1000A0000646401C1B901CA801270770307817904B
:1000B0001894601ECC4BD42119915958C0B2A42277
:1000C000169250431A9008183FF092FBF075707A20
:1000D000B17A09020D18C548185CC00724D128B2AE
:1000E000002842D40127AD208600BF48815B002054
:1000F000090509D529463C398AB20B2A04D8BC48DF
:100100000140BC48C840384079210901FE4A515C91
:10011000022319404A424A41024300D1D8E1002853
:1001200000D1E3E18421D6E13CF09EFA002800D121
:100130002FE2707DC007C00DD1D11F2D00D81FE365
:10014000F2482818112804D839468140F048014265
:10015000C5D128463138092804D839468140ED48B0
:100160000142BCD11CA800210170E8482A18472A86
:1001700001D903F09AFA930001A0C0588746C046FF
:10018000B1070000B107000027080000EF080000D9
:100190000B090000B9070000B9070000AB360000EA
:1001A000AB360000AB360000AB360000AB360000CB
:1001B000AB360000AB360000AB360000AB360000BB
:1001C000AB360000AB360000AB360000AB360000AB
:1001D000AB36000089080000AB360000AB360000EB
:1001E000AB360000AB360000AB360000AB3600008B
:1001F000AB360000AB360000AB360000B50900009E
:100200009B090000A1020000A1020000AB36000023
:10021000AB360000AB360000AB360000AB3600005A
:10022000AB360000AB360000AB360000A102000088
:10023000AB360000AB360000AB360000AB3600003A
:10024000AB360000C1070000A10200002B0800002F
:10025000A1020000AB360000A1020000AB36000096
:100260008F0700008F070000AB360000AB360000A0
:10027000A1020000AB360000AB360000AB36000038
:10028000A1020000A1020000A1020000330A000048
:10029000FF070000A1020000A1020000A10200006F
:1002A0009948199940581A9941180C7949790902C5
:1002B0000919012901D803F0F8F9472A01D903F0F7
:1002C000F4F901A2D2589746FF080000FF08000089
:1002D000FF080000FF0800001F090000FF080000E1
:1002E000FF080000AB360000AB360000AB36000064
:1002F000AB360000AB360000AB360000AB3600007A
:10030000AB360000AB360000AB360000AB36000069
:10031000AB360000AB360000AB3600009F08000093
:10032000AB360000AB360000AB360000AB36000049
:10033000AB360000AB360000AB360000AB36000039
:10034000AB360000E1090000FF080000FF080000D4
:10035000FF080000AB360000AB360000AB360000F3
:10036000AB360000AB360000AB360000AB36000009
:10037000AB360000FF080000AB360000AB360000D3
:10038000AB360000AB360000AB360000FF080000C3
:10039000FF080000FF080000FF080000AB36000067
:1003A000FF080000AB360000F9030000FF08000062
:1003B000AB360000AB360000AF1D0000AB360000CE
:1003C000AB360000AB360000091C00009D1B00008E
:1003D000FF080000FF08000013080000FF080000ED
:1003E000FF080000451C00001C20002078090000C8
:1003F000FF0F0000F10F000018982EF0EDFC002810
:1004000001D103F04EF940F0E1F9C1780079000222
:1004100040187C4988423C4A01D903F03FF9312118
:100420000E01915B884201D003F038F97648105AEA
:10043000884201D003F032F9199810583EF004FFB9
:100440000C3454AD0B22284640F00CFE687800288E
:1004500001D003F023F9A87A002801D103F01EF996
:1004600054A841888088000440186849491C884283
:1004700001D303F013F924498A19117C5218927B95
:10048000002A01D003F00AF91F4A5118604A895C1A
:10049000C840C00701D103F001F9E07A612801D218
:1004A00003F0FCF8852000011749095CCA0701D058
:1004B00003F0F4F8574A144B9A5C520701D503F045
:1004C000EDF801221143104A1154534802F00AFC7E
:1004D000062D0BD98D211B9A9078D2781202101814
:1004E000484A904200D869E003F0DFF8FA0284211C
:1004F00028461F38282800D965E0154606A2400086
:10050000105A40008744C0461C2000200080FFFF96
:100510007F0003008303000032007F058506880604
:100520003100310031003100310031003100310043
:10053000B005310031003100310031008504BA04CA
:10054000CE03FD05310030053100B70384033100CF
:100550003100BC06310031003100310031005F0450
:1005600000031E07F007C4028E06B4E78B2080004C
:100570002A49085C012801D001F023FA284800220A
:1005800018993BF0EBFC002801D003F08EF803F043
:1005900088F81B993FF01CFE04D1707DC007C00D88
:1005A00000D09CE528462138142800D997E5394623
:1005B00081401C48014200D191E58D21189839F005
:1005C000D2F903F06EF8152D00D984E716926D006C
:1005D0007D44AD886D00AF44FD0863082800280005
:1005E000B4089109380827002700270027002700B2
:1005F0002700270027002700270027002700A8073B
:1006000027005509F7FF0000A2020000FFFFFF07C7
:100610001F0300009C070000E9A003001C2000202D
:100620006D4702000304180055E7E14D199FE85992
:100630001A9BC0183FF0FAFA01D803F02FF83FF0E8
:10064000D7F8179021460D312BA840F0C5FB0F3489
:100650002021189815912FF095FD29460546401C3C
:100660001B90C8591A9940180079C01EC1B2204683
:10067000179C2FF047FE189A074600280DD11A95AF
:100680001B993FF0A5FD54A930F06EF9002801D167
:1006900001F074FE189A179C1A9D28781A9004216C
:1006A00010462DF075FB0546047031200201EC4820
:1006B000805A2BA90988884201D001F0CCF9002486
:1006C0006C701B99087A497A09020818032801D12D
:1006D00001F029FE022801D001F031FE1392149797
:1006E0000D2140F06DFA074643204001DC490C180B
:1006F000DC4B022219923846214698471794A0787D
:10070000B870F81CD849D64A5118199AD54B984751
:1007100060797871B81DD549D14A5118199C224683
:10072000D04B984738460830D149CD4A5118224617
:10073000CC4CA047234638460A30CE49C84A511807
:100740001446199A98471798007B3873A05B16993E
:10075000084212D114981C3007D159200001C04919
:10076000085801214905014007D1BD481399415A54
:10077000BE4A825A18983CF053F8BF4C01F0DFFD96
:100780003846A840BD49084200D0A8E4D8E4B4489F
:100790003EF058FC0B2901D202F087FF3FF0A0FC8D
:1007A0006419A47D0B348C4200D886E502F07DFFED
:1007B000189839F099F89EE018983AF039F99AE0CB
:1007C000A748199940581A9941183FF041FA427BBD
:1007D000842A00D193E0002A01D002F066FF3FF0A6
:1007E0001FFD052901D202F060FF0C3000791622AE
:1007F0004243501D884200D881E002F056FF9848DD
:10080000199940581A9940183FF010FA01D001F098
:10081000DBF88B2080009249085C01286FD1189882
:1008200036F0F6F86BE0112162E08D483EF00AFCEC
:10083000052901D202F039FF3FF052FC65192C4620
:100840002D7C002D5BD00C340B341B94002405262A
:10085000002D01D101F015FE34460C348C4201D933
:1008600002F023FF1B9CA45D032C05D0012C01D0BA
:1008700002F01BFF0E3600E015368E4201D902F061
:1008800014FF6D1E3C46E3E77548199940581A99C4
:1008900040183FF0ACFC032801D802F006FF3FF0FF
:1008A00095FF6F49199A89581A9A89183FF068FA82
:1008B000042A01D202F0F9FE3EF03FFF8A78520688
:1008C000674B03D53FF007FC6D4A985208786D4995
:1008D000595C884201D002F0E8FE21208001604985
:1008E0000858002801D002F0FDF902F0DEFE0221D6
:1008F000189831F047FF002801D102F0D6FE1CA95C
:10090000189813F047FA02F0CCFE18983AF090F8D5
:10091000002801D102F0C9FE5148199940581A998E
:1009200041183FF0B2FA0C18207C3FF079FC491FC7
:100930000023814201D002F0B6FE00281AD0082818
:1009400001D202F0B0FE0C34E17A4A0016460836B5
:10095000864201D902F0A7FE21460C318D5C6F0062
:10096000F619864201D002F09EFE20460D3038F086
:10097000BDF9257344483A490A58002A06D043492C
:1009800018989047002801D101F0CAFF18982EF05E
:1009900023FA4342434102F086FE314819994058F8
:1009A0001A9940183FF023FC0128A8D802F07DFED8
:1009B0001C2000202A48199940581A994218117988
:1009C00053791B025918032901D202F06EFE3FF041
:1009D00009F9927BD200D21C8A4201D902F065FE4D
:1009E00000212B911A9941183FF032F9867B3FF094
:1009F00017FCF200D21C8A4201D902F04FFE0C30E3
:100A0000C41C002E01D102F049FE54AD0822284634
:100A100040F028FB2BA940F0C9FA002806D12B98FA
:100A20003FF0BDF902D1807936F08AFF0834761E96
:100A3000E7E70B48199940581A9940183FF0D7FB3F
:100A4000022800D15BE7032801D202F02EFE01D17B
:100A500002F02BFEC00700D051E702F026FEC04690
:100A60001C20002079E503006308000066080000F0
:100A7000680800006A080000028000007F002BE088
:100A8000A2020000440800000C09000004800000DD
:100A90002021189C40F052F93FF07CF9F04A914235
:100AA00001D300F028FF411C0A784978090289180F
:100AB000EC4A01D002F0F2FDEB49515C090705D484
:100AC000407DC007C00D01D102F0E8FD1998105813
:100AD0001A9941183FF059F98024022811D33FF0A8
:100AE0009FF80D310DD0401EC2B2042035F0ACFC91
:100AF000002806D054A936F0FAFA002801D102F0F5
:100B00003DFB189821465AE51793202118981B9110
:100B10002FF038FB04464178827859200001D14DEE
:100B20002B580126F00218400AD1631C9D78DB780F
:100B30001B025B19CA4DAB42CA4D01D302F0AEFD98
:100B400012025718199969581A9A89188A79CB7913
:100B50001B029A188A18137B002807D1002F00D097
:100B60002BE5607DC007C00D00D126E515931697D3
:100B70000C32551C0879401EC7B22BAA28463946AC
:100B80003CF0B3FBD6211A900028149115D12BA864
:100B90001990018831404842484136F069F9199E60
:100BA000308817990840400835F078FC30880421D7
:100BB0000140880833F022FA0021179154AA2846F0
:100BC00039463CF0A3FB1990002804D154982EF02C
:100BD000BDF8002014907FAA284639463CF05AFA06
:100BE0000546002801D101F05FFBD6211A980028A4
:100BF000139101D101F05EFB1998002801D101F099
:100C000059FB002D01D101F055FB802701F055FB68
:100C10000720C44393483EF0DFF945183FF0D6FD66
:100C200002462B7B687BE61D002803D00B2801D8E9
:100C300000F073FF1898002801D102F032FD501C1B
:100C40008178C27812025118884A914201D902F083
:100C500025FD01784078000244182A2118981D4685
:100C60002FF090FA2B4600212A2901D101F05DFADC
:100C70003FF010FCF8E7002554957A483EF0ACF9B7
:100C800046183FF0A3FD1790317B707CFE2816912B
:100C900001D100F0E5FEFF2801D000F035FF092367
:100CA00000F0DFFE6F48199940581A9944183FF038
:100CB00023F9012801D802F0F1FCA579E679202179
:100CC000189813912FF05EFA3FF064F8674A91424A
:100CD00001D902F0E3FC02780C21114001D002F0AE
:100CE000DDFC12923102491961184F7B604B5D4A5D
:100CF000D25CD41B0025BA4200D22C460E7B032CBA
:100D000000D30324401C11901520149060431090D0
:100D1000411D3FF07DFF06702B464570514A5449F6
:100D2000515C8170C7700471451DE01915905148E0
:100D300016181A46F8B21599814201D801F0FFF849
:100D4000169217931B97F168C700C819C479C5207C
:100D5000800044490918082240F09EF8B068032139
:100D60006143405C2872B068401841788078A8726E
:100D70006972F068C0198079E87203280DD00128E3
:100D8000169A1AD11720800136490858C0190179DE
:100D90004079687329730E220FE028460C30172122
:100DA0008C0130490959C91909792FF09FFD2D4847
:100DB0000059C01940792875149AAD18179B9B18D3
:100DC0001B9F7F1CB6E73FF001FD3EF0E3FF274A83
:100DD000914201D902F062FC0178890601D402F047
:100DE0005DFC41788078000244181E4819994058EB
:100DF0001A993EF035FE057B0221189E3FF096FFC2
:100E000005708D2141701C48314622463B4602F058
:100E10007EF91448199940583EF096FC012901D8F2
:100E200002F03CFC8179C279120251184618202147
:100E3000189840F01FF80178169144788578377B30
:100E40003DF036F8717B1991884201D800F0EAFF35
:100E50003DF02EF81999401AC2B200F0E4FFC046E6
:100E6000F8FF00001C20002091050000F7FF0000A3
:100E7000B5050000B4050000428000002021189C48
:100E800020463FF0F7FFFA4D199969581A9A8918C8
:100E90003EF076FF012A01D800F02DFD421C937828
:100EA000D2781202D218F34B9A4201D902F0F6FB23
:100EB00003780C221A4001D002F0F0FB14933FF0AB
:100EC0000AF913903EF0E1FF0918087B1B900D31E1
:100ED00054AE0122304616923DF04EFB2F46347838
:100EE000052618983FF01EFF1B9901708421417060
:100EF0008B218900695C012901D001F03FFC0022AF
:100F0000427097218B00F95C8170C4701593FB5C73
:100F10009C4201D301F0E8FB1290002C17461046CA
:100F200001D101F0E3FB4721C900D14A5558002700
:100F30003A461B90072F01D901F0D8FBA24201D1FC
:100F400001F0D4FB394637461E462B782846254605
:100F5000169C23402C460546D21833463E460F4683
:100F60001B984F1C6D1DE5E78B208700C048C05DB6
:100F7000012801D002F095FBBD48199940581A99F3
:100F800040183EF053FE01D802F088FB1C463EF0AC
:100F9000E9FB28781590202118983FF06BFF6978BD
:100FA000FE2900D3FE21421C1B9202781692B24AFF
:100FB000AF4EB3189970B15C2143B1543EF0C2FEFC
:100FC0000DD1ED1CAA48199940581A99401800797A
:100FD000C01E3FF0E3F9002801D101F0F6FD1B9C93
:100FE0003EF008FFA349884201D801F015FAA34852
:100FF00000219F4A1154D05D012801D002F04BFB23
:10100000FB4801F06FFE9A4D199828581A9941181B
:101010003EF0BBFE102801D202F040FB8A79CB796A
:101020001B029A188F183C460C34A17B4A001346C9
:101030001033834201D902F031FB26460F36B25CF1
:10104000511849001031814201D902F027FBE07AA2
:10105000002803D0F12801D201F048FD8221189820
:1010600037F098FF02F01DFB202418983FF04CFD4C
:101070000546C0782979090208187E49884201D9B5
:1010800002F00CFB28780007800F01D002F006FB6D
:101090006878A97809020E187548199940581A9964
:1010A00041183EF0D5FD037B0A79497909028A1877
:1010B0008027022A1B961A9301D202F01BF80C30EB
:1010C000411C01D102F016F8501EC2B2032035F0C7
:1010D000BBF9002801D102F00DF854A936F007F849
:1010E000002801D002F006F854A80678471C002E0C
:1010F00001D101F0FEFF384637F09AF9761E083725
:10110000F5E71B975A4F199EB8591A9D40193EF0A2
:10111000FFFC2021189816912FF034F80246007831
:1011200015901794214614460D3154A809223DF01C
:1011300023FAB85940193FF05AF80A2801D202F0B0
:10114000ADFA661C3EF0BFFEB649884201D302F0FC
:10115000A5FAA07BE17B090208183DF052F88B212B
:101160008A004349895C022903D1002801D002F09A
:1011700095FA1392C52080003D49081854A93FF004
:101180004DFD00281B9D05D0A74954A83FF046FD02
:1011900045424541A07BE17B09020F18607D199013
:1011A000A14954A808243FF0F3FD1490384636F0C6
:1011B00039FC0746401E394681411A91002F01D162
:1011C00001F087FB984954A83FF028FD00280DD076
:1011D000964954A83FF022FD002807D054A87FA9C3
:1011E0003EF05AFC002801D101F094FF784278418A
:1011F000002F02D1012169401B91002F01D07B21DA
:10120000CF431B9900291B9001D001F06AFB02F02B
:1012100045FA1898394601E00021189814F0A8FA08
:1012200002F03FFA2021189C3FF088FD4178807839
:10123000000241180F48814200D95CE31B910C4821
:10124000199940581A9940183EF062FC0079401EE6
:10125000217B17910D343FF0ADF8002801D100F04B
:1012600070FF1C3001D101F077F8282001F075F8EB
:101270001C200020F7FF00009C0700009D070000D5
:101280001B972021189D28463FF0F4FD0646684F25
:10129000199838581A9941183EF077FD0122022812
:1012A00010461A9200D3A0E362497C18A2727178AA
:1012B000B27812025118E18031788906C90F617243
:1012C000E072002020730621284619912EF05AFF63
:1012D000217B594ABA1889005158C90E0171217BE6
:1012E000890051581F22D2060B46934301703EF0ED
:1012F000B6FE190EC170E17A4171B120C0003C5CAC
:101300001A980440C9208000385C45424541002CB1
:1013100000D11B9D189819992EF034FF002C01D193
:1013200001F0B3F9002D01D101F0AFF940790128A6
:1013300001D001F0AAF94148002218993AF00EFEB6
:1013400002F0AFF92027189C20463FF015FC3EF034
:1013500021FD344A914200D3CDE2417882781202D5
:101360005418334D199969581A9A8A183EF01CFC82
:101370000B7B1A93324BEB5C1B0709D4002C01D07A
:10138000FFF71BF9437DDB07DB0D01D1FFF715F9F3
:101390001B940C314D78402D01D902F07FF93EF0BD
:1013A0003DFD921EAA4201D202F078F91697891CDF
:1013B0000078159054AF38463FF0B8FB02213FF05B
:1013C00027FC1A99017000211A9141701B9A002D77
:1013D00001D101F078F93C78282021463DF074F9DC
:1013E0002938092800D975E002A1085C400087442B
:1013F00011C903000614414A71530A71712B1898E0
:101400003AF0B4FE66E031200001094A115A0D4855
:10141000125A18983BF004FA5CE018983CF018FA5D
:1014200058E0C046F8FF0000184E0400104E0400BB
:101430001C20002078090000880900008D4103006D
:101440009105000066080000E048E149415C012088
:101450000840490700D5801C2BA90880DB49895D1D
:10146000C90702D0001D2BA9088032213FF070FC73
:101470002BA906E02B213FF06BFC8D218900F94A56
:101480005118022224E02C213FF062FC23210901A3
:10149000F44A511804221BE02E213FF059FC199008
:1014A000F048815B17910A0A04231340EE49425C1D
:1014B0005001024616990A409A1840230340D0185A
:1014C0001799C905890F40182BA90880022219987D
:1014D0003DF052F82A2C04D1C3208000E1491A9A29
:1014E0000A527F1C6D1E71E73FF070F93EF052FC0E
:1014F000DE4A914201D902F0D4F800781790D94C15
:10150000199EA0591A9941183EF0A2FB0D30097995
:10151000491EC9B200221B9227F0FCF9002801D114
:1015200000F053FE802501F084FBD148CD49085CD2
:10153000002800D145E2199808581A9940183EF041
:1015400056FE0B2801D802F0A9F817931B970C340C
:101550002BAF0C2238463FF085FD7878B978090228
:101560000918C248814201D902F098F81A912BA8B3
:10157000C01CC049082215903CF08AF8002801D10F
:1015800001F0DAF907201490C0431390BA4E0120FD
:10159000000219903BF0C6FD044654A8203012907A
:1015A0007FA8851C00271694F8B2A04201D301F051
:1015B000C3F954A92AF082F9002833D054A801892C
:1015C0008A0405D540891A9A904201D101F0B0F9F8
:1015D000199801421B9C1A9B26D108061DD5149808
:1015E00001407FA801701299097841705499559A69
:1015F0002A712970130EEB71130CAB71120A6A7108
:101600000A0EEA700A0CAA70090A697033F0AEFD7E
:101610001A99884201D101F08CF9002C169C01D155
:1016200001F086F97F1CBFE713984442444100282B
:10163000D3D054AA1218128EB24204D054AA12184F
:10164000528E9A42C9D0001DEFE7202118980F91C1
:101650002EF098FD411C1B9100780E900020814BCC
:10166000199C1A9D052803D02BA93EF0CBFEF9E763
:10167000185941193EF089FB072801D202F00EF8F3
:101680008A79CB791B029A188E18717C831F4A00C5
:101690003C46934201D800F06DFC002100F06BFC49
:1016A000704C199D60591A9E80193EF0A0FD0428C7
:1016B00001D801F0F3FF6F49704F2BA80822B847FB
:1016C000605980193DF0EBFC7FAD04222846B847F5
:1016D0002027189C20463FF04FFA014654AE304672
:1016E0001A973A46654FB84730781B903FAE0222B2
:1016F00030462946B8470C213FF0DCFA0546312038
:1017000000015849085A3688B04206D030463CF0AD
:101710005EFD022801D000F08BFD1B9C7FA887781E
:10172000022F01D200F06DFDC52080004D4909183F
:101730002BA83FF041FA80211A9E2746199C00F001
:1017400080FD4849199808583DF0FEFF032901D84B
:1017500001F0A4FF3EF053F80D3054902BAD54A986
:1017600028463DF0F5FC549804782021189F38460F
:101770001A912EF007FD017817913EF0E3FA1990C7
:1017800005213FF039FC074606700026067131201E
:1017900000013449085A2988884201D000F0C2FC6F
:1017A000002C01D100F0B0FE8B2000012D4A105C0E
:1017B00033495118002801D100F0D5FD04C9137830
:1017C0009C4200D03246401E1646F3E71C20002003
:1017D0007809000028493FA8018022491998085833
:1017E0001A9940183EF008FD0A2901D801F056FF69
:1017F0003DF055FC214D2BAC0A222046A8477FA87E
:1018000008221B922146A8472026189F38463FF001
:10181000D7FA014654AD28461A963246174B9847D8
:10182000287816900C2538463FF0DCFA0746C5208C
:1018300080000C490E460818159021461B9A3BF073
:1018400027FF002801D100F00EFD2BA83CF0B2FCD0
:10185000022801D000F00FFD2BA839F0E1FE00F0C6
:1018600005FDC0461C200020D2020000F7FF00004A
:101870001D030000104E0400FFFF000079E5030087
:101880009C080000E649199808581A99401881796F
:10189000C2791202511846182021189C20461B912B
:1018A0002EF070FC054600781A90307B19900D36AA
:1018B00054AF022238463FF0FFF9DA48D849085AB7
:1018C00039880140398016D004213FF0F3F9199985
:1018D000017000214170801C54A93FF07DFA6878A6
:1018E000A97809020A181B981A9901404B09CE4899
:1018F000214601F00CFC204601F0D1FEC8491998A0
:1019000008581A9940183EF091F901D801F0C6FE26
:101910008179C279120251184118087B1A900D3151
:10192000C24B2BAD022628463246984720241898F1
:101930003FF0EAF8014654AF38461B942246BB4CB0
:10194000A0473F787FA829463246A0478B208100D8
:10195000B34B595C312212019D5A022905D17FA94E
:1019600009888D4201D000F075FD2BA909888124DA
:101970008D4201D000F088FC0601A949885D00284D
:1019800001D100F06AFD401D0C46C1B23FF040F9A4
:101990001A99017000254570801C7FA909883DF0C7
:1019A00053FEA25D0270A2496118401C954201D30A
:1019B00000F05FFD04C9127842556D1C984A925D93
:1019C000F4E78421FEF7FAFD032901D201F06DFE50
:1019D0003EF00EF8801C891EC9B22EF093FC002840
:1019E00001D001F062FEFEF714FF081D3DF09EFFDE
:1019F0001323DB01FA540D310078401EC4B21E20BF
:101A00003FF064FA002801D100F03FFE4178891CC4
:101A1000A14201D300F039FE8178864B804AD1542F
:101A20004A00121D631E9A4201D300F02EFE824A24
:101A30007B4B9C18C71C00258D4201D300F01BFE78
:101A4000042220463FF0E6FA3F1D6D1C7448794998
:101A5000415C241DF0E780206870002400F06FFCDA
:101A600007233D466E49199A89581A9A89183EF0FB
:101A7000D7FB00208B421B9700D9074634460C3415
:101A80000D363D40012D07D1A01D199054A8042208
:101A90003FF012F9549800E019960721CE431A90AE
:101AA00035F06AFEF61D002D2AD06279FE2A1B99B8
:101AB00000D1014601291A9801D001F0C9F91F216E
:101AC000CF060546BD4301D101F0C2F931210B011A
:101AD0005349CB18197C59188C7BC10E8C4201D00C
:101AE00001F0B6F9FF2A01D101F09EF9FE2A01D0DA
:101AF00001F0FCF9199909782DF05CFC01F0A7F9C7
:101B00003846189F01F0A6F9062800D201250628BC
:101B100001D200F005FC0623A4E716921793820079
:101B2000931C3F49199C09591A9C09190C79497948
:101B300009020C19A34201D901F0B0FD1B972946F7
:101B40000E318F5CFF2F00D1131DFE2F01D1032317
:101B50001343A34201D901F0A1FD8C18FE2F01D03F
:101B600000F0A7FF0128179B169A01D0FFF762F833
:101B7000677854A83FF074FA549E304635F0FCFD67
:101B8000002801D101F08AFD700101D101F086FD2C
:101B9000304639462DF00EFC01F096FA3EF016FE66
:101BA0000178890604D53EF0CDF801D100F05AFE47
:101BB00022481B4908183FF05FF904462048844238
:101BC00001D101F06BFD20463BF002FD014654AD12
:101BD0002C223FF061F928356878C007C00D01D18B
:101BE00001F05CFD54AD284618302BA93FF004F8F5
:101BF0005E980821C943F8390140298528462146C5
:101C000029F0B6FF01F04AFD0722D5433DF09CFEC6
:101C10008218537B922B00D1CFE3E81DCEE3C04660
:101C20001C200020680800001580000079E50300F2
:101C30009C080000850900008809000004050000D8
:101C4000FFFF00003DF080FE8518002450941D9495
:101C5000687B002801D001F021FD881E0E353EF082
:101C60009DFB002801D001F019FD002D01D101F0EC
:101C700015FD222029463FF057F8002801D101F038
:101C80000DFD0746811C7FA81A9008221B92B84BB5
:101C9000984739460A3147A81B9AB54B98473946A9
:101CA000123150A804221992B14B98473946163187
:101CB0001DA8199AFB4B98471A373FA839461B9A1B
:101CC000F84B984702211A981A9131F071FD1B9038
:101CD000002801D101F0E2FC2D942C942B942BAF21
:101CE00016970837222029463FF01EF817907FA943
:101CF00008221992169E3046EA4B98471DA90425E2
:101D000038462A46E74B98471A983073374623AE31
:101D100050A930462A46E34DA8472B461B99083167
:101D200054AD102228469847239854994140297071
:101D30007078559941402971B0785699414029727F
:101D4000F07857994140297323AE00961623284610
:101D50003946179A36F0B4FB3FA93046199A3BF042
:101D600097FC002801D001F099FC7FA83FF084F88F
:101D700050992B225201CC4EB35800011B180D0E66
:101D8000DD710D0C9D710D0A5D711971B158081846
:101D9000C17A0906C54A521C0A43110EC172C448D1
:101DA0003454C44821463FF04DF901F077FC8B20B4
:101DB0008000BD49085C012802D1189834F028FE43
:101DC0002024189D28463EF09FFE014654A83EF070
:101DD000E1FF7FA800260680B348199940581A9958
:101DE0003DF0A4FC0A7B1B924F7B002F0ED10C31DF
:101DF0000079801E8D1CC4B2284621462EF082FA3E
:101E00008F27002801D100F07FFE189D3E213EF073
:101E10001BFF04463E2E01D101F0C9FB0020A05556
:101E2000761CF7E700222802032A00D303220019B8
:101E3000149016205043411D189814462BF0A8FF0B
:101E4000054615970770002646703CF031F822468B
:101E5000A8701999E9702C7113956F1D334635469A
:101E6000132D60D810065ED0FF2084008E480059E4
:101E7000805DC00754D0D8B2884250D31A931B92C9
:101E8000892080008849091808223EF051FF384611
:101E900008308549095989198A7954A931F0ECFE2D
:101EA000814B54983874000A7874B87CFC21014046
:101EB000B9741959895D4907890F8C220240881825
:101EC000B8741959891949784907490E0918B9741C
:101ED0001859825DF3200840510708D404210843B3
:101EE000B87418598019417B0120084008E0B87483
:101EF00019598919497BC907490F0143B974002051
:101F00001B9AF8741859805D4006000F38751859EF
:101F10008019C0787875521E163719991A9B5B1C68
:101F20006D1C11369CE7159813990870179816992F
:101F300001404B0960481899149A01F0E8F8D8B2AA
:101F4000109988420BD2401A5749199A89581A9AFF
:101F500089183DF015FF10180871000A4871119991
:101F60003EF0C3F81398129901404B095348AFE370
:101F700079E50300012137461237BB5C801AC01F88
:101F80005A00904200D30C46012C01D101F086FB8F
:101F90000C3630780A90711C54ADA81C02243EF017
:101FA00099FFF11C281D3EF095FF75796C00395D95
:101FB0001B9A107809905078089090780C90D078FF
:101FC0000B901A9148194006010E18982EF0DAF875
:101FD000002D1995149004D039462A463AF085FD13
:101FE00007461A9A002A304D04D0791C149800191B
:101FF0003AF07BFD312000010690285A54A9498807
:102000000D91884204D02E480D99814200D8C7E333
:102010008B200001285C109054A88088119014989F
:10202000001913900023194607931098814201D19B
:1020300000F0FDFF12918800281822494158487885
:102040001B918978090208181199884203D01E480B
:102050001199814263D11B988079179000210D4618
:102060001798814232D2E80730D1169148001B9967
:102070000E1808360024149F2546199884420ED263
:10208000E8070CD13CF0F2FD06D11B980278D9B2DA
:102090002BA838F027FE0346641CBF1CEDE71699F9
:1020A000491CDDE779E503001C200020FFFFFF0746
:1020B000A605000079EF03003180000033800000A6
:1020C000F7FF00009C080000FFFF00001B98C0798C
:1020D000159000211598814220D2E8071ED117984B
:1020E0001691081840001B990E1808360024139FFB
:1020F00025461A9884420ED2E8070CD13CF0B6FD72
:1021000006D11B980278D9B22BA838F0EBFD034614
:10211000641CBF1CEDE71699491CDBE7F94D1299C9
:10212000491C82E7802078704DE2711E8E41F101DA
:1021300041700370C484282101224254189800F091
:10214000B8FED62700201690002C01D100F0D0FD5B
:10215000212021463EF0E8FD002801D100F0C8FD15
:102160000646811C7FAF082438463EF0B3FE0A368F
:1021700047A831463EF0AEFE0221384631F018FB4A
:10218000002801D100F0B3FD064604462834282279
:10219000805C6178090208180027284212D17FA8C4
:1021A0000221169515463AF09DFE0146705D627853
:1021B00012021018169A10437055000A60703046CB
:1021C00029F0D6FC189C00F095FDE4482058817A4F
:1021D0008625022901D900F02CFD9B221201A25C68
:1021E000CA40D10701D100F024FD0B21C901DA4A10
:1021F000515A0025490701D500F014FD1B9700F046
:1022000018FD002F06D08B208000D349085C0228DF
:1022100000D0EAE22BA930462EF0A6FB002800D120
:102220004DE30020082803D02BA93EF0CBF8F9E7B6
:1022300017980007800F01D001F030FA812119AF03
:10224000D0CF2C706970A81C2BA93EF0B5FC0A35C4
:102250003FA902223EF020FE54A83DF025FE374063
:102260007B09BF4834E231200001305A3FA9088081
:10227000BC4988420AD117980007800F01D001F0AD
:102280000DFA3C468127E0E10D46E6E02BA8007AF6
:10229000022800D2A2E117982840082801D101F0B5
:1022A000FDF93C468027D0E17FA8008836F0EAFDA2
:1022B000002013903EF0F4FC00271A984642464155
:1022C000247802213EF0A4FC1599017047701998FA
:1022D000002800D1761C169F002D00D1761C002E00
:1022E00000D1E4E20221189F38462CF00FFF0021B4
:1022F00001707100417001213846169F2CF006FFD5
:10230000002800D1D3E206701A98002800D1E2E13B
:102310001998002800D1BEE2002D00D0C7E2C1E22A
:102320000723FFF79FFB0226189831462CF0EEFE9C
:102330008D49894A51183EF009FC8C48441CA81C60
:102340002BA93EF049FD1B993DF0CFFE15981A9937
:1023500001404B09A0B2BBE12920C743179D0026CD
:10236000189C00F0C8FC002E00D0D0E0002C03D058
:10237000FF2C01D000F045FE8220D4E654A83EF0A8
:10238000D7FB002801D1FEF785F902462832282321
:10239000C15C54782402641816990C4201D0FEF7EF
:1023A00079F973496C4D695C169D2C43C454230A1A
:1023B000537029F0DDFBFEF76DF9281D002B66D068
:1023C0000026011D00D1F6E1002800D08CE0002E8F
:1023D00001D100F0BCFD304628302825715D4078E1
:1023E00000024018C10501D500F00EFE314618313B
:1023F00054AC10223EF00CFE705D8006400F0022AF
:10240000032100AB17C3049221A81DA901231CF0CE
:10241000BBF8514C00F0A9FE02213EF0F9FB00216F
:102420004170159A02704C4BDA5D012A01D07B2174
:10243000C9434170D85D012802D14E4818991954FA
:102440002078617809020A181798169901404B09FB
:1024500049483DE12BA80588802405213EF0D8FBA2
:102460001A9901704470801C29463DF0EDF8002156
:10247000017054A83DF018FD1B9807407B093F48A8
:1024800026E1E40701D0FDF718FF01F00EF90C3248
:10249000971C881E3EF04AF8002825D12F492E4867
:1024A000465801201B9039463EF010FD0746407803
:1024B000401CC0B2282817D3002F15D04C36B91CA9
:1024C00021A83EF079FB002E04D00A3720223046A6
:1024D0003EF0A0FD2A4C2048071921A93EF0ECFA55
:1024E000002801D100F020FF1C481B4C215800227D
:1024F000E42A02D03DF0D2FFFAE72058FF214170D4
:1025000001F0CCF81C2000201E4813490E18B079A9
:10251000F17908184000083000257D701697387151
:10252000C1B23EF04DFB074608223EF0C5FBB07934
:10253000B871F079FC1D1B97F87154A908703746E3
:102540000837B07985421FD2022220463EF062FD54
:102550006D1CBF1CA41CF4E71C200020B80900005F
:1025600001800000FFFF00006D0800000280FFFFF7
:10257000310500009D070000368000000580000046
:10258000040500006F0800000446169FE1B2C0B2C7
:10259000F279101888420DD9E8B240001B9A101841
:1025A00008304900711808313EF016FC6D1C641C9F
:1025B000B079EBE71B99887940000818C01D54A931
:1025C00001223BF0D9FF1A9C199D179EB81C2BA91C
:1025D0003EF002FC26407309D34870E03C460027D9
:1025E000002832D001213EF0EBFA05463AF0A0F87F
:1025F00028708B208000CD49085C012825D131202E
:102600000001085A3FA908807FA8082215993BF0CD
:10261000B3FF2878002818D02BA9497A461A00273A
:102620001B91884200D23E46212E00D32126700005
:10263000411C3EF0C5FA1B990170401C479047AA07
:10264000084631462FF04EFF2870199820706770A9
:10265000A01C7FA93EF0B0FA0A343FA902223EF046
:10266000D7FC54A83DF020FC1A98169901404B095C
:102670000120C0032CE0002907D03878C00701D121
:1026800000F047FC042000F045FC7078B1780902A6
:102690000D18347802213EF0BBFA1F218901E24A6D
:1026A000525C521CD3B2FF2B00D10022DE4B5A5495
:1026B000027080214170179804406309DB48189923
:1026C0002A4600F024FD1698159901404B09D84878
:1026D000189900F01CFD32211898179A3AF0B4F8B6
:1026E000002800D0E3E013E6027150E07E43CE4ABA
:1026F000072F3CD898423AD20E2838D84721CC0030
:102700001159895DC9072FD0401C1B9005213EF04F
:1027100057FA0546C44800598019C1780079687095
:102720002970C1480059805D4007800FA870BE49DC
:102730000959895D10220A401018A870BA49095930
:10274000895D179A11400818A870B7480059801978
:10275000817854A838F07CFF5498E870000A2871FA
:102760001B98B14A1599535C7F1C761DC0E71299DE
:10277000034648780B710028174608D01998385836
:102780001A9940183DF038FDC91E3DF0F7FD179825
:10279000149901404B09A7481899139A00F0B7FC07
:1027A0008B208000285C0023022800D031E28020AA
:1027B000079000F03CFC042118982DF0E3FC002168
:1027C00001809D49984B5958897801220A408270AE
:1027D00003D09A49595C38F03BFF9948A5214A003B
:1027E000189915F02FF800F05CFF0021012F01D09F
:1027F000FEF7A2FF0128274601D000F076FCC52095
:1028000080000C46884909182BA83EF0D5F9012113
:102810003EF0D6F9064639F08BFF21461796307008
:102820000028199C1A9E00D10BE57FA9CE78821B47
:102830000021B04200D20A461691212A00D321225B
:1028400015925000411C3EF0BBF90670401C4790A9
:1028500047AA304615992FF045FE179908701A9E21
:102860001699EEE47048199940583CF0EDFC3CF0A4
:10287000DBFF002801D000F011FF2D2021463EF0A3
:1028800017FB002801D100F009FF811C2BA83EF0A6
:10289000B3F9FFF78DF92C211898149A39F0D4FF69
:1028A000284304D12B211898139A39F0CDFF1B9897
:1028B00004406309634818993A4600F028FC012F48
:1028C00000D02CE301213EF07BF900210170FEF7DE
:1028D00033FF55485C49405C000700D522E30027E0
:1028E0001A9717980C301790002D00D1D2E0574856
:1028F0004D49085C800701D400F0D0FE1A980028EA
:102900000CD154A8007AC0095149474C625CFE239F
:102910001340181860544F4818992154179D5EE3CE
:10292000012300F0C0FEC046048000001C200020EF
:102930001A9949483EF09CFB8B2087003A49C85DB4
:102940000025012839D131200001085A1A9CA042E3
:102950001B9E07D12046159922F07EFB293001D11C
:1029600000F09CFE54A920462DF0FEFF002800D167
:10297000F6E22D48C05D012820D13DF027FF817B84
:10298000C27B120251181A9A891A4D424D412649AA
:10299000C95D012912D1017C1691467C2F4908227C
:1029A00015983AF075FE002807D047A915983DF014
:1029B00073F8002801D100F097FD1B9E002447AB5F
:1029C00015981A99224616F047F90028199747D109
:1029D000002D45D0002554957FA91A983DF06AF83E
:1029E000002801D000F03AFE7FA8007854AA3146B2
:1029F00025F01CFC002801D000F030FE549B1A7812
:102A0000587840075607B10F5206002E02D45B7B60
:102A100001251D40400F120F1692032901D000F02E
:102A20009BFC1B9C00F09DFC1C2000203C800000B7
:102A30004480000032800000B80900002603000036
:102A4000018F020043800000780900005108000057
:102A50002D040000A107000061900300104E040047
:102A6000002D25462146204627461A9B01D100F01D
:102A7000F6FD16912BA9CE7AEA49199A895C0129AB
:102A800000D07FE2032800D07CE2B00700D49BE3B3
:102A900017999AE3FE48FD49095C0020179D042818
:102AA00000D16DE2012282400A4200D176E2401C50
:102AB000F5E7FF2F00D1EEE2052F00D905E301284D
:102AC00000D002E3647854A83EF0CAFA54991B98E7
:102AD000009018983A46234628F02CFC0028179BB3
:102AE000169A01D0FEF7A6F800F0DBFDF348294660
:102AF0002D5C002D00D1ECE2F148085C002800D1EB
:102B00007EE38521FEF7ABFA7FAA2846214639F0FD
:102B10005FFE1F2029463EF0D9F9002801D1FFF7BA
:102B200074F94178032901D2FFF76FF981782BAA54
:102B30001170C1785170017991704079D07038214D
:102B4000189832F0EBF81790DB48199940581A9909
:102B50003CF0ECFD463120203EF0B8F9002801D1D0
:102B6000FFF753F916904078032801D2FFF74DF98B
:102B70001798801C169DA91C3EF02EF928791799EC
:102B80000871687948716978C91E032242439142ED
:102B9000189D01D0FFF73AF916998E1D179D09353A
:102BA0000027092F01D900F0DFFC874201D300F094
:102BB000DBFCE81E02223EF07FF8B07828707F1C14
:102BC000179840796D1DF61CEBE7312029463EF041
:102BD000ABF8002801D1FEF702FA841C4078401CB3
:102BE0001A903DF0E7FB002800D152E301461C316A
:102BF00000D187E3002801D0FEF7F1F9B148AE49D2
:102C00001A9A0A54B048081821463DF09FFFFEF773
:102C1000E6F91C460D983BF0F4FA012800D102E2D7
:102C20007E2001E2C07AFF281B9702D18B2500206D
:102C30001B90A14880591A9940183CF09BFF077BD4
:102C40000226189C20463EF06DF8077045701B9FC9
:102C5000002F0ED09D4898490858857AC77A0021E0
:102C6000204639F0C9FD057047701B9F801C3BF062
:102C700049F91D213EF062F8054600201D2802D0CA
:102C80003DF070FBFAE7002068702870EE73904802
:102C900043308021E972A872287C04210143297401
:102CA000179880060ED48B488349095C54A838F0E5
:102CB000CFFC297C7F20C043084354996975090AD9
:102CC000A97507E081487C4908583DF01DFA297C28
:102CD000012008432874002F03D07F481899764AB2
:102CE00011547E48189931F0B7FD00F0DAFC8627C0
:102CF000189C169E179D02213DF0DCFF0570477061
:102D0000380600D089E016967FA8022631463AF0B0
:102D1000E9F807460020684B0D2803D02BA93DF0A9
:102D200071FBF9E7C5208000191817916C4D2BAC89
:102D3000082215922046A8472B462B2041015E48C9
:102D400040580D4612913F01C019817BC27B12028F
:102D5000511813912D912673491C8173090AC1736F
:102D600055484059C1193FAE0422149230461D46C1
:102D700098471699083154AC10222046A8473F982E
:102D80005499414021707078559941402171B07833
:102D9000569941402172F078579941402173464835
:102DA00012994058444DC119C05D3BF02DFF3F9032
:102DB0001398239022213DF0CBFF04461799159FCD
:102DC0003A46474EB0472046083047A93A46B047F2
:102DD000204610303FA9149F3A46B0472046143091
:102DE00023A93A46B04718340020199A1A9B08289C
:102DF00002D03DF0A3FAFAE7A858C0188179C27949
:102E00001202511842180E32009454A82BA916230E
:102E100035F056FB3348189C2C5433480023214688
:102E200074E1C0461C2000202BAE3DF0E1FF2B9842
:102E3000384040192B901998411C7FAF02223DF079
:102E400077FF601C3A88C0B231462DF0C3FE0646BB
:102E5000189F1B9800281DD01798401C8178C278B5
:102E6000120251180822D243521C92B2914211D23E
:102E700001784078000244182A213EF0E1F8002150
:102E80002A290ED03DF006FBFAE7C0461C200020A0
:102E90002C040000002F01D100F003FC384600F0A4
:102EA000FEFB711E8E41F101417016990170C484C0
:102EB000384632F07FFDF4E31C200020B408000007
:102EC000DA08000009030000E9020000B809000068
:102ED0000280FFFF26030000A2070000154B01003F
:102EE00079E50300A407000047800000052A00D907
:102EF0002DE11998037800240094189F38461A99F8
:102F000028F018FA00281B98A4D120462646274608
:102F1000A0E701201A9A189DF94FFEF7C5F9002184
:102F2000FEF70AFC1998C007C10D54A8002900D06B
:102F3000D5E41499002900D1D1E40057002800D528
:102F4000CDE40120684001D1FEF73CF9C7E4F54823
:102F5000F34C2058C07AFF2800D1FAE00320F9E0B2
:102F600054A8082215993AF093FB002800D100E5F7
:102F70002046159922F070F8293000D0F9E48DE34D
:102F80008A272CE004210143052905D11321490199
:102F9000F94A515C491C1691014616E11B9B002B16
:102FA0001DD01143F64AF44B9A1811742978800009
:102FB0001318D97031787478240261181152189E50
:102FC0009E7009213EF050F8044654AD08223DF0B1
:102FD000B3FF287AC0092072EA48314683E602210D
:102FE000189C3DF067FE2978017047703078717841
:102FF00009020A181698159901404B09E248FEF794
:1030000077FC8320FFF78FF88006400FDB49DA4C0E
:1030100061588A7A002A00D19CE0C97AFF2900D140
:103020006CE1032197E07620C04307902346002BF4
:1030300007D10B9800020C994018D449884200D956
:103040002CE308980002099944181E46591D3DF0CA
:10305000DFFD0546CD480D9A824205D9C64806993E
:10306000405A7FA9088001E07FA90A80A81C3DF092
:10307000B3FE0A98287032462E71681D2BA93BF0CA
:103080007BFA079868700F980E9901404B09C04869
:10309000189922463BE026460C352BA83DF0E0FF70
:1030A00000246878844205D254A82BA93DF0D8FFAB
:1030B000641CF6E7B11C7FAE02223DF0D7FF6878B2
:1030C000328854A92DF086FD0646179B169AFDF707
:1030D000B1FD189C0C54AF48085C42224243AE48F4
:1030E0003DF09AFF3DF0F4FDDBE2199C1A9EFFF7DC
:1030F000A8F800272D780221189E3DF017FE1A9996
:103100000170477025406B09A44831461B9A31F085
:1031100033FCC6E27FA8007800212BAA25F086F8B0
:10312000002801D0FEF762F893481399405C01280B
:1031300001D0FEF75BF82B9840784007400D012145
:103140000902884201D0FEF751F8FFF7C8FB0026BC
:103150007EE6022000210123002200AD07C5039274
:10316000049321A81DA91BF00FFA844820580221BE
:1031700041708B48189921548A48B4E554A80678C0
:10318000002E01D1FDF7BDFC54A8451C0720C0430B
:10319000C01D1B903746002F00D18AE1C52080005A
:1031A000754908183DF04CFB002801D1FDF7A9FC3A
:1031B000082228467C493AF06BFA002801D000200A
:1031C0001B907F1E0835E6E70321022F179104D1DB
:1031D0000025002C00D02CE130E1002C00D12DE1A5
:1031E00004200843052809D13B46012F00D01EE1E9
:1031F0006E48614A115C491C11541F461A9B1DE11F
:103200006548FE2100221B9221F00AFE681E1999D2
:10321000594A5158C0B2169A3CF0EEF8287E697EA1
:1032200009020818217B627B3DF0C8F804D0604A8F
:10323000904201D091422AD115950C352A460F3281
:10324000A87B4100501816901A92A37B5800199041
:10325000301817901698401C1690525C009300206E
:10326000169933462CF0CEFD1695AA7B1798431C71
:103270001998305C009001201A992CF0C3FD4D483C
:103280003D4A105C4C49515C014300D0A0E08624CB
:10329000BEE04A4838490818009049480D18494886
:1032A0000B183DF0E3F936F0EEFF002801D0FDF7F2
:1032B00096FE002154AB28460A4615F0CDFC0028A6
:1032C00000D093E42BA8009054AD7FAB3DF0CEF935
:1032D00035F0AAF9002800D090E42888002800D012
:1032E0008CE47FA80078C00700D187E4002032F08A
:1032F00085FF002800D130E302462FE302212AE7B0
:103300001C200020304900201B4A50542F492028FF
:1033100001D1FDF764FE184A12183DF09BF8F6E75C
:103320001C200020B80900001348144940580246E8
:103330008078C00700D006E121A8FF2139F0D2FD36
:103340001B49884201D1FFF7CFF83AF041F9064610
:1033500009480A494258F7E0042800D0FFE0002459
:1033600004202BA9CE7AB10701D402211B911B9F07
:103370001A9BFFF781FBC0461C200020B809000003
:103380001C04000089D5010034800000F7FF000014
:1033900006800000B1080000DDD003002B80000093
:1033A000A3070000655A0300104E04001704000034
:1033B000FFFF0000D8080000FE0800000D05000017
:1033C000040500000C05000009030000E9020000EC
:1033D0000D3715990D31FD48FD4E301802253DF091
:1033E000A5FB1698C07AFB497054FB483018394643
:1033F0003DF09CFB232080013018E17A81771899F9
:103400008176F6483CF06CFC002800D1E1E08A248B
:103410001898214635F0BEFDED4DF14EA85D2146D0
:1034200035F0B8FD1B99A955EE48295439E11F46DE
:103430001A9BED48E64A115C491C11540020549037
:103440007FA918463CF036FB002800D006E17FA893
:103450000078002454AA3DF0C1FC002800D0FDE013
:103460003007C10F5498027843781E02B21886784C
:10347000360492195B075B0F179E9E4200D0CFE087
:1034800053079B0F9F4200D0CAE05606360F1B978A
:10349000169FFFB2B7421B9F00D0C1E0022B00D0A5
:1034A000B6E0437B01261E408E421B9F00D1B5E053
:1034B000B6E01B98002801D0FDF723FB54A8441C5C
:1034C000CA4D002E00D18FE00822204629463AF04E
:1034D000DFF8002805D0204636F08EFD204634F077
:1034E000A7FF761E0834ECE747A8017854AC2046C5
:1034F000149138F0ADF8248820463AF082FEBC4999
:103500008C4201D1FFF759FA0A46042108430528E5
:1035100001D0FFF752FA1A9884420DD13002169961
:103520004018904201D0FFF748FA1A983AF04FFE3F
:10353000022801D0FFF741FAAE480022149930F07A
:1035400003F9FFF73AFA00265078012801D0FEF778
:10355000CBFFA948417D002949D11A9149E00F4686
:103560001A9B1699FFF785FA994D199EA8591A9F2B
:10357000C0193CF041FE091B891E3CF0FFFE0621EC
:103580003DF01EFBA859C0198179C2791202511869
:1035900045182C460C34284644302BA93DF060FDDC
:1035A0007F98482168544835000A68700027677082
:1035B0001B9820702024189D28463DF0A5FA54A998
:1035C0003DF088FC28462BF007FC002869D02846EF
:1035D00065E000241898214635F0DCFCE348EE490C
:1035E000405C2146FDF73CFD0024FDF78AFAE048E7
:1035F0001A90E81D012901D0FEF7E3FE917A012916
:103600006FD0022901D0FEF7DCFE00201B906AE09B
:1036100000291B9F04D0437B01241C40AC421DD0D9
:10362000179B1B02DD4C14401B197C001C19169EB5
:103630003607760EA419120C82701A0A42700470B2
:10364000022F04D1427BFE231340591803E0417B33
:10365000FE220A405119417338F002F91A9BC34CFB
:10366000199D605D012810D115983AF0E4FD1A9B70
:1036700000280AD0615D012903D04178C91E0129C3
:1036800003D800783AF0A0FC1A9BC54821580029BD
:1036900011D02BA888471898002802D0189826F037
:1036A0003FFE1CA80378002B02D1189826F038FEA4
:1036B0007FB008B0F0BD022100221E460C23189DE9
:1036C000284634F07FF804460680801C08221599AD
:1036D0003AF052FF2BA8C07AA072B2482946FFF7F1
:1036E00002FB10201590154611468C314C323FA834
:1036F00017920DF0D3FE0C35199500209D499E4A76
:103700000346083311D0994B1D186B5CAD5C401E0D
:10371000AB42F5D0AB4208D2C520800093490918CE
:10372000199816901798199006E0904A1119C5201B
:103730008000171817981690904B2BAD08221792FF
:1037400028469847284608302024169922468B4B55
:103750009847284628303946179A884FB847284650
:10376000303019992246B84754AF3FA9384622460F
:10377000824B984738462030502229467F4DA84733
:10378000703738461A992246A8471B98002835D02A
:1037900054A8902123AC22462CF0F4FE4FA801211E
:1037A000017050A810223DF05DFC0020102800D1CF
:1037B000BDE050A9095C5C224A407FAB1A54362216
:1037C0004A4054A90A54401CF0E7C046B60800001D
:1037D0001C200020B8080000DC080000595003003D
:1037E000B4080000DA08000016040000104E0400BF
:1037F000FFFF000015270300C06F002054A8902190
:1038000023AA1A9230F098FF4FA81B900127077047
:103810005C497FA8024638C938C2042141700021A2
:103820001991809133F094FD044657481B993DF05F
:1038300099FA39F01DFC1B94256854AC40212046B0
:103840003CF024FA20461A99159A3CF067FF4C4840
:1038500002682F462035284619999047002856D1EE
:1038600054AC4A4920463BF04FFC1B98006840226C
:10387000214636F00FF9002849D139462831202257
:1038800038463CF04BFF54A841493BF03DFC3C48D6
:103890000268002128469047002838D11B9800680C
:1038A00054A9402236F0F6F8002830D11B98006861
:1038B0003549012236F0EEF8002828D11B9804681B
:1038C00054A9204636F004F9002820D12C4802687B
:1038D0002046203000219047002818D1204628306B
:1038E000202521463DF0EEF9A5204000B6302062AB
:1038F0001B98006854A92A4636F0CCF8002806D157
:103900001B9800681E498A6820302249904738F089
:10391000EBFB204947AC20223DF07AFB1B98006866
:103920003AF014F91DA810223DF09CFB12E054ACB3
:10393000204610304FA901223AF01EFE7FAD2A46E4
:103940001032112120462CF01DFE20211DAA2846F0
:103950002CF018FE0020FEF734FD602254A80088E9
:103960002BA9098825F01CFEFFF748F91C20002030
:103970003C7000201B0300000B05000079E50300EC
:103980007800000F984D0400844000205C5C5C5C73
:103990006A6A6A6A24410020B408000081F8FF00C6
:1039A0000409000091B00300F0B5FFB0FFB081B092
:1039B000B4A82990B4ACB4AD9DAEB4AB38A8D84F80
:1039C000D8497A5CD849795C520702D40A0700D5F5
:1039D000A9E0490701D401F00CFE2999153129917C
:1039E000092149016118239146342946153127914F
:1039F000691D26910E3531464E310E9131464D31BD
:103A00000D913C3619464E31219119464D3119918F
:103A10003C331A9303212091C901401835900020AE
:103A2000C24B2C2804D039180022CA54401CF8E795
:103A3000249504944720C543632080003790319536
:103A40004735BA4836953D5000203799814203D01A
:103A500038A93CF0D7FCF8E70F9635983699016005
:103A6000D520000132903F180F2033900026349665
:103A70003146022E38D0F4B20025B4AA0C232046D9
:103A8000294633F0F5FF00280DD03BF0E9F9369DCB
:103A90007888012188437880204637F0C9FE29467E
:103AA000761C3F1DE5E7B4A99DAA204633F068F9CE
:103AB0000146483101D0002811D19DA800880E2868
:103AC0000AD8798801220A437A803880339988425B
:103AD000E5D234963390E2E70F203880D5E70F2007
:103AE0003880319D2535D3E7339E8D4F0F2E35D04D
:103AF00032983C180025022D2DD020880F280FD099
:103B0000349AAA420CD0B0420AD00F20208060889C
:103B1000012188436080E8B237F08AFE319947314D
:103B20006D1C241DE7E78148012139500024E0B2D3
:103B3000012803D823F084F9641CF8E7DE48182133
:103B40003950DE4800213954764AB85C06210143D9
:103B5000B95401F049FD0E2E00D0319928913298C8
:103B60003D180026D64838182A903696022E2DD0B9
:103B700028880F2802D1761C2D1DF7E7F4B238A94A
:103B8000204618F0A9FA014638310FD0411C0AD05E
:103B9000002811D1359B03CB2A9A10661878C74BA1
:103BA000F854D166E7E73BF05BF9E4E70120B04069
:103BB000369901433691DEE76888012188436880A1
:103BC0000F202880204637F033FED4E70020102451
:103BD000359E202800D196E00C22424338A989184E
:103BE0004968B84B194204D038AB9A181289002A98
:103BF00002D1401C0C34ECE7451C880F38A92A463A
:103C00001F2A0AD80B59AF4E334202D09B0F98425D
:103C100005D1521C0C31359EF2E7014603E0022823
:103C2000359E29D10221369BDCB22246C240D00704
:103C300011D0C8B202280DD232682A9B1A669F4A58
:103C4000B954800018186421405A0E2845D11BF041
:103C500009FD44E0DCB299483A5C012108469043F2
:103C6000C440E2074FD08200BA18974BD45A8C4315
:103C7000D45237F0DDFD46E001461F2D1CD838A890
:103C80000059904A104213D0860FC8B2B0420FD0EC
:103C900081007A1834923299521853880127BB4315
:103CA0001F4F53800F22349B5A5237F0C1FD3146CB
:103CB0006D1C0C34359EE0E7369BDCB2C8B2224660
:103CC000C240D207B5D10021379A8A4201D101F012
:103CD00094FC38AA3CF0E6FBF6E71CF005F800205F
:103CE0003799814203D038A93CF08CFBF8E7319832
:103CF000473030607148385C38A918F0EDF9002879
:103D000001D03BF0ADF80749785C022222921043C3
:103D1000785400206D4C08280AD03CF00FFBFAE7DD
:103D20001C2000205D0D0000F50400004C0D00007B
:103D3000B4A8401C2E90B4A809301F909DA85B30F9
:103D40000C90B4A801460831179101460C31169128
:103D500001461431159101462431149101462C314C
:103D6000139101463D3112914F3018909DA80146A4
:103D700008310A9101460C3109910146143108912C
:103D800001462431079101462C31069101463D310F
:103D900005914F300B90B4A8801C039000214C4833
:103DA00038181D904B48381825904B4838181C90EF
:103DB0004A4838181B904A4838181E904948381805
:103DC0001190494838181090202901D101F0E9FBE1
:103DD0000C203691484338A90F1879680B46394AA8
:103DE0001340379301D101F0D6FB38AA121812897B
:103DF0003492002A01D101F0CEFB8A0F3592920055
:103E00003A4B9A18329BD65A0E2E01D901F0C3FBB9
:103E100001223392B2404F2330931B021A4201D148
:103E200001F0B9FB38AA101840892F902F48304A6A
:103E3000815084183498A0803698C5B21C2D00D9C2
:103E4000FEE03398A8402B49084200D1F8E027480B
:103E500029494158002906D0369880B28847002861
:103E600001D101F098FB681E1E2800D98EE34000A6
:103E7000784480884000874441008A04E304890331
:103E80008903F9029F03890349040706B805630102
:103E9000890351039502EE008E0B4C0459048903EB
:103EA00019068E0B89038903890389030C06EA002E
:103EB00089038903E902C046580D00005C0D00002B
:103EC000EC0C0000FFFFFF3F520D0000B049002046
:103ED000FC04000004050000610200000E05000063
:103EE000B60C0000960C0000AC0C00001C2000205A
:103EF000680D000001460018480D00002F980428A6
:103F000001D101F063F80328359D01D101F04EF88D
:103F1000022801D001F03FFB9DAC5C2620463146D3
:103F20003BF0B4FE284637992246334631F05EFB1B
:103F3000002801D001F02FFB9DA8339000780121CB
:103F400037910840B74FB84EB95DFE220A401018AD
:103F5000B8559BAC042220460A99B44EB0479F2026
:103F6000C0003818214638F057FB08251D980999DC
:103F70002A46B047339C207802210140AA4BF85CC6
:103F8000FD2202405018F8548920800038183590DE
:103F900008992A46B04733469E981026F0413121B1
:103FA00009017A18349230917850FF20A049785452
:103FB000607813214901785460889E497852259889
:103FC00007992A461C4698470F9800789A497854D2
:103FD0001C9D284606993246A0479748385C2874AD
:103FE000A5208000379939541B98059932462546FB
:103FF000A0473F200001395A40220A433A520D9807
:1040000000783499C8730E98007888730C46B720EE
:10401000800038180C220B99A847658887498D4283
:1040200001D101F048F93098385A884201D101F0A5
:1040300042F979200001385C3799084301F040F9D2
:10404000784A7F4BD05CFD210140D154FFE6754892
:104050007C4900F020FDA4207B4A2F901158319814
:10406000383048431146AC31002804D000220A7091
:10407000491C401CF8E70020382805D0724909186F
:104080005C223CF0D7FAF7E7A0216F4830914758FF
:1040900034983CF009FF33900021349133988142E9
:1040A00001D301F078FA3498002801D001F073FAB6
:1040B0000E46BBB2B4AA3598379C214633F0D8FCE3
:1040C0003490002834D1B4A80189490701D00821CF
:1040D00000E0042139F080F85B492F9A8F583D4663
:1040E0003CF0E4FE0801584A1218B423D358002DBE
:1040F00004D0002B06D0481C6D1EF1E7002B01D028
:1041000001F049FAB432379C1460A9224E4B359D18
:104110009D541A465C32B79B10184365C80880004E
:104120001018826B4907C90E0F238B409A43826394
:104130004548309947583C1937943146711CADE7D2
:104140000020042803D09DA93CF05CF9F9E7002089
:10415000359D082803D0B4A93CF054F9F9E79DAA8D
:104160000424284637993CF0AFFE002801D001F026
:1041700012FA9DA840780228229800D32046209960
:104180000902309101214A022F922D9109022C91AE
:10419000379941180026334637969DA80078864205
:1041A00001D301F0F8F9002B01D001F0F4F9B4AA21
:1041B00008232846349131F019FA03462E980078E6
:1041C0000106490F052900D1E5E0012909D12E9901
:1041D000497809020818309908402C99884200D182
:1041E000D9E03393FF2084000E4B185911277743F1
:1041F000C15D2D9A1143C155B4A800781959C91948
:1042000088712DF0E7FB002820D006480059379927
:1042100040180021339B112900D1BCE03CF03AF951
:10422000F9E7C0461C200020F504000079E50300F2
:1042300026030000A202000095020000FFFF00001C
:104240005D0D0000F80C0000CC2D00202E9D28787C
:10425000DE490959CA5D0007400E8723134018182C
:10426000C8552878D9490959C9194A781202C00095
:104270003BF0D3FA3BF0C5FF0146309A11402F9A2C
:10428000914209D1D1490959C9194A7BC006C00FC9
:10429000FE23134018184873CC4801593BF01CF812
:1042A0008D186A05520F0AD1B499C94AC74B99545F
:1042B0000178427812025118827812048D182E99D2
:1042C0004A789207520F06232946994389182A0AE9
:1042D00042702A0C82700170B4A9CA78BB4D2819AB
:1042E0002B59DB195A712A59D2197F23137142684D
:1042F00009785654B5992A59D319D25D5D782D02A3
:10430000AA189D782D045219C906890BB14D2A406F
:1043100051180A0C9A70090A59702E9A3BF079FDCF
:104320000A46309B1A402F9B9A4211D0A74AAA49AD
:10433000515C1259D219537B8907890ECF251D4034
:1043400069185173C17E491CC1762E9A3BF061FDFC
:10435000309AE0320A402F9B20339A42359D339B9E
:1043600019D19A4A1259D219537B090A3C250D409A
:10437000C32119404919359D5173817E491C8176AD
:1043800092480059C0192E9949788906090F0022D0
:1043900032F0CEFC339B34990831761C37981130BB
:1043A0003790FAE6D72000018849081808223CF027
:1043B00059FE2F98022801D101F02CF82F980128DE
:1043C00000D1C4E3002801D001F0E5F80126340251
:1043D0002520C100B4A83BF059FC28343498A042F1
:1043E00000D0B4E3B4AA359837993CF06DFD0028AD
:1043F00001D001F0D0F823980278102A01D901F0F9
:10440000CAF823984078202801D901F0C4F86F4FEA
:1044100072497A547918487000200399D2B29042B8
:1044200001D300F094FF4A1E12786D4C3B599B1942
:104430005B1E1A704A780B783C59A519A3556A700F
:10444000401C239A1278F61C091DE7E72F980028D4
:1044500001D001F0A0F800235C4C3598102B00D15E
:104460008EE3B4A90022CA545B1CF7E7B4AA182350
:104470003CF0E9F9002801D001F08DF82026304603
:104480002EF0BEFE044600223146564FB847B4997E
:1044900039F082FF01223CF0C2FAB59939F07CFF75
:1044A000FA256943084632F077F802223CF0B7FA61
:1044B000B4A9098939F07CFF8B208000434E305C21
:1044C000022809D148484143484808183CF0ACF953
:1044D0004749705036F058FA2026032220463146CC
:1044E000404FB847B4A9498939F062FF4D43284687
:1044F00033F030FB04223CF092FAB79939F04CFFCC
:1045000005223CF08CFAB89939F046FF06223CF0BF
:1045100086FAB99939F04CFF01F03DF82F9801283F
:1045200000D0D0E2B4AA08233CF08DF90028274E31
:10453000304F01D001F02FF8B498C0195321C900B1
:10454000705015204101002070523499C9080901AA
:10455000814201D101F01FF8B59AD2192B235B01DA
:10456000F45825182254140EEC70140CAC70120A76
:104570006A70F2581218002454731473F258121807
:10458000D37A10241C43D4721030E1E70F481A4943
:10459000451800270D4819494058874201D300F0BB
:1045A000FAFF2968369884B220468847002800D050
:1045B000BDE27F1C1435EDE7386833900020359D4F
:1045C00004281DD09DA93BF01DFFF9E71C20002009
:1045D00026030000FF1FFC00B3020000B40500002A
:1045E000BC0500003DEF030090D00300FF3B00003E
:1045F0001C090000FF0300001C0D0000440D00001A
:104600009DAA04232846379930F0F0FF064600287B
:1046100003D19D98F949FA4A885434F0EFFBF748E2
:10462000F8492F9A425210461C21002A309100D09E
:104630003021002801D02C2030903798071D012010
:1046400037903498001F34F0CFFD04463398EE497C
:10465000486000203490214635F066F9FE49087024
:1046600033943CF009FB34992D90FA4C33988142F5
:1046700001D300F08CFC002E01D000F088FC3491B6
:10468000B4AA2846394624F08BFA0646002838D1C9
:104690002B972C96B4A838F013FC2B2149016458B1
:1046A00014253CF0FBFB080120183BF0A8F9C67A62
:1046B0003606F3189A181346E84E33405F425F41BE
:1046C000002D379E00D03E46002E02D1481C6D1EA4
:1046D000E7E7002BDF4C2C9E01D000F055FC0830A2
:1046E0002B9F3B46DD4D2B401A430270130EC370C7
:1046F000130C8370120A42702D980170401C2D908B
:10470000359D30983F183499491CAFE7D148D449BA
:10471000C1E13498282801D000F03DFF28233598C6
:104720003799D04A33F0A4F900F035FF0023C94F80
:104730003598042B04D0B4A90022CA545B1CF8E7B6
:10474000B4AA0423379C214633F092F9002801D003
:1047500000F021FF241DB4A80178C3483954C34890
:104760003D18002006468E4201D300F014FF0028B9
:1047700001D000F010FF0C23359821462A4633F073
:1047800077F9761C0C34B849795C0C35EBE7B4AAA0
:1047900018233CF058F8002801D000F0FCFE05205A
:1047A00005023CF0F7FB002837D0044610222946CA
:1047B000AF4FB8473AF00EF9B4AE08223CF07CFA9D
:1047C0003BF088FEB847717A8279C3791B029A1848
:1047D000037A1B04407A0006C01880180170112269
:1047E00020462946B847B79939F078F9A14AB84721
:1047F000B69939F073F9A04AB847718939F0D8FDF4
:104800000720420320462946B847F17D39F0A0FD34
:10481000002902D020462AF001FD3CF021FB0028AF
:1048200001D100F0B8FE2021944A3AF087FB3AF01B
:10483000D1F8B4A9CA890280497B817000F0ABFE2F
:104840000020844D8E4FE9590A7890421BD23AF0ED
:1048500032F882008A58917ED37E1B025918137F4A
:104860001B04547F2406E31859180AD0537E319A4A
:1048700018325A43002A04D000230B70491C521CE2
:10488000F8E7401CDFE71821349834F0ADFC309095
:1048900000222F9237993098824201D100F07BFE9E
:1048A0003392B4AA18233598379130F09FFE002830
:1048B00000D095E0E8590178401CB4AA52783492AF
:1048C00000221746B94218D0057846783602751985
:1048D00086783604C4782406A4196419A5583BF0D8
:1048E00079F86B7F1B069B191B1903D02B78349C1E
:1048F000A34204D07F1C121DE4E70A4600E03A46BA
:104900008F421DD2017843781B02591883781B040B
:10491000C0780006C0184018910040583AF092F94B
:104920005318417E3020484318180022494D544FF7
:10493000914209D01C7AE40705D0521C3033F7E7C6
:10494000444D4F4F44E018468A4241D2017A012239
:104950000A430272B4AA11780170537843705388E5
:104960004380B59B0371269E337874782402E31844
:10497000C380B378F4782402E318C385537A0372B2
:104980005289028200290CD1B7994182249B19785F
:104990005A78120251189A781204DB783BF0F2FD33
:1049A0004161B4A9498A024628320185B9999170BA
:1049B000279A3BF02EFA81851C21242903D0FF225F
:1049C0004254491CF9E731F093FD2F98401C2F9079
:1049D0002F98002802D026F0BDF801E000202F908B
:1049E00037991831339A521C55E70020194D042885
:1049F0000CD09DA93BF006FDF9E7C0461C20002025
:104A00002E05000032050000B04900209DAA0423B5
:104A10003BF019FF002800D1D2E00822259819495F
:104A200038F036FE002804D038F0B2FD002800D15E
:104A300098E23BF0E9F901D000F0ADFD38F0A8FDB7
:104A4000002801D100F0A7FD3AF0B6FE0122B4AB78
:104A500097E2C0461C200020B0490020FFFFFF075E
:104A6000EC0C0000CC2D0020BC060000FC05000072
:104A70003DEF030001E0000002E00000FEEF000057
:104A8000380A0000184E0400CF200001A8490B5836
:104A900002E0A748A7494358002B01D100F07BFD55
:104AA00035983799349A984700F075FDB4AA2423B5
:104AB0003598379932F0DCFF002800D14CE130F016
:104AC000B0FB00F068FD3D68B4AA04233BF0BBFED8
:104AD0000028974A984901D000F05DFDB49840182D
:104AE0005321C9005050152040010024145234981D
:104AF000001F01D100F04FFD90494968691A904AA2
:104B0000914201D900F047FD80083799091DC2B2D2
:104B1000359824F0A1FB89480078002801D100F0E5
:104B20003AFD25F0FDFB8548047000F034FD1420AB
:104B300078437F4908188349455800962F9801907B
:104B400020463599379A349BA84700F024FD39F068
:104B50006DF800249D949DAF0426359D2846379915
:104B60003A46334630F042FD002800D154E2704905
:104B7000754A8C521C3001D100F04CFC00F00BFD4A
:104B8000B4AA1023379930F031FD002801D000F08D
:104B900002FDB4986D4960526018B4A94A888281B8
:104BA000B59AC281CA880282B69A428249898182B4
:104BB000B7990184002001462CF0F4FF00F0EBFCD3
:104BC0000020102803D0B4A93BF01CFCF9E7012019
:104BD000000233903798011D00231A469DA80078E3
:104BE000824200D319E7002B00D016E79DA8407839
:104BF0000128349201D0102400E00D243598B4AF80
:104C000037913A463CF060F90346812085004848D8
:104C10004059B97A0B26714340183BF0F0F8339AAB
:104C200011427ED12F930930B4AAD37A9B075B0C33
:104C3000309F7F020F40DB190170190A41703C4F11
:104C40007859917A71434118887A00024004800FA4
:104C500018D0B4A8C07A01282ED1062208463C49B3
:104C600039F08AFCB6987959B4AA937A7343C91873
:104C7000030ACB718871B7987959927A724389186F
:104C800008722EE0B4AF384630F058FCB698284988
:104C90004959BA7A72438918020ACA718871B79859
:104CA00023494959BA7A724389180872B87A3989FE
:104CB0001F4F26F007FF14E0B4AF384630F03EFC3B
:104CC000B7981B494959BA7A72438918087218482B
:104CD0004059B97A164F714340181E4A110AC171E2
:104CE00082717959B4A8827A724389183BF0CBF962
:104CF000339B1A434A72120A8A727959827A724332
:104D0000891800224A727959807A70430818817A8A
:104D100010220A438272832080003958491C39507E
:104D20002F9B37990919349A521C014D56E7C046FA
:104D30001C200020F40C0000FF030000B0490020FC
:104D4000FEFFFF7F280D0000B4050000BC09000035
:104D5000104E0400FFFF0000379824303790B498BD
:104D6000BA4FBB4978547A18B4A834904079411EA0
:104D700088412C9210770C2230921E9C20461F995D
:104D800039F0FAFB00206070E070E0802D90A08088
:104D9000B04D3CF0FFF806462946AF4AAF4CA0475D
:104DA000299F3BF077F839F003FB30462946229DD6
:104DB0002A46A047397B339A114039F0C9FA0322B9
:104DC0003046A449A047397B890739F035F9387B4B
:104DD000284040082FF012F9042230469D490D4624
:104DE000A0473499C97D39F0B3FA05223BF0A8FDFC
:104DF000BA9939F0ADFA06223BF0A2FD397B49079A
:104E0000C90F39F0A5FA07223BF09AFD397B090753
:104E1000C90F39F09DFA3D7B91488C4C205C6900AC
:104E2000102319402F93EF220240881858408C49D4
:104E30006054082230468749884CA047E906C90FCC
:104E400039F086FA09223046824D2946A047397B3F
:104E50008906C90F39F07CFA0A223BF071FD349DB6
:104E6000697E39F075FA0B2230467A49A047397BC2
:104E70004906C90F39F06CFA30467649309AA04796
:104E8000A97E39F065FA7748704A11500D223046F4
:104E900070490D46A047397BC9098279C3791B0245
:104EA0009A18037A1B04407A0006C0188018017013
:104EB000387BC00931F0DCFF0E223BF041FD349914
:104EC000C97E39F045FA0F223BF03AFD2546797B41
:104ED000339A114039F03CFA787BC007C00F31F0AB
:104EE000DDFA30465B490C462F9AA847797B890743
:104EF00039F0A2F8112230462146A847BB9939F073
:104F000027FA122230462146A847397A7A7A1202C5
:104F1000511839F04DFA132230462146A847B97A84
:104F2000FA7A1202511839F043FA34980079411E86
:104F3000092951D840001921C901444E7218C3B241
:104F4000359C2046379D294632F092FDB4A9097957
:104F50004A005519002800D170E1319F47370020E1
:104F600033903DE001240021B4AB2598224613F094
:104F700073FE3AF049FF00D00DE33AF01DFCB4ABEC
:104F8000224613F069FE06E30026359D2B9F2F98DD
:104F9000002807D0002E05D13398C2B228463946E2
:104FA00024F05AF9532000012554F4E29DAA5C2311
:104FB0002846379930F01AFB044600286ED10020AD
:104FC000642853D0B4A93BF01DFAF9E7B4AA6423CE
:104FD0003BF039FC044661E0359C379D1B4E2D9F0C
:104FE000B4A83399002900D140E18079002800D18C
:104FF0003CE10A2800D939E1430020462946119AAC
:1050000032F036FDB4A989794A005519002800D13B
:1050100021E1319F473729E130943A780B48124912
:10502000425440189DA9497841709000CB0018184F
:10503000349B1B1F9BB2834200D0EBE13198473079
:10504000102A00D852E1309C91E5C0461C20002077
:10505000780C000057FC0000FDFF00003DEF03004E
:105060007809000058090000B4050000B4A89DA903
:105070005C2239F081FA0C980078219B597BF82248
:105080000A40072101405018587331984730CB909F
:105090000020C1439974090AD9741875002C00D0F6
:1050A00079E2B4A835900078012137910840D54DB8
:1050B000D54EA95DFE220A401018A8559DAC0422C9
:1050C00020461799FD4FB8479F20C0002818214659
:1050D00037F0A2FA08241D9816992246B847359F42
:1050E000387802210140A85DFD2202405018A855E1
:1050F000892080002818349015992246264633943A
:10510000EE4B98474320C0002B182F93B5981024DE
:10511000E041312109016A1830922D916850FF2039
:10512000E749685478781321490168547888E5493B
:1051300068522198007D9875259814993246DF4E63
:10514000B0471A980078E04968541C9F3846139974
:105150002246B047DC48285C3874379EA520800082
:105160002E541B9812992246D44B98473F20000199
:10517000295A40220A432A52199800783099C87354
:10518000219C207888730A46359800782F4680093C
:105190002F990875607B8107C90F517315465921F6
:1051A00009017A584007C00FC003F3039A438018DF
:1051B0007850B720800038180C221899BF4B9847B8
:1051C000607BAD2189007A5AC007000E80239A4384
:1051D00010187852CB9829F0B9FDA07CE17C090227
:1051E000081833F04FFE607B33990840C00831F057
:1051F0003FFE6D88B5498D4209D02D98385A8842B6
:1052000005D079200001385C3799084304E0792003
:105210000001385C379988437921090178540822C4
:10522000349C2046AA4938F033FA002800D1B2E174
:10523000A648854200D1AEE19BAA52E02C98C171EC
:105240001018C0880027FE4A904200D0C8E6481EC9
:10525000FD497054C4E62C9841771018808B0027C4
:10526000F74A904202D1481EF8497054B4A8002F62
:1052700000D024E4C079002800D120E4042800D91B
:105280001DE4430020462946109A32F0F1FB002825
:1052900000D014E4B4A8C079E249ED4A88548918D2
:1052A0004200895AE64A914200D008E4401EDD4996
:1052B000E74A885403E479200001385C3799884331
:1052C0007921090178540822359C2046DD4938F0BF
:1052D000DFF9002800D15EE1D948854200D15AE1CA
:1052E0009CAA2846214622F065F954E11029309CF9
:1052F00000D93CE43396002A2146274654D03798FB
:10530000071D0020012611460446002840D18C428A
:105310003ED2B4AA04232846394630F067F9002863
:105320000FD1B4A94A78CC4DBE4B5B599B195B1E7B
:105330001A704988BB4A5259359D93199155090AEB
:105340005970641C9DA90978F61C3F1DDDE70020FB
:105350000721049A239B5B78984200D3E6E0931FD1
:105360001C785B781725AD017E597618F61E737090
:105370003470137807241C407B595B185B1E1C702B
:105380001378DB087C596354401C0831D21DE1E7D7
:105390000028309F08D00021A24AAE4BD1522F994D
:1053A000022937D0FFF7E6FBB597B4978800379905
:1053B000401830909B4C9DA84078874226D2339E5F
:1053C00030988119B4AA0823284630F00FF9002834
:1053D000E1D1B59817218901625893199055000AB7
:1053E0005870B4A8C2790723134062589219937079
:1053F000C079C00861588919C8707F1C0836339677
:10540000D9E7C0461C200020F50400002F98022890
:1054100000D08BE038F00AFC00269D969DAF042456
:10542000359D284637993A463BF04EFD002800D07E
:10543000AEE03A787B488749425441189DA84078AD
:1054400048709100C3005918349B1B1F9BB28B42BC
:1054500000D09DE0102A00D99AE0102800D997E0EA
:10546000002A3146339639D034943798061D0020EF
:1054700001271146044600282CD18C422AD2B4AA16
:1054800004232846314630F0B1F800280FD1B4A9E2
:105490004A78714D634B5B59DB195B1E1A70498862
:1054A000604A5259359DD319D155090A5970641C67
:1054B0009DA90978FF1C361DDDE7C04679E503008C
:1054C00026030000A202000095020000FFFF00007A
:1054D000184E04000028339E349C59D12746B596B7
:1054E000B49688003799441835464E4E9DA84078AA
:1054F00085421BD2E119B4AA0823359830F076F81A
:10550000002844D1B598172189017258D319D05574
:10551000000A5870B4A882797358DB199A70C07960
:105520007158C919C8706D1C0837DFE700240425BD
:105530003C4E4A4FF05D844211D217208001305812
:1055400041198978032907D1405D2CF043FA0028DE
:1055500002D0E0B234F032FD641C0835EAE7B7202F
:10556000C00030580021082902D03AF093FFFAE732
:10557000002080280FD0172189012A4A51580A1883
:10558000095C39F0A5FB00220A700830F1E7339E70
:105590002448304946523699491C224F264CFEF782
:1055A00013FC2078002803D024F0BAFE00202070DD
:1055B000002422483C50381884802898483001D173
:1055C0001AF092FB1A48385800280DD1204636F0C0
:1055D0002FF918483C5418202A99C866086E401CB8
:1055E00002D10120114978500F4AB85C04210143CF
:1055F000B9547FB07FB001B0F0BD3199473131600F
:1056000038A916F069FD002803D039F029FCFEF70F
:1056100022FB03CE2A9A10663078064BF854D166E6
:10562000FEF719FB1C2000205D0D00004C0D000052
:10563000580D00005C0D0000B0490020680D00000E
:10564000FFFF0000184E04007F0C0000950C0000C6
:10565000AA0C0000B4050000BC050000B505000060
:10566000F0B5D3B0F348F449002902D03AF04EFC2B
:10567000FAE70020142805D0F049091838223AF03A
:10568000D9FFF7E7EE48EF49002902D03AF03EFC97
:10569000FAE7E84EEC49D42031503246D432EB4F91
:1056A00039463C310E92D160E9490B461C337D22CC
:1056B000D2001792B350E74AB1503B464033E64A16
:1056C000B3503B464433E54AB350E54B3033DB4AF5
:1056D0009364DB4B7033E34C3D465835DC631D640B
:1056E000E14BF318E14E34464834E14D60375F60DA
:1056F0009C60DD60DF4F3B4630330024802C0ED0B1
:105700001725AD01CB4A55592A192B551D0ED570B9
:105710001D0C95701D0A557008345B1CEEE7D64AC7
:10572000D64BC44CE250D64AD64BE363C74B483302
:105730000CC4D54A2B230A935B011993083CE25011
:10574000D24A81239B001A93E2500A463832412301
:105750001893DB001B93E250FF221692950062190A
:105760005431CB4B1D956351CA4B51609360CA496C
:10577000CA4AA1507521C900209163185825702D7F
:105780000AD07A191A70140EDC70140C9C70120A6C
:105790005A70DB1DED1CF2E743211491C900A54F9F
:1057A000139179182036BE4AA9239B001E93FA5004
:1057B000BC4A0E621C914A62DB22D1001F91A84AAA
:1057C0007A503858B84B002B04D000220270401C8D
:1057D0005B1CF8E7E020159038580023042B03D019
:1057E0000022C2545B1CF9E7179838580022192A86
:1057F00002D03AF02BFEFAE79648385800221B2ACE
:1058000002D03AF023FEFAE7934838580022042ADF
:1058100002D03AF01BFEFAE7904838580022042ADA
:1058200002D03AF013FEFAE78448806C0022062A80
:1058300002D03AF00BFEFAE7AC208149085800226A
:10584000802A02D03AF002FEFAE7B0217C48129199
:1058500040580022082A02D03AF0F8FDFAE700206A
:105860000246102A25D017239D017B59D6009C198A
:105870009F5D61780902C919A7783F04E47824067E
:10588000E41967181B1800240021082C02D01955B0
:10589000641CF9E73970674C61598B198F55390EC3
:1058A000D970390C9970390A27465970521C083042
:1058B000D7E7B7201790C00038580022082A03D035
:1058C00000218154521CF9E7784838580022302AC8
:1058D00003D000218154521CF9E76848385800224F
:1058E000482A03D000218154521CF9E7386800226D
:1058F000EC2A03D000218154521CF9E76C48FA6B62
:1059000003463033002B02D03AF092FAFAE77A6875
:105910000023042B03D00021D1545B1CF9E7199913
:105920007A5803465033002B02D03AF081FAFAE756
:105930001A997A5803465C33002B02D03AF078FA71
:10594000FAE71B997A5800231C2B03D00021D1546D
:105950005B1CF9E70125A9027A5800231C2B03D010
:105960000021D1545B1CF9E71D997A5803463C335A
:10597000002B02D03AF05CFAFAE74E497A58034617
:10598000002B02D03AF054FAFAE70022082A17D086
:10599000072151437918209C0B19095D5C7824027A
:1059A00061189C782404DB781B061B195B18002403
:1059B000032C03D000211955641CF9E7521CE5E7BC
:1059C0004721C90079580022282A02D03AF066FD02
:1059D000FAE71E9979587830002804D000220A701E
:1059E000491C401CF8E78F239800385800213C29B7
:1059F00002D03AF04FFDFAE71F98385800213029BD
:105A000002D03AF047FDFAE72B49244838580029DC
:105A100002D03AF07BFAFAE7199328483D54284C13
:105A2000A07D00281A9500D0F6E1A575E06B00284E
:105A300048D0FEE71C20002050F2FFFFB470002089
:105A4000E83200203CFDFFFFF849002010720020E2
:105A5000F872002064090000680900006C09000069
:105A600068730020506D0020B40500003C700020D9
:105A7000D06C002088720020E6740020F40500003D
:105A8000586B002018650020CC6700200C690020AE
:105A90007866002088630020A05A0020B809000022
:105AA000406A00207475002058EFFFFFBC0500001D
:105AB00070FEFFFF0404000018F7FFFF980D0000C0
:105AC000C06F0020FC4E0027249723972297FB48A5
:105AD000FB4922AB3A4632F0B7F9E063163630465E
