:1000000000000120C1150400EDCA0300EDCA030081
:10001000EDCA0300EDCA0300EDCA0300EDCA0300F8
:10002000EDCA0300EDCA0300EDCA03000776030022
:10003000EDCA0300EDCA030091A803002DED0300F3
:10004000EDCA0300EDCA0300EDCA0300EDCA0300C8
:10005000EDCA0300EDCA0300EDCA0300EDCA0300B8
:10006000EDCA0300EDCA0300EDCA0300EDCA0300A8
:10007000EDCA0300EDCA0300EDCA0300EDCA030098
:0C008000EDCA0300EDCA0300EDCA030046
:10009000F0B5BDB0044601252021159131F0B6FD23
:1000A0000646471C1CA80570307813901894601EF3
:1000B000D24BD4211A915958C0B2A4221092504365
:1000C0001B90081841F0DEFD1290007BF075707AED
:1000D000B17A09020C188B200F9080001990195CDE
:1000E00048421691484113211191C9011491595C5C
:1000F000179529404A424A41024300D1BFE020B24D
:10010000002800D5DFE00122AD200D908100C64817
:100110000E91405A002500052E460AD520463C384F
:1001200081B20B292E4604D8C0490840C04EC640B3
:100130001640169241F077FF3FF04FFF002803D0A2
:100140004078001F454245418421002E00D064E2E2
:10015000F3200C900226B448199A805C4242424136
:100160002A420CD10C9AD200AF4B9B5C33405A42CE
:100170005A410028179B00D01346002B02D1062CB1
:1001800000D949E2472C00D947E2169AD50264000B
:100190007C44A4886400A7443C07A90747004700A3
:1001A0002A09AD0684074002400240024002400294
:1001B0004002400240024002400240024002F90771
:1001C00040027D09400240024002400240024002DB
:1001D0004002400240026F09BE0511075606400268
:1001E0004002400240024002400240024002D1046C
:1001F000400240024002400240028B08BF08400A11
:10020000B8094002D50340025B06E10A4002400201
:100210005B044002400240022B069F0517071E05A3
:100220003A0B150BEB057B067F4E1A9C30591B9F32
:10023000C01941F097FD01D803F083F8149541F0FF
:1002400044FB169029460D3139A842F021FF0F35A5
:1002500042F0ECFA1590401C19903059C019007901
:10026000C01EC1B2284631F0D1FD1390002801D143
:1002700001F023FD00201B90199F02F024FC3EF0AA
:100280000FF9002800D1B2E1707DC007C00D00D089
:1002900035E71F2C00D8CEE1AE482018112805D82C
:1002A00001218140AC48014200D028E72046313886
:1002B000092805D801218140A848014200D01EE745
:1002C0001CA800210170A3482218472A01D903F075
:1002D000BFF8930001A0C0588746C0466B060000D7
:1002E0006B060000DD0600009B070000B70700005A
:1002F0007306000073060000513400005134000002
:1003000051340000513400005134000051340000D9
:1003100051340000513400005134000051340000C9
:1003200051340000513400005134000051340000B9
:100330003D070000513400005134000051340000EA
:100340005134000051340000513400005134000099
:1003500051340000513400005F08000049080000DB
:100360000104000001040000513400005134000079
:100370005134000051340000513400005134000069
:1003800051340000513400000104000051340000D9
:100390005134000051340000513400005134000049
:1003A0007B06000001040000E106000001040000DB
:1003B00051340000010400005134000045060000E3
:1003C00045060000513400005134000001040000D3
:1003D0005134000051340000513400000104000089
:1003E0000104000001040000DD080000B706000061
:1003F0000104000001040000010400001C20002092
:1004000009481A9940581B9941180C7949790902F1
:100410000919012901D803F01BF8472A01D903F073
:1004200017F804A2D25897461C200020FF0F0000A6
:10043000F10F0000AB070000AB070000AB070000A6
:10044000AB070000CB070000AB070000AB070000C4
:100450005134000051340000513400005134000088
:100460005134000051340000513400005134000078
:100470005134000051340000513400005134000068
:100480005134000051340000530700005134000083
:100490005134000051340000513400005134000048
:1004A0005134000051340000513400005134000038
:1004B0008B080000AB070000AB070000AB07000093
:1004C0005134000051340000513400005134000018
:1004D0005134000051340000513400005134000008
:1004E000AB070000513400005134000051340000CB
:1004F0005134000051340000AB070000AB0700008E
:10050000AB070000AB07000051340000AB07000050
:100510005134000061050000AB07000051340000B9
:10052000513400001D1C0000513400005134000003
:10053000513400009D1A0000311A0000AB07000082
:10054000AB070000C9060000AB070000AB070000C6
:10055000B31A00000080FFFF7F0003008303000048
:1005600018982FF0F1FF002801D102F06DFF202133
:10057000189C42F045FCC178007900024018EC4913
:10058000884201D901F0C9FE31210E01E949895B98
:10059000884201D001F0C1FEE748E64A105A88427D
:1005A00001D001F0BAFEE34840F02CFC0C3420AD41
:1005B0000B22284642F0A6FB6878002814D1A87ABE
:1005C000002811D020A84188808800044018DB4909
:1005D000491C884208D2D7498A19117C5218927B4B
:1005E000002A01D103F09DF8189C01F096FE41F01D
:1005F0001AFD04D1707DC007C00D00D07FE52046F4
:100600002138142800D97AE501218140CC480142E3
:1006100000D174E58D2109E08D21B878FA781202B5
:100620001018C34A904201D902F012FF18983BF00B
:1006300019F802F009FF0120A040FC49084200D04F
:100640005DE529E6F74840F07FFD0B2901D202F075
:10065000FFFEA679E7793F02BE19A419A47D0B34E9
:100660008C4200D8D9E602F0F3FE18983AF09CFFCD
:1006700097E018983DF03CF893E0EA481A99405802
:100680001B99411841F0C6FA427B842A00D18CE0C4
:10069000002A01D002F0DCFE41F0E7FB052901D27F
:1006A00002F0D6FE0C30007916224243501D8842DB
:1006B0007BD902F0CDFEDB481A9940581B994018AF
:1006C00041F050FB00D01FE116980128189C02D879
:1006D000204637F041FF1CA9204668E011215DE06B
:1006E000D04840F031FD052901D202F0B1FEA679D3
:1006F000E7793F02BE19A5192E7C002E55D00C3586
:100700000B3500240527002E01D101F03FFE3C46A9
:100710000C348C4201D902F09BFEEC5D032C05D019
:10072000012C01D002F094FE0E3700E015378F4205
:1007300001D902F08DFE761E179CE4E7B9481A999C
:1007400040581B99401841F02BFE032801D802F0B5
:100750007FFE42F0C6F9B34940F09CFC042A01D266
:1007600002F076FE41F048F88A78520604D541F04E
:10077000A9FDAD4AAB4B98520878AD49A94A515CE6
:10078000884201D002F064FEAA48A6490858002811
:1007900001D002F011FD02F05BFE0221189834F046
:1007A00011F9002801D102F053FE1CA9189815F088
:1007B0009DF802F049FE18983CF09AFF002801D1FC
:1007C00002F046FE97481A9940581B99411841F08B
:1007D00016FC0C18207C41F048FB491F0023814285
:1007E00001D002F033FE00281AD0082801D202F00E
:1007F0002DFE0C34E17A4A0016460836864201D9AD
:1008000002F024FE21460C318D5C6F00F619864201
:1008100001D002F01BFE20460D303AF0C1F82573DE
:10082000854880490A58002A07D08449189890477B
:100830000028179B01D102F009FE18982FF084FEC2
:100840004342434102F002FE76481A9940581B99F0
:10085000401841F0A5FD0128A7D802F0F9FD714824
:100860001A9940581B994218117953791B0259184B
:10087000032901D202F0ECFD41F04AFA927BD2004A
:10088000D21C8A4201D902F0E3FD002139911B9963
:10089000411841F0BFF9867B41F0E7FAF200D21C23
:1008A0008A4201D902F04DFD0C30C41C002E01D14A
:1008B00002F047FD20AD0822284642F023FA39A96C
:1008C00042F0E8FB002806D1399841F014FB02D130
:1008D000807938F0DBFD0834761EE7E751481A9935
:1008E00040581B99401841F05BFD022800D15CE79D
:1008F000032801D202F0ACFD01D102F0A9FDC0072E
:1009000000D052E702F0A4FD032901D202F0A0FDBD
:1009100041F0E0F8801C891EC9B231F077FA002856
:1009200001D002F095FD3F481999405C1690CBE646
:10093000F7FF00001C200020A2020000FFFFFF07BD
:1009400003041800012801D902F07EFD354F1A98E2
:1009500038581B99401841F005FA01D802F0F1FC13
:1009600040F043FF3078159020211898199131F00C
:100970004DF9441C007816908B208500785D002886
:1009800013D1B120C0002749085A4227074040062A
:1009900007D43F200001085AC00702D1284841F07F
:1009A00041FA402F01D002F03DF97078FE2800D3C3
:1009B000FE2024491B4B5A189070585C02220243B7
:1009C0005A54002014901B9A41F0EBFB0FD1F61CF7
:1009D00014481A99405880180079C01E41F0CAFE88
:1009E000002804D100223046394622F0D7FA41F0DF
:1009F0005FFA0B49884201D801F065FD179800287D
:100A000001D101F01DFE10480021064A1154505D2D
:100A1000012801D901F014FE0C4802F0CDFBC046BC
:100A2000F7FF00001C200020A20200007F002BE046
:100A30004C08000048080000140900000480000071
:100A40004FE90300A4070000A507000099E7030091
:100A50002027189842F08EF919908B208000FB4ACD
:100A6000115C1A9810581B9A801841F080FC022AD9
:100A700001D3002216920029179A00D0169A002A54
:100A800001D100F09CFF002901D101F0FEFE002001
:100A90001597FE49149A8D180124AC72199B597848
:100AA0009A7812025118E98019788906C90F69727B
:100AB000C007204600D00420E872002028730626D4
:100AC000189842F023FA297B99221201EF4FBA18A5
:100AD00089005158C90E0171297B890051581F2284
:100AE000D2060B469343017041F0BAFB190EC17058
:100AF000E97A4171592000013D5C2540C920800000
:100B0000385C44424441002D00D1179C189842F0B3
:100B1000FDF9002D159F01D101F0B7FE002C01D188
:100B200001F0B3FE4079012801D001F0AEFEED489E
:100B3000002218993DF080F802F086FC20241898D5
:100B400042F0E4F80546C078297909020818E64918
:100B5000884201D902F0F5FB28780007800F01D008
:100B600002F0EFFB6878A97809020E18DC481A99A0
:100B700040581B99411841F04DF8037B0A79497997
:100B800009028A188027022A19961B9301D202F0C3
:100B90004CFC0C30411C01D102F047FC501EC2B28B
:100BA000032037F01DFA002801D102F03EFC20A9F5
:100BB00038F069F8002801D002F037FC20A8067848
:100BC000471C002E01D102F02FFC384639F0D4F931
:100BD000761E0837F5E72027189842F0CBF8044630
:100BE00041788278B320C000BD4B1858284009D105
:100BF000631C9D78DB781B025B19BC4DAB4201D3B3
:100C000002F09FFB12025518B5491A9A89581B9A8F
:100C100089188A79CB791B029A188A18137B0028C5
:100C200007D1002D00D0F5E4607DC007C00D00D1D4
:100C3000F0E41593179519970C32551C0879401E4E
:100C4000C7B239AA284639463EF0A8FAD6211B90E9
:100C50000028139115D1149639AE318816980140A9
:100C60004842484138F0F6FC308814990840400862
:100C700037F07AFE308804210140880835F092FB75
:100C80000021169120AA284639463EF098FA1A907B
:100C9000002804D120982FF0CBFB002013901DAA30
:100CA000284639463EF03EF90546002801D101F0BC
:100CB000ACFBD6211B980028149101D101F0ABFBAD
:100CC0001A98002801D101F0A6FB002D01D101F0F6
:100CD000A2FB802601F0A2FB2021189C42F090F894
:100CE000451C0178890608D57F4BAA78E978090266
:100CF0008918994201D801F0A7F841F03BFA1DA9E3
:100D000040F052FF002801D001F007FB1DA842F07F
:100D100073F901F002FB724840F0C5F9102801D2C6
:100D200002F00FFB8A79CB791B029A188F183C4688
:100D30000C34A17B4A0013461033834201D902F0E0
:100D400000FB26460F36B25C511849001031814233
:100D500001D902F0F6FAE07A002803D0F12801D296
:100D600001F0A0FF8221189839F0FEFA02F06CFB26
:100D70002021189C42F044F841F090F85B4A9142DF
:100D800001D301F0CAFA5649199A895C002901D1A8
:100D900001F030FA411C0A7849780902891801D01B
:100DA00001F0BBFA52494E4A515C090705D4407D17
:100DB000C007C00D01D101F0B0FA494840F073F905
:100DC0008024022811D340F0D3FF0D310DD0401EF6
:100DD000C2B2042037F004F9002806D020A937F069
:100DE00052FF002801D102F0BEFC189821461EE4F3
:100DF00014961898159F41F0BDFF0646451C0478CF
:100E00004078B178090208181DA931F071FA002361
:100E10000028199501D100F039FF334E199941F09E
:100E2000B2F8B04206D81DA8032102221D463CF0AC
:100E3000E7FB2B46002B01D102F083FA18783FF034
:100E400009F802F07EFA00211898B9E01C20002071
:100E50000025209522481A9C00591B994018817939
:100E6000C27912025118461841F03BFE1990317BAD
:100E7000707CFE28169101D100F031FFFF2801D0CF
:100E800000F09AFF092300F02BFFC0461C20002031
:100E90002021189C41F0B4FF41788078000241186D
:100EA0001148814201D901F038FA19910C481A9978
:100EB00040581B99401840F061FF0079401E217B8B
:100EC00017910D3441F04AFB002801D101F0D2F90D
:100ED0001C3001D101F0D2FA282001F0D0FAC0462E
:100EE0001C200020BD5B0300F7FF0000F8FF00009E
:100EF00099050000ED4C1A9820581B99401840F0B5
:100F000031FF01D802F01DFA8179C279120251181D
:100F10004118087B1A900D31F84B39AD022628464E
:100F2000324698472024189841F0F0FE014620AF41
:100F300038461B942246F14CA0473F781DA829460D
:100F40003246A0478B208000EB4A105C312109011A
:100F5000555A022805D11DA80088854201D001F00C
:100F6000D2FA39A800888124854201D001F0C5F960
:100F7000E34EE148805D002801D101F0C7FA401D31
:100F8000C1B2189C41F0B2FF1A990170002545705A
:100F9000801C1DA9098840F0BBFBD74B9A5D0270ED
:100FA000D8495918401C954201D301F0BDFA04C933
:100FB000127842556D1CD04A925DF4E71898179943
:100FC00015F00EFE02F040FA2021189C41F018FFA7
:100FD00040F064FFCC4A914201D901F09EF90178BA
:100FE000890601D401F099F9457880780602C24B50
:100FF0001A98185840F09FF81B928B2292009A5C26
:10100000002A01D101F070FB8D2400271A9701F00E
:1010100049FFBE4933A80180B7491A9808581B995F
:10102000401841F0C7F90A2901D802F08AF940F0C6
:10103000B8F8B24D39AC0A222046A8471DA80822AC
:101040001B922146A8472026189F384641F05EFF94
:10105000014620AD28461A963246A84B9847287874
:1010600017900C25384641F0B7FF0746C520800091
:10107000A1490E460818169021461B9A3EF090FA98
:10108000002801D101F03BF939A83FF001F802280E
:10109000189C01D001F03CF939A83CF019F901F095
:1010A00032F92025189C41F0DEFC411C1691007895
:1010B0000F900020052803D039A941F0AFFAF9E7D5
:1010C0008D483FF0F0FF072801D201F026F98A7918
:1010D000CB791B029A188E18717C831F4A009342A9
:1010E00001D800F0D3FE002100F0D1FE824E1A9C00
:1010F00030591B9A801841F053F9042801D802F0A6
:1011000020F983497D4F39A815460822B847305940
:10111000401940F046F81DAD04222846B847202764
:10112000189C204641F026FE014620AE30461A9714
:101130003A46724FB84730781B9033AE02223046A1
:101140002946B8470C2141F0D1FE05463120000167
:101150006949085A3688B04206D030463EF0A5FFAD
:10116000022801D001F0F3F81B9C1DA88778022FFC
:1011700001D201F0D5F8C52080005F49091839A8CF
:1011800041F0FCFD8026274601F0E9F861485A4904
:10119000085C002801D100F00FFC1A9808581B9930
:1011A000401841F0FDF80B28189C01D801F0B5F863
:1011B00012990C3139AE0C2242F0A2F87078B17855
:1011C000090209185048814201D901F0A6F81B9183
:1011D00039A8C01C4E49082214903EF0E1F90028BD
:1011E00001D102F060F92A20C0431690474F012038
:1011F000000219903DF0DEFE1A9020A820301590D4
:101200001DA8851C0026F0B21A99884201D302F06D
:101210004AF920A92BF0FEFD002833D020A801892F
:101220008A0405D540891B9A904201D102F036F913
:1012300019980142179C1B9B26D108061DD5072033
:1012400001401DA801701599097841702099219AD3
:101250002A712970130EEB71130CAB71120A6A71AB
:101260000A0EEA700A0CAA70090A697035F026FDA8
:101270001B99884201D102F010F9002C189C01D171
:1012800002F00CF9761CBEE7169823304442444124
:101290000028D2D020AA1218128EBA4204D020AA56
:1012A0001218528E9A42C8D0001DEFE71C20002071
:1012B00011481A99405840F0E5FA012901D802F086
:1012C00040F88179C27912025118461841F0AEFAFD
:1012D0000178169144788578377B3EF04BFD717B21
:1012E0001991884201D800F095FE3EF043FD19990E
:1012F000401AC2B200F08FFE1C200020E50404005A
:10130000B8080000A4080000F7FF0000FFFF00007D
:101310003C6B04001D0300002021189F38461791E4
:1013200030F074FCFB493FF0B5FE012A01D801F012
:10133000CFFE421C9378D2781202D218F64B9A4212
:1013400001D901F0C5FE03780C221A4001D001F04A
:10135000BFFE149340F0B6FF139040F050FE091802
:101360000C7B0D3120AE0122304619923FF0BAF8C5
:1013700035780521384616912DF09EFF04708421A2
:10138000129041708B208000EF49085C01281B9A65
:1013900001D901F0DCFC0023129E737097208400B9
:1013A000085DB070F5701594085D854201D301F0B9
:1013B00020FB002D1E4601D101F084FC4721C9000D
:1013C000E14A515800263246072E01D901F079FC36
:1013D000AA4201D101F075FC2F461C460B78199DDD
:1013E0002B40D2182346761C491D3D46ECE7D649D2
:1013F0001A98085840F046FA032901D801F0A1FFD5
:1014000040F084FB0D30209039AD20A928463FF0F4
:1014100022FF209804782021189F38461A9130F036
:10142000F5FB0178179140F057FD199005213846DA
:101430002DF042FF0746067000260671312000019C
:10144000C149085A2988884201D000F070FE002C5A
:1014500001D101F059F9BE48BB4A105CBD49511891
:10146000002801D101F011F804C913789C4200D082
:101470003246401E1646F3E7012800D99CE2B648E2
:10148000002218993CF0D8FB002801D001F0E0FFC1
:1014900001F0DAFFAC491A9808581B994018817975
:1014A000C2791202511846182021189C20461B911F
:1014B00030F0ACFB054600781A90307B19900D3661
:1014C00020AF0222384641F0D3FC872000019E491C
:1014D000085A39880140398001D100F01EFF0421EB
:1014E00041F004FD1999017000214170801C20A970
:1014F00041F0CEFD6878A97809020A181B981A995C
:1015000001404B09F54801F0B7F98F4D1A9FE85992
:101510001B9E801940F032FC20211898169130F063
:1015200075FB05460078159019940D3420A8092202
:1015300041F0E8FB8448C059801940F031FF0A2887
:1015400001D201F0FEFE2F466C1C40F0B1FCE649D2
:10155000884201D301F0F5FE40F08CFE3EF0BFFD65
:101560008B218D007849495D022903D1002801D0E3
:1015700001F0E7FE1B94C52080007349081820A9DC
:1015800041F07AFC0028179E05D0D84920A841F0E8
:1015900073FC46424641B87BF97B09023A460F1874
:1015A000507D1390D14920A8082422463DF0F8FF31
:1015B0001290384636F06CFC0746401E3946814191
:1015C0001A91002F01D101F033FBC84920A841F046
:1015D00053FC00280DD0C64920A841F04DFC00283E
:1015E00007D020A81DA940F0D1FA002801D101F0B0
:1015F00034FF78427841002F02D1012171401791C8
:10160000002F199D01D07B21CF43189C17990029E9
:1016100001D100F082FE01F01AFB4B481A994058A4
:101620001B99441840F03FFC012801D801F089FEC5
:10163000A579E67920211898139130F0E7FA40F067
:101640002DFC424A914201D901F07BFE02780C2127
:10165000114001D001F075FE129231024919611852
:101660004F7BA44B384AD25CD41B0025BA4200D22F
:101670002C460E7B032C00D30324401C1190152014
:10168000149060431090411D18982DF015FE0670BF
:101690002B4645702C4A9749515C8170C770047184
:1016A000451DE0191590944816181A46F8B2159978
:1016B000814201D800F03EFD169217931997F16808
:1016C000C700C819C479C52080001F49091808221D
:1016D00041F0ACFCB06803216143405C2872B06803
:1016E000401841788078A8726972F068C0198079D2
:1016F000E872032812D00128169A1FD1B920C00021
:1017000011490858C01901794079687329730E226C
:1017100014E0C0461C200020F7FF000028460C30D3
:10172000B921CC0008490959C919097930F0A2FD3D
:1017300005480059C01940792875149AAD18179BAF
:101740009B18199F7F1CB1E71C200020F7FF0000A9
:10175000B8080000A4080000B95202002A20C643BD
:1017600066481A9940581B9940F085F82021189C2A
:1017700041F046FB2B7B6F7B2A36002F02D00B2FCC
:1017800000D822E3002C01D101F05EFE401C8178DC
:10179000C278120251185A4A914201D900F0BDFD97
:1017A000017840780202204654182A211D4630F064
:1017B0002DFA2B4600212A2901D100F00FFD40F01F
:1017C00025FFF8E7002801D101F0BBFD41F089F9C0
:1017D00040F064FB4A4A914201D901F035FE00789D
:1017E0001990464C1A9820581B99411840F012FA4B
:1017F0000D300979491EC9B20026324627F066FF2E
:10180000002801D100F09CFE802700F0A1FE2026D8
:10181000189C204641F07AFB40F040FB324A91424E
:1018200001D300F07AFD4178827812025718334DC7
:101830001A9969581B9A8A1840F056FA0C7B314B5A
:10184000EB5C1B0709D4002F01D0FEF7E3FE437DBC
:10185000DB07DB0D01D1FEF7DDFE19971B960C317E
:101860004F78402F01D901F06CFD40F069FB921ECA
:10187000BA4201D201F065FD891C0078169020ADB6
:10188000284641F0C7FB41F011F90470002646706C
:101890001796002F01D101F015F82C782820214649
:1018A0003EF0C8FE2938092800D97CE001A1085C77
:1018B000400087440415464F78580878782B1898CC
:1018C0003CF046FB6FE0312000010C4A115A0E48F3
:1018D000125A18983CF0D4FE65E0C046158000000E
:1018E00018983DF04DFF5EE0F8FF0000446B0400E7
:1018F0003C6B0400BD050000BC0500001C2000205E
:10190000F7FF0000990500006E0800008B208000A2
:10191000F94A105C411E88411499515C08404907FE
:1019200000D5801C39A90880FC490E9A895CC9073A
:1019300002D0001D39A90880322141F06DFB39A980
:1019400006E02B2141F068FB8D218900F34A5118F4
:10195000022226E02C2141F05FFB23210901EF4AFE
:10196000511804221DE02E2141F056FB1A90EB4E37
:101970000E99715A0A0A04231340E948325C520155
:10198000164628461B9D2E4005469B1940261640AC
:101990009A19179EC905890F521839A90A8002227F
:1019A0001A983EF09FFD2A2C03D1C3208000DB490A
:1019B0000E526D1C7F1E6CE78421FEF737FE021D60
:1019C00040F068FB4118087BD64BD44CE0540D31F5
:1019D0001078401EC4B21E2041F0CAFB002801D17D
:1019E00000F053FF4178891CA14201D300F04DFF64
:1019F0008178CD4DC94A51554A00121D631E9A4245
:101A000001D300F042FF159799221201C34B9C1895
:101A1000C61C00278F4201D300F031FF042220466C
:101A200041F026FA361D7F1CBC48415D241DF1E7BC
:101A300041F057F80178890604D540F04DFA01D1FC
:101A400000F0B4FEB948B549081841F045FA04461B
:101A5000B748844201D101F074FC20463DF030FDCE
:101A6000014620AD2C2241F0E1FA28356878C00704
:101A7000C00D01D101F065FC20AD2846183039A910
:101A800041F076F92A980821C943F839014029859F
:101A9000284621462BF01CFC01F053FC3FF0E9FFE7
:101AA0008218537B2A20C043922B00D166E32A3050
:101AB00065E33FF0DEFF8518002436943594687B9B
:101AC000002801D001F03DFC881E0E3540F036FEA6
:101AD000002801D001F035FC002D01D101F031FCCE
:101AE0002220294641F0E2FA002801D101F029FC28
:101AF0000746811C1DA81A9008221B928D4B9847FF
:101B000039460A3137A81B9A8A4B98473946123111
:101B100036A804221992874B98473946163135A8C2
:101B2000199A844B98471A3733A839461B9A814B28
:101B3000984702211A981A9133F022FB1B90002833
:101B400001D101F0FEFB3B943A94399439AF1697DA
:101B500008372220294641F0A9FA17901DA908222A
:101B60001992169E3046734B984735A9042538467E
:101B70002A46704B98471A983073374631AE36A9CB
:101B800030462A466B4DA8472B461B99083120AD9D
:101B90001022284698473198209941402970707842
:101BA000219941402971B078229941402972F078F9
:101BB00023994140297331AE0096162328463946B1
:101BC000179A38F021FA33A93046199A3DF0E8FC0B
:101BD000002801D001F0B5FB1DA841F07DF9369930
:101BE0002B2252014D4EB35800011B180D0EDD7112
:101BF0000D0C9D710D0A5D711971B1580818C17AEB
:101C000009064D4A521C0A43110EC1724B48345406
:101C10004B48214641F078FB01F093FB16980128D0
:101C200002D8189836F098FC2024189D284641F0D8
:101C30006DF8014620A8224640F06CFE1DA8002643
:101C4000068036481A9940583FF075FA19924F7B32
:101C5000002F0ED10C310079801E8D1CC4B2284695
:101C6000214630F0D3F88F27002801D100F032FE52
:101C7000189D3E2141F02AF9044619993E2E01D1C2
:101C800001F066FE0020A055761CF7E713963C4055
:101C9000601E21468141A878EA7812021018294A6C
:101CA00016469042179A00D80A46002A00D1A5E2AB
:101CB000B04201D9FFF7B2F8B3E23059C019017947
:101CC00036A8009020AA31AB28463AF05DF90028EA
:101CD00000D1E5E300201B90199F00F0EDFE0723E3
:101CE000179D1B9A0D490959891840F0BEF800202C
:101CF0008B4203D9074602E01C200020012734460E
:101D00000C340D363D40012D1ED1A01D1A9020A887
:101D1000042241F0ADF8209817E0C0461C200020B6
:101D2000D2020000880900008D09000004050000AF
:101D3000FFFF0000E5040400FFFFFF07AE05000001
:101D400035100400F7FF00001A962A21CE431B909D
:101D500037F0DEFA2A36002D27D06279FE2A17994D
:101D600000D10146012918991B9822D11F23DF06B3
:101D70000546BD431DD031210B01F949CB18197C13
:101D800059188C7BC10E8C4201D001F081F9FF2AD9
:101D900001D101F069F9FE2A01D001F0A6F91A99E2
:101DA00009782EF08BFF01F072F93846189F01F088
:101DB00071F90F4601F06DF906281B9A00D2012532
:101DC000062800D258E306238CE719931690BA0030
:101DD000931CE3491A9C09591B9C09190C794979F0
:101DE00009020C19A34201D901F0ABFA29460E31C0
:101DF000885CFF2800D1131DFE2801D10323134363
:101E0000A34201D901F09DFA8A18FE28189C01D03E
:101E100000F0ADFF012F199B169800D0B2E457785F
:101E200020A841F07FFA209E304637F071FA002852
:101E300000D172E2700100D16FE2304639462EF0D7
:101E40003DFF064601F0ECFA19902A20C043169097
:101E5000C3481A9940581B9940183FF0E1FE0D37CE
:101E60000079401EC6B2384631462FF0CFFF0446F7
:101E70000220394641F01AF9002800D1E7E38078C2
:101E80004538414241410020169BE3E3012137469A
:101E90001237BB5C801AC01F5A009042179800D3BB
:101EA0000846012800D138E20B950C3630780A90AC
:101EB000711C20ADA81C022441F018F9F11C281D4A
:101EC00041F014F975796C00395D169A1078099013
:101ED0005078089090780E90D0780D901A9148190B
:101EE0004006010E18982FF091FE002D19951490C0
:101EF00004D02A4639463CF063FD07461A9A002A68
:101F000004D0791C149800193CF05AFD31200101CD
:101F100093480691405A20A9498888420C9104D0E0
:101F20009048814201D800F058FD8F488C490A5CE6
:101F300020A8858814980019139000231946079348
:101F400011921095914201D101F0F2F9129188009D
:101F5000834908188549415848781B9189780902B6
:101F60000818A84202D08248854250D11B98807937
:101F7000179000210D46179881421ED2E8071CD108
:101F8000169148001B990E1808360024149F254608
:101F9000199884420ED2E8070CD13EF0D9FE06D142
:101FA0001B980278D9B239A83AF004FD0346641CA4
:101FB000BF1CEDE71699491CDDE71B98C079159009
:101FC00000211598814220D2E8071ED1179816915A
:101FD000081840001B990E1808360024139F254648
:101FE0001A9884420ED2E8070CD13EF0B1FE06D119
:101FF0001B980278D9B239A83AF0DCFC0346641C7D
:10200000BF1CEDE71699491CDBE7119A109D129948
:10201000491C97E700222802032A00D30322001953
:10202000149016205043411D189815462DF044F980
:10203000064615970770002444703DF09BFE2A4623
:10204000B0701999F17035711396771D23462646A5
:10205000132E60D810065ED0FF20850040484059FE
:10206000005DC00754D0D8B2884250D31A931B9257
:10207000892080003A490918082240F0C3FE3846FA
:1020800008303749495909198A7920A933F00CFBDE
:10209000334B20983874000A7874B87CFC210140D6
:1020A000B9745959095D4907890F8C220240881873
:1020B000B8745959091949784907490E0818B8746C
:1020C0005959095D0C9A1040490708D40421084366
:1020D000B87458590019417B0120084008E0B874D1
:1020E00059590919497BC907490F0143B97400209F
:1020F0001B9AF8745859005D4006000F38755859FE
:102100000019C0787875521E163719991A9B5B1CF6
:10211000761C11349CE71598139908701798169936
:1021200001404B0913481899149A01F08BF981204A
:10213000787030E3D8B21099884207D2401A084923
:102140003EF0A8FF10180871000A4871119940F07C
:1021500050F81398129901404B09074800F081FE8E
:102160001C200020F7FF0000B8080000A4080000B1
:10217000FFFF000031800000338000002730002B7B
:1021800000D109E10024011D00D13FE2002800D068
:102190001FE1002C01D100F007FE20462830282640
:1021A000A15D407800024018C10501D500F064FE31
:1021B0002146183139AD102240F038FFA05D80066D
:1021C000400F0022032100AB27C304921DA820A9C1
:1021D00001231DF08FFD189C01F037FA711E8E410E
:1021E000F10141700370C4842821012242541898DF
:1021F00000F078FF8D212046FEF719FA1DA83DF06A
:1022000088FF002802D0C07A00280AD01DA840F01C
:1022100093FD002805D0274600228D201B9000F05A
:10222000AAFF1594F8481A9940581B9940183FF096
:10223000A5FD0D340079401EC7B2204639462FF067
:10224000E5FD002201461C3100D1AEE3002800D09C
:10225000ADE337A800211A91017039AA20AB2046BE
:10226000394637F0D5FD002801D100F054FFD724BE
:1022700000F07EFFD62700201690002C01D100F040
:102280005EFE2120214640F011FF002801D100F020
:1022900056FE0646811C1DAF0824384640F026FF36
:1022A0000A3637A8314640F021FF0221384632F085
:1022B00067FF002801D100F041FE0646044628349D
:1022C0002A462825405D61780902081800271492E3
:1022D00010420FD11DA840F0FFFD0146705D6278ED
:1022E00012021018149A10437055000A607030469C
:1022F0002AF0EEFF189C00F024FE054606E131208E
:102300000001305A189C33A90880DD49884271D1F8
:1023100013980007800F00D110E1204601F012F859
:10232000002F06D08B208000D449085C022800D002
:1023300062E339A940F0BAFF002801D100F068FC3F
:102340000020082803D039A940F0F8F8F9E71398DD
:102350000007800F01D000F0F4FF81261B9F199821
:1023600028706E70A81C39A940F008FD0A3533A901
:10237000022240F05BFE20A84178807800024218DB
:102380001A9807407B09BF4800F06BFDE40701D0B5
:10239000FEF743F801F05CF80C32941C881E40F004
:1023A000DDF8002815D127208501B44843594C3366
:1023B0001DAA2046314637F02BFD002809D1B2482E
:1023C000AE4908181DA940F057FD002801D101F0C1
:1023D00047F927208401A948015900221898E42AC6
:1023E00002D040F05BF9FAE7A4490A59FF21517085
:1023F00000F0A8FF39A8007A022800D2EDE1139876
:102400002840082889D080261FE21DA8008838F0BF
:10241000B5FB0020149040F09FFD00261B9847421A
:102420004741247840F042FB1599017046701A9894
:10243000002800D17F1C002D00D17F1C002F00D16F
:10244000DEE30221189E40F033FE00210170790086
:102450004170012140F02CFE002800D1D0E307702C
:102460001B98002800D197E21A98002800D1BBE3FE
:10247000002D00D0C4E3BEE3072333E42920C74383
:10248000189C179D002600F05DFD002E00D03EE157
:10249000002C03D0FF2C01D000F035FF822047E64E
:1024A00031A8057836A8067837A8009020A81DAB7B
:1024B0002946324626F072FE0028199F00D1F1E22B
:1024C00000201B90F8E240F0F1FA002141701599CC
:1024D00001706A49495D0229149901D37B21C943DE
:1024E0004170664A505D012802D868481899115415
:1024F0002078617809020A181998169901404B0949
:10250000634800F0AEFC39A8058880240521189E98
:1025100040F0DEFC1A99017044703446801C294654
:102520003FF0F6F80021017020A841788078000281
:1025300042181B9807407B0956489DE1812684E19B
:10254000272080012058817A8627022900D888E236
:102550001A9B4A48C0581B9940183FF093FB3546D8
:10256000067B0221189C20461B912CF0A5FE0670CC
:102570002E464770002D08D0272080013F4908587B
:10258000817AC27A20463EF061F81D2140F038FC85
:10259000054600201D2802D03FF0B0FFFAE70020DA
:1025A000687028701B98E8733B4843308021E972BB
:1025B000A872287C042101432974199880060ED43E
:1025C00036482E49095C20A83AF09AFE297C7F20E3
:1025D000C043084320996975090AA9750AE02720B4
:1025E0008001264908588178FE220A408270287CA2
:1025F000169908432874002E189902D028481F4ABB
:102600001154284800F0D9FD1C2000200421189CFA
:1026100040F0F6FB0021018027218901174B595812
:10262000897801220A40827003D01C49595C3AF033
:1026300067FE1D48A5214A0040F0AEFD00F004FFF2
:102640001898002801D000F07CFE00F0FDFE169BDB
:1026500018462A300443199A01D1204601E000208F
:10266000C043002C00D117911799C90700D1184613
:102670002827002C1AD1264619E0C0461C2000202D
:10268000FFFF00000180000004050000A507000016
:1026900036800000058000000280FFFF2603000056
:1026A000AA070000B5380100F5AC0200FE43002C7B
:1026B00001D1034600E02833189C18462B3000D186
:1026C0007BE1D81C00D176E1002B01D0FEF715FB91
:1026D0003FF050FD39A92FF00BFE8B24002801D1CB
:1026E00000F06EFD199A69E119960C310079401ECF
:1026F0004E1C40F03FF880240021002800D15DE30B
:102700001A910F46199ECDE3DF48E0490E18B079C3
:10271000F17908184000083000257D70169738714F
:10272000C1B240F0ABFB0746082240F0A1FBB079F4
:10273000B871F079FC1D1B97F87120A90870374615
:102740000837B079854207D20222204640F0DAFDF0
:102750006D1CBF1CA41CF4E70446169FE1B2C0B276
:10276000F279101888420DD9E8B240001B9A10186F
:10277000083049007118083140F08AFC6D1C641C57
:10278000B079EBE71B99887940000818C01D20A993
:1027900001223DF0A7FE1A9C199D179EB81C39A96D
:1027A00040F076FC26407309B94887E0B7483EF010
:1027B00029FB3FF098F8002801D000F0C2FD2D2041
:1027C000214640F0C5FC002801D100F0BAFD811C73
:1027D00039A840F0CDFAFFF735F90026002834D0AB
:1027E000012140F091FA05463BF0E6FE28708B206F
:1027F0008000A649085C012827D831200001085A2A
:1028000033A908801DA8082216993DF06BFE2846C2
:102810002878002819D039A9497A441A00261B9132
:10282000884200D23446212C00D321246000411C70
:1028300040F024FB1B990170401C379037AA0846D2
:102840002146189C31F07AFC2870199838707E70F7
:10285000B81C1DA940F092FA0A3733A9022240F0B1
:10286000D1FA20A841788078000242181A98179D62
:1028700005406B090120C003214600F0E3FD00295B
:10288000159F02D03078FEF703F9199A50789178A5
:1028900009020D18147840F009F9F921C9007B4AA2
:1028A000525C521CD3B2FF2B00D10022774B5A54FA
:1028B0000270802141703C406309764818992A468D
:1028C00000F0C0FD1B98169901404B0972481899F9
:1028D00000F0B7FD1DAA284621463BF0A9FE1F20A7
:1028E000294640F045FC002801D1FFF7C1F94178A5
:1028F000032901D2FFF7BCF9817839AA1170C17898
:102900005170017991704079D0703821189834F065
:1029100065FB17905D481A9940581B9940183FF085
:1029200085F94631202040F023FC002801D1FFF733
:102930009FF916904078032801D2FFF799F917986C
:10294000801C169DA91C40F0A3FB287917990871DB
:10295000687948716978C91E032242439142189DE3
:1029600001D0FFF786F916998E1D179D09350027AE
:10297000092F01D900F0C8FF874201D300F0C4FF3E
:10298000E81E022240F074FAB07828707F1C179875
:1029900040796D1DF61CEBE732211898169A3BF032
:1029A00083FE002800D02BE15EE5D62000E0D72092
:1029B0001B90159FDFE3344600E080242878697877
:1029C00009020D18D67D0421189F40F059FB05809F
:1029D0008670C47031483946EFE38B2080002B4964
:1029E000085C0023022800D03DE28020079000F020
:1029F0009FFC12980371B2E10026012F01D0FEF76F
:102A0000C2FB0128274600D9A9E4C5208000091887
:102A100039A840F0B3F9012140F030FA17903BF0AB
:102A2000CBFD17990870002800D198E41DA9CF7834
:102A3000C11B0026B84200D23146212900D32121F2
:102A400016914800411C40F019FA0770401C37905D
:102A500037AA3846169931F071FB17990870FEF7BE
:102A600092FB0F4AA25CCA40D1071A9B00D170E5C5
:102A7000B121C900054A515A0027490701D500F084
:102A800049FC179E65E5C046770800001C20002021
:102A9000048000003C8000004480000009F5020032
:102AA000B809000020A833A93FF070F800211B915D
:102AB000002801D100F013FC3FF0B5FA20A92FF057
:102AC00017FC002875D015980678042118982CF06A
:102AD000F3FB04461698207031200201EE48805A1C
:102AE00039A90988884253D100256570387A797AE6
:102AF0000902081803284FD0022800D0A5E115923A
:102B00000D2140F0BBF90746F848F7490D1802229D
:102B10001692384629461A95F54B9847A878B8700A
:102B2000F81CF449F04A5118169D2A46F04B984774
:102B30001A9840797871B81DEF49EB4A51182A4626
:102B4000EB4B98473846083087210901E64A51186F
:102B50002A46E74B984738460A30E849E24A511876
:102B60002A46E34B98471A98007B3873AD208000C3
:102B7000DD49085A1499084200D064E11B980028E6
:102B800000D142E1817AC27A18983CF059FE5AE1AC
:102B900081206070002558E10225189829462DF003
:102BA0006DFED749D04A511840F0BAFBD548451CB4
:102BB0004BE120A840F0C0F8002884D0024628321B
:102BC0002823C15C55782D026D1814990D4200D050
:102BD00079E7CD49C44E715C149C2543C5542B0A3A
:102BE00053702AF075FB6EE72C211898139A3BF06E
:102BF0005BFD284304D12B211898149A3BF054FD17
:102C0000199804406309C1481899179A00F01AFCF2
:102C1000012F00D07CE2012140F030F9002606703F
:102C2000FEF7B1FA8020149000201790FDF7CBFE3C
:102C3000AD48405D002800D109E3AB481499405CE1
:102C4000204000D003E300271A9717AD31CD0C3593
:102C5000002E18D0AE48A449085C800701D4FFF7C5
:102C60005CFB2E461A9800280BD120A8007AC009D8
:102C7000A8499D4D6A5CFE23134018186854A64865
:102C80002C5435461BE30346A4489749095C0020B1
:102C9000042800D1F0E2012282400A4200D1EDE294
:102CA000401CF5E79E499048455C002D00D18FE31C
:102CB0009C49405C002801D100F0E6FC8521FEF72C
:102CC00052F81B9A169F7743072E3AD8834238D280
:102CD0000E2B36D819964721CC00834E3159C95D49
:102CE000C9072AD05B1C1693052140F0C7F805469A
:102CF0003059C019C1780079687029703059C05DA9
:102D00004007800FA8703159C95D10220A40101881
:102D1000A8703159C95D179A11400818A870305928
:102D2000C019817820A83AF0EBFA169B1B9A2098DC
:102D3000E870000A28711598305C199E761C7F1D7A
:102D4000C2E7129948780B710028674907D01A9892
:102D5000085880183FF02EFBC91E3FF0DFFB179884
:102D6000149901404B0970481899139A6AE3FF2897
:102D700000D13AE3052800D952E3012F00D04FE3F8
:102D80000546577820A840F0CDFA20991798009072
:102D900020462A463B4629F0D3FD0028199B169869
:102DA00001D0FEF7EFFC4FE3272080014E49085881
:102DB000C07AFF2800D1A9E20320A8E21694002ED1
:102DC0006CD0232031463A4635F00AF9002865D008
:102DD000811C20AC082620463FF0BEFF5349204608
:102DE00040F058FA002859D0514920A840F044F842
:102DF000002853D020A83FF09FFF1A90002801D14F
:102E000000F012FE0024179F7CE413981C3007D1B9
:102E1000B320C0003449085801214905014012D1AE
:102E20008B2080003049085C002804D10021FF225B
:102E300018983DF00BFC2C481599415A2E4A825A9D
:102E400018983BF01DFC199F3A4DA01C39A940F081
:102E50001FF93878797809020A181798064073091B
:102E6000A8B21899EEE21C460C983DF038F90128FA
:102E700000D159E27E2058E28006400F27218901C7
:102E8000194A51588A7A002A00D104E3C97AFF29E5
:102E900000D1CDE30321CCE31C20002000271A97AA
:102EA000199E169C76190221189D40F00FF81B9967
:102EB00001704470002F12D028201A99085C8106F6
:102EC000490F1B9107270740242128463BF0C4FBEC
:102ED000044620A93FF052FF1B98207267721648E3
:102EE00029463246179BADE21C20002068080000EE
:102EF000E50404006B0800006E0800007208000082
:102F0000750800000280FFFF3105000043800000CB
:102F1000590800002D040000A90700002C0400003F
:102F2000BC080000E2080000328000003C6B040096
:102F3000446B040002800000428000008627189C39
:102F4000169E179D02213FF0D1FF0570477038068D
:102F500000D085E016961DA8022631463BF01CFFE6
:102F6000054600200D2803D039A93FF057FBF9E7AB
:102F7000C5208000FE4A111817461791FD4B39AC49
:102F800008221592204698472B204301F8581293A7
:102F90002D014019817BC27B1202511813913B9184
:102FA0002673491C8173090AC173F858411933AE5D
:102FB000042214923046EF4FB8471699083120ACDE
:102FC00010222046B84733982099414021707078EC
:102FD000219941402171B078229941402172F078C5
:102FE0002399414021731298E14908584119405DE5
:102FF0003DF05EFE339013983190222140F00CF8A2
:1030000004461799159E3246B8472046083037A91E
:103010003246B8472046103033A9149E3246B8478E
:103020002046143031A93246B847183400201B9A84
:10303000082802D03FF052FAFAE7CD4D1A982858E6
:1030400080188179C2791202511842180E32009408
:1030500020A839A9162336F0D7FFC748189C2C544E
:10306000C64800232146ECE139AE40F033F93998E7
:103070003840401939901A98411C1DAF02223FF088
:10308000C1FE601C3A88C0B231462FF0A5FA064650
:10309000189F1798002818D01998401C8178C2787A
:1030A000120251180822D243521C92B291420CD201
:1030B00001784078000244182A213FF0E1FF002106
:1030C0002A2907D03FF0A2FAFAE7002F00D1BBE18E
:1030D000384637E1711E8E41F10141701699017039
:1030E000C484384634F0B6F9AEE1052A00D9D0E1FF
:1030F0001A98037800240094189F38461B9929F0E9
:103100001FFC00281798C5D1204626462746C1E750
:103110000026FEF738F839A837A93EF037FD92248B
:10312000002825D137A8077838463AF0A9FC0028AE
:1031300004D1384635F068FC002819D004460C301C
:1031400020A920223DF0CEF9DC2000272754217849
:1031500039A82FF08FF81A946078032801D000283E
:1031600005D11A98807A022801D800F02DFC0D9C18
:103170001B94159F1A9A1446139E707D00028005B9
:10318000199901D531461A313FF03DF8F67D0E21EF
:1031900018982EF03BFD058086701B99C170790947
:1031A0004171002C03D0A178169A11400171801D45
:1031B0001DA93FF0E3FD7248189933F0C3F843E1CD
:1031C00039A83FF0B9FD002801D1FFF78BFA3EF096
:1031D000B7FD199A01D1FFF7F1FB20AC2C2240F08A
:1031E0009DF82046183010213CF02BFF2046283057
:1031F000E15D3FF0C3FA634AF83A0A40E255110A2A
:10320000417039A83FF068FE014620462AF060F878
:103210003EF0B0FF1DA93EF0C7FC002814D15A486B
:103220001899534A11541DA804785B200001105AC4
:103230003FF058F9554808180F21090337F074FE7C
:10324000024653483FF0A8FF3446FFF74BFA139865
:10325000C007C10D20A8002900D0F4E4129900296C
:1032600000D1F0E40057002800D5ECE401207040C4
:1032700001D1FEF7AAF9E6E48A2720E0002B1ED050
:103280001143444A3A4B9A18117429788000131854
:10329000D9701B9D297826466C782402611811523A
:1032A0009E7009213FF056FD044620AD08223FF0F4
:1032B0001FFF287AC0092072374831467DE7022176
:1032C0003FF014FE2978017047701B993EF091FF82
:1032D0001698159901404B093048FFF7CDFA33A8ED
:1032E000007835F091FB002801D1FFF7E5FB8178EC
:1032F00004220A438270C57006711D998172379944
:10330000C172FFF7DEF88320FEF712FF0220189C3F
:1033100000218FE1C07AFF28179E01D0FFF719F92D
:1033200000260F9FFFF715F97620C043079023462C
:10333000002B0AD10D9800020E99401811498842BD
:1033400003D9189828F024F97EE00898000209991A
:1033500044181E46591D18982BF0AEFF0546094823
:103360000C9981421CD902480699405A19E0C0467E
:103370001C200020E5040400AC070000478000008A
:10338000F9860200F7FF0000AD070000FF3B0000D8
:10339000E9BD03001C04000005B7010034800000F3
:1033A00008461DA90880A81C3FF072FE0A982870E4
:1033B00032462E71681D39A93DF094F8079868705F
:1033C0000B980F9901404B09FA481899224639E0A9
:1033D000189C44540146F848085C42224243F7488E
:1033E0003FF0DAFE3FF050FD2EE016460C3539A8CE
:1033F0003FF098FF00246878844205D220A839A9BC
:103400003FF090FF641CF6E7B11C1DAE02223FF0B6
:1034100077FF6878328820A92FF0DEF80646189CDE
:10342000199B1698FEF7AEF900272D780221189EF9
:103430003FF04EFD1B990170477025406B09ED4828
:103440003146199A33F06EF81CA80378002B02D18C
:10345000189828F09DF83DB0F0BD1DA80078002117
:1034600039AA26F0C5F8002801D0FEF7C2F8E248D4
:10347000405D012801D9FEF7BCF839984078400733
:10348000400D01210902884201D0FEF7B2F8FFF792
:10349000DAFB0026FCE50021CBE0189CD74800228F
:1034A0001B993AF0C9FB8B208500D348405D00276B
:1034B00001283AD80028149E0ED031200001CE49B0
:1034C000085A1B99884207D11B98314623F058F9B6
:1034D000293001D1FEF721FF20A91B982EF008FF0B
:1034E00000286DD0C448405D01281FD820213FF03E
:1034F00087FC817BC27B120251181B9A891A4F42AA
:103500004F41BD49495D012910D8017C1A913346CC
:10351000467CBB493FF0E2FA002806D037A9149850
:103520003EF034FB002800D124E2149E002437AB87
:1035300030461B99224616F0D1FE00282BD1002FD1
:1035400029D0002720971DA91B983EF02DFB0028AD
:1035500000D0B8E21DA8007820AA179926F048F8F4
:10356000002800D0AFE21997209A117850784007D0
:103570004B079E0F1A964906002B03D4527B01235A
:1035800013401993420F080F16901A98032800D081
:1035900022E1179C25E1002F2046214622461A945D
:1035A00000D190E21691199039A8C77A9248405DEF
:1035B000012813D8032A11D1B8071BD502201AE01D
:1035C00020A808223FF0B8FC00288BD01B98314679
:1035D00023F0D6F8293085D1FEF79FFE04201792FC
:1035E0001043052808D1119840018349085C401C0C
:1035F000169001E0032017901A98022806D10020A7
:103600001990002C1B9800D03EE142E1002C0DD017
:10361000042017990843052808D11A98012800D0DA
:1036200031E17848744A115C491C11541B9830E10F
:103630000221189C002200AB07C303921798049044
:103640001DA820A901231CF055FB272080016A4AF0
:103650001058022141706C4814546C482146ACE566
:10366000654841598878C00700D0A9E01DA83FF0FF
:103670005DFD6749884201D1FEF7ABFE3BF020FFBC
:1036800004465D4841599CE05948FE2100221992A8
:1036900022F06CF9681E1A99574A5158C0B2109A14
:1036A000424388183EF0C2FA087E1B91497E090207
:1036B0000818217B627B3EF03DFF04D0544A9042C3
:1036C00001D091422BD11B9D0C352A460F32A87B8D
:1036D0004100501815901A92A37B5800179030188B
:1036E00016901598401C1590525C00930020159977
:1036F00033462EF04BF81595AA7B1698431C179865
:10370000305C009001201A992EF040F847204001CB
:10371000394A105C3F49515C014300D084E0862463
:10372000A2E0354A51183C4A895CC840C00701D123
:10373000FCF75AFFE07A612801D2FCF755FF3748C1
:103740002D49095CCA0701D0FCF74EFF344A2A4BC9
:103750009A5C520701D5FCF747FF01221143264A24
:103760001154304828E520A80678002E01D1FDF735
:103770003CFB20A8451C2A20C0432A301B9037461A
:10378000002F00D136E1C52080001B4908183FF00A
:103790005EF9002801D1FDF728FB082228461849C8
:1037A0003BF0FEFE002801D000201B907F1E083554
:1037B000E6E7C04606800000B90800006DEF030090
:1037C00000244878012801D0FEF703FE20AA1798AC
:1037D00016F012FBFEF7D7FC042A00D007E1002404
:1037E000042239A8C77AB80700D48AE0012089E00A
:1037F0006DEF03002B8000001C200020E1AD0300D2
:103800003C6B040017040000AB070000D9810300E3
:10381000FFFF0000060900001F0300005808000019
:10382000A4070000ADBD03000D371B990D31FE4804
:10383000F74E301802253FF073FD1598C07A23210A
:1038400089017054F948301839463FF069FDF8484D
:103850003018E17A817718998176F6483EF0E2FADD
:10386000002800D1E5E08A241898214636F07CFD36
:10387000E74DEB4EA85D214636F076FD1999A95526
:10388000E8482954E0E51B98EC4BE14AD15C491C1F
:10389000D154002120911DA93EF086F9002800D0C6
:1038A00010E11DA80078002420AA3FF0EDFB0028BD
:1038B00000D007E13807C10F2098027843781E0234
:1038C000B2188678360492195B075B0F179E9E42EA
:1038D00000D0D7E053079B0F1A9E9E4200D0D1E044
:1038E0005606360F169FFFB2B74200D0CAE0022B31
:1038F00000D0BFE0437B01261E408E4200D1BEE0D7
:10390000C0E002201A9051E6C14D1A9EA8591B9F93
:10391000C0193EF04FFD091B891E3EF0FFFD062138
:103920003FF0ACFAA859C0198179C2791202511836
:1039300045182C460C342846443039A93FF0F2FC97
:103940001D98482168544835000A68700027199965
:10395000677021702024189D28463FF0D7F920A9D0
:103960003FF0C4FB28462CF0EFFD002800D16BE5AA
:103970002846E7E437A8017820AC2046199139F0B1
:10398000BFFC248820463CF0AAFBA2498C4200D10F
:10399000CBE50A4604210843052800D0C5E51B985D
:1039A00084420BD130021A994018904200D0BCE5F5
:1039B0001B983CF07AFB022800D0B6E59E48002216
:1039C000199931F0A9FBB0E539A83FF0AFFB914957
:1039D000884202D03BF074FD07461A98807AC01ED8
:1039E0001499C94388422FD81A9BFDF717FA1998E2
:1039F0001699D7E51B98002801D0FDF7F6F920A805
:103A0000441C854D002E2DD00822204629463BF02F
:103A1000C7FD002805D0204634F064FA204636F071
:103A2000ABFA761E0834EDE7862400271A97FEF7D6
:103A300069FE00241898214636F096FC74487849AF
:103A4000405C2146FDF790F91A988078C0070CD1A8
:103A500003201B900225002F67D02820385C8006A9
:103A6000400F63E00024FDF7C0F903201290002509
:103A70001B955DE0002905D0437B01241C40199B68
:103A80009C421FD0179B1B026D4C14401B191A9FA0
:103A90007C001C19169E3607760EA419120C827033
:103AA0001A0A42700470022F04D1427BFE23134095
:103AB000591804E0417BFE220A40199951184173BC
:103AC00039F0F6FC149E5248405D01280ED830466D
:103AD0003CF01FFB002809D04D49495D012903D066
:103AE0004178C91E012901D83FF086FA5548484956
:103AF00009580029189C06D039A88847002C01D005
:103B0000FEF70BFCA0E4022100220C233FF002FA96
:103B100004461B982080A01C08223FF0A9F939A870
:103B2000C07AA0724848FFF747FB0020149012901B
:103B30001A98C07A8D24411E022914D300282CD053
:103B4000FF2801D0FFF714FB002F06D02837787824
:103B5000C007C00D01D1FFF70BFB1A98CC302F49DD
:103B60003FF006F925E039A837A920AA2CF052F930
:103B7000401C01D1FFF7FCFA1A99CC3139A823F087
:103B80001DFF00281B9D1299149112D0C01C00D05B
:103B90002AE700201B90FFF7ECFA1A99CC3139A8DC
:103BA00036F0A8FF00281B9D1298149001D0FFF753
:103BB000DFFA1A9A1646CC360027304639462CF0E2
:103BC000B9F900280D9C01D0FFF7D2FA032D0AD1D4
:103BD0001A98C07A002806D10020179003E020A888
:103BE0000021C1557F1C102FF9D10022149800909C
:103BF0000195029203961798049039A820A91446BB
:103C0000169F3B461CF076F81A984770FFF7B0FAFB
:103C10001C200020FFFF00003C6B04008C660400A9
:103C2000BC080000E2080000BE080000E408000034
:103C3000C80800004D6B0300FD420300160400009D
:103C400081F8FF000C090000C9CD0300F0B5FFB0FA
:103C5000FFB081B0B4A82B90B4ADB4AB9DAEB4AC02
:103C600038A8DA4FDA497A5CDA49795C520702D42B
:103C70000A0700D5A7E0490701D401F0E4FE2B991B
:103C800015312B91092149016918249146351946AE
:103C900015312991591D28910E33269331464E3105
:103CA0000E9131464D310D913C3621464E312291D7
:103CB00021464D3118913C34199403212091C901BA
:103CC0004018359000202C2805D039186F22520159
:103CD0003EF0B4FCF7E704954720C543632080001D
:103CE0003790339547356F204001219036953D50F0
:103CF00000203799814203D038A93EF08FFCF8E7C5
:103D00000F96359836990160B3483F180F203290CE
:103D1000002634963146022E36D0F4B20025B4AADD
:103D20000C233EF075FF00280DD03DF001F9369DC3
:103D30007888012188437880204639F0A1FB294604
:103D4000761C3F1DE7E7B4A99DAA204634F094FDF8
:103D50000146483101D0002811D19DA800880E28C5
:103D60000AD8798801220A437A80388032998842B9
:103D7000E5D234963290E2E70F203880D5E70F2065
:103D80003880339D2535D3E7329E904F0F2E37D0A4
:103D9000E6483C180025022D2FD020880F280FD090
:103DA000349AAA420CD0B0420AD00F2020806088FA
:103DB000012188436080E8B239F062FB33994731D2
:103DC0006D1C241DE7E76F204001012139500024BC
:103DD000E0B2012803D824F05DF8641CF8E7E44859
:103DE00018213950DF20000100213954784AB85C8D
:103DF00006210143B95401F021FE0E2E00D0339963
:103E00002A91CA483D1800263696022E31D02888BD
:103E10000F2802D1761C2D1DF7E7F4B238A92046F1
:103E200019F0F6FF0146383113D0411C0ED000289E
:103E300015D1359B18681B21C90179180866187AB5
:103E4000DF221201B8545868C866E3E73DF070F805
:103E5000E0E70120B040369901433691DAE76888FF
:103E60000121884368800F202880204639F008FB14
:103E7000D0E700201024359E202800D198E00C22A5
:103E8000424338A989184968BA4B194204D038AB63
:103E90009A181289002A02D1401C0C34ECE7451C08
:103EA000880F38A92A461F2A0AD80B59B14E334227
:103EB00002D09B0F984205D1521C0C31359EF2E77F
:103EC000014603E00228359E2DD10221369BDCB24B
:103ED0002246C240D00714D0C8B2022810D232689D
:103EE0001B23DB01FB181A66DF2214013955800001
:103EF00018186421405A0E2845D116F085FE44E07A
:103F0000DCB2DF2000013A5C012108469043C44046
:103F1000E2074DD08200BA18974BD45A8C43D45242
:103F200039F0AEFA44E001461F2D1BD838A80059DD
:103F3000904A104212D0860FC8B2B0420ED0810013
:103F400079187A4A8A1853880127BB431F4F538038
:103F50000F22764BCA5239F093FA31466D1C0C345D
:103F6000359EE1E7369BDCB2C8B22246C240D2079A
:103F7000B2D10021379A8A4201D101F068FD38AAF6
:103F80003EF060FBF6E71DF0A3F800203799814270
:103F900003D038A93EF042FBF8E733984730306051
:103FA000385D38A919F034FF002801D03CF0C0FF7B
:103FB0000749785C022223921043785400206F4C0A
:103FC00008280BD03EF08AFAFAE7C0461C200020F1
:103FD000F10D0000F5040000E40D0000B4A8401C41
:103FE0002F90B4A809301F909DA85B300C90B4A806
:103FF00001460831169101460C31159101461431E4
:1040000014910146243102462C32139202463D326D
:1040100012924F3017909DA8024608320A9202462B
:104020000C32099202461432089202462432079258
:1040300002462C32069202463D3205924F300B90DA
:10404000B4A8801C039000224D4838181D904D489C
:10405000381827904C4838181C904C4838181B903A
:104060004B48381825904B4838181E904A48381845
:1040700011904A48381810901A91202A01D101F065
:10408000B7FC0C203692504338A90F1879680B46BC
:10409000384A1340379301D101F0A4FC38AA121812
:1040A00012893492002A01D101F09CFC8A0F3592CA
:1040B00092003B4B9A181D4BD65A0E2E01D901F097
:1040C00091FC01223292B2404F2331931B021A42DB
:1040D00001D101F087FC38AA10184089309030488F
:1040E000304A815084183498A0803698C5B21C2D6F
:1040F00000D9C6E03298A8402B49084200D1C0E060
:1041000027482A494158002906D0369880B2884766
:10411000002801D101F066FC681E1E2800D9B7E016
:1041200003A14000085A40008744C046E40D000047
:10413000420022041302B200B200CA038001B2009E
:104140000E023B030D0389041201CD00EF05480365
:104150005C0CBD03BE05B2007B045C0CB200B20077
:10416000B200B200CA007D01B200B2004006C046F3
:10417000EC0D0000FFFFFF3FE60D000004490020AA
:10418000FC04000004050000610200000E050000B0
:10419000040E00004A0D0000140D00002A0D00005E
:1041A0001C200020FC0D000001460018DC0D000062
:1041B0003098042801D101F094F80328359D01D1ED
:1041C00001F081F8022801D001F00CFC9DAC5C26C6
:1041D000204631463DF0F6FD2846379922463346C3
:1041E00033F02CFE002801D001F0FCFB9DAF3878A5
:1041F000012135910840E84EE84D715DFE220A40EC
:10420000101870559BAC042220460A99E44DA8472B
:104210009F20C000301821463AF01AF908241D9852
:1042200009992246A847387802210140FB4BF05CEF
:10423000FD2202405018F054892080003018379039
:1042400008992246A8479E981021C84131210A01A9
:10425000B050FF20F249705478781321490170540E
:104260007888F04970528B2080003490305C0028B0
:10427000329201D101F0DEF908222798079901F066
:10428000DEF9E54AE84BD05CFD210140D15437E727
:10429000DB200001E0490D180027DF48E3494058C2
:1042A000874201D301F09EFB2968369884B22046EC
:1042B0008847002801D000F0BEFD7F1C1435ECE7D4
:1042C000D548DB496FE23098012801D000F07FFD2E
:1042D000B4AA08233EF0A1FB0028CF4ED54F01D051
:1042E00001F080FBB498C0195321C900705015200B
:1042F0004101002070523499C9080901814201D15D
:1043000001F070FBB59AD2192B235B01F4582518E4
:104310002254140EEC70140CAC70120A6A70F2582D
:104320001218002454731473F25812183DF023FB32
:10433000D57A2D062C19E318BF4C641C1C4314724B
:10434000230C9372230ED372230A53721030D5E7D5
:104350001C21349836F0E8FD359C21073191002767
:1043600039460646379D3290B74201D301F03AFBF9
:10437000002901D001F036FBB4AA1C233EF048FC12
:10438000002802D0339947314AE034973795B4A8D2
:104390003AF0F0FCA949A04A565800243EF0B2FD7C
:1043A00088003218335C55782D02EB1895782D046F
:1043B000D7783F067D19EB181D469F4F3D4004D02E
:1043C000132C02D8481C641CE8E7002D924C349F43
:1043D00004D033993231359C379D20E0379E3146E9
:1043E000954F39400B431370190ED170190C917011
:1043F000190A5170914962581118135C3CF065FE1E
:104400003546E3183B40349F319C23431354180E28
:10441000C870180C8870180A48700021359C329EAC
:104420001C357F1CA0E77C488549BCE13868329088
:104430000020359D042803D09DA93EF0EFF8F9E750
:104440009DAA04233EF01BFC0646002803D19D983C
:1044500071497C4A885436F02BFB6F487A49309A70
:10446000425210461C21002A319100D030210028F0
:1044700001D02C2031903798071D012037903498B7
:10448000001F36F051FD0446329870494860002004
:104490003490214637F0A8F86C49087032943EF009
:1044A0003FFD34992E905C4C3298814201D300F04C
:1044B000FBFE002E01D000F0F7FE3491B4AA28468E
:1044C000394625F0DDF90646002838D12C972D967F
:1044D000B4A83AF04FFC2B214901645814253EF052
:1044E00011FD080120183DF01FFBC67A3606F318AF
:1044F0009A181346564E33405F425F41002D379E57
:1045000000D03E46002E02D1481C6D1EE7E7002B6E
:10451000414C2D9E01D000F0C4FE08302C9F3B463C
:104520004B4D2B401A430270130EC370130C837053
:10453000120A42702E980170401C2E90359D3198C1
:104540003F183499491CAFE71B20C00132490B5872
:104550002AE10020304D3F4FE9590A78904221D29C
:104560003CF0AEF982008A58917ED37E1B02591826
:10457000137F1B04547F2406E31859180AD0537E76
:10458000339A18325A43002A04D000230B70491C76
:10459000521CF8E7401CDFE71C200020F504000057
:1045A000E50404001821349836F0BEFC3190002157
:1045B00030913198814201D101F014FA3291B4AABC
:1045C00018233EF02AFA002800D0B6E0E859017816
:1045D000401CB4AA5278349200221746B94218D02F
:1045E000057846783602751986783604C47824062C
:1045F000A4196419A5583DF04AFA6B7F1B069B1954
:104600001B1903D02B78349CA34225D07F1C121D8C
:10461000E4E70A4621E0C0461C200020F504000023
:1046200026030000A2020000F10D0000D80D0000DA
:10463000880D0000FF030000FFFFFF0F640500006E
:104640008C0D00002E0500003205000004490020FA
:10465000FFFFFF07CC0A00003A468F421DD20178C7
:1046600043781B02591883781B04C0780006C018D1
:104670004018910040583CF02FFB5318417E3020E9
:10468000484318180022F54DF54F914209D01C7A85
:10469000E40705D0521C3033F7E7F04DF04F44E00B
:1046A00018468A4241D2017A01220A430272B4AA10
:1046B000117801705378437053884380B59B037120
:1046C000289E337874782402E318C380B378F47892
:1046D0002402E318C385537A0372528902820029A7
:1046E0000CD1B7994182269B19785A781202511839
:1046F0009A781204DB783EF02DF84161B4A9498A1A
:10470000024628320185B9999170299A3DF022FC20
:1047100081851C21242903D0FF224254491CF9E73A
:1047200033F0B2FC3098401C30903098002802D012
:1047300027F04CFB01E0002030903798183037907C
:104740003299491C35E70020C44E359D042803D01A
:104750009DA93DF063FFF9E79DAA04233EF08FFA7F
:10476000002800D177E308222798BE493AF018FFC5
:10477000002805D03AF084FE002801D100F079FD30
:104780003DF015FC01D001F02DF93AF079FE00283A
:1047900001D101F027F93DF07CF80122B4AB00F023
:1047A0007DFDAE48B0494358002B01D101F01AF904
:1047B00035983799349A984701F014F9A420AB4AF8
:1047C000319011583398383048431146AC310028A5
:1047D00004D000220A70491C401CF8E70020382849
:1047E00005D0A24909185C223DF028FFF7E7A02177
:1047F0009E48329147583498394636F095FB3490AC
:10480000002426463498844201D301F0EBF8002EB0
:1048100001D001F0E7F8BBB2B4AA3598379D29461C
:1048200034F0A6FE0646002836D1B4A8018949070F
:1048300001D0082100E004213AF016FC8B49319A9E
:104840008F583D46394636F06FFB0801874A1218EB
:10485000B423D358002D04D0002B06D0481C6D1E65
:10486000F0E7002B01D001F0BDF8B432379F17609C
:10487000A9227E4B359D9D543D461A465C32B79B1E
:1048800010184365C80880001018826B4907C90ECC
:104890000F238B409A4382637448329947587D199D
:1048A0003795641CAEE73498282801D001F09AF8B7
:1048B0002823359837996D4A34F05AFE01F092F862
:1048C000B4AA18233EF0A9F8002801D001F08AF814
:1048D0002026304631F0C6FA044600223146644FA5
:1048E000B847B4993BF01AFD01223EF09DF9B59905
:1048F0003BF014FDFA256943084633F019FC022207
:104900003EF092F9B4A909893BF0CCFC8B208000E1
:10491000524E305C022809D1564841435648081887
:104920003EF075F85549705037F0B0FE202603224E
:10493000204631464E4FB847B4A949893BF0B2FCF6
:104940004D43284634F088F804223EF06DF9B799BB
:104950003BF0E4FC05223EF067F9B8993BF0DEFC41
:1049600006223EF061F9B9993BF09CFC01F03AF85F
:10497000B4AA18233EF051F8002801D001F032F813
:10498000052005023EF066FC002837D004461022C0
:104990002946374FB8473CF06FF8B4AE08223EF0D6
:1049A00067FA3DF00FFFB847717A8279C3791B022D
:1049B0009A18037A1B04407A0006C0188018017008
:1049C000112220462946B847B7993BF021F82C4AD6
:1049D000B847B6993BF01CF82A4AB84771893BF0B2
:1049E00061FC0720420320462946B847F17D3BF091
:1049F00089FC002902D020462CF050F83EF098FBAC
:104A0000002801D100F0EEFF20211F4A3CF008FBF6
:104A10003CF032F8B4A9CA890280497B817000F069
:104A2000E1FFB4AA24233598379C214634F0A0FD39
:104A3000002800D1E6E234F086FF00F0D3FF00202A
:104A4000042803D09DA93DF0E9FDF9E70020359D3C
:104A500008281BD0B4A93DF0E1FDF9E71C20002097
:104A6000CC0A0000446B0400840D0000602E00207E
:104A70002110040090D00300FF3B00002409000037
:104A800001E0000002E00000FEEF00009DAA042407
:104A9000284637993EF068FB002801D000F0A2FFBD
:104AA0009DA840780228239800D320462099090227
:104AB000319101214A0230922E9109022D913799AC
:104AC00041180026334637969DA80078864201D3C8
:104AD00000F088FF002B01D000F084FFB4AA082367
:104AE0002846349133F0AAF903462F98007801063E
:104AF000490F052900D1D0E0012909D12F99497822
:104B000009020818319908402D99884200D1C4E063
:104B10003293FF208400DE4B185911277743C15D83
:104B20002E9A1143C155B4A800781959C919887132
:104B30002EF006FD00280BD0F9480059379940188F
:104B40000021329B112900D1A7E03DF05FFDF9E77C
:104B50002F9D2878F2490959CA5D0007400E872326
:104B600013401818C8552878FB490959C9194A78BB
:104B70001202C0003CF078FE3DF0FCFA0146319A8A
:104B80001140309A914209D1F3490959C9194A7B18
:104B9000C006C00FFE23134018184873EE48015991
:104BA0003CF026FC8D186A05520F0AD1B499EB4AE5
:104BB000E94B995401784278120251188278120414
:104BC0008D182F994A789207520F06232946994348
:104BD00089182A0A42702A0C82700170B4A9CA7816
:104BE000DD4D28192B59DB195A712A59D2197F2307
:104BF0001371426809785654B5992A59D319D25D70
:104C00005D782D02AA189D782D045219C906890BCA
:104C1000D34D2A4051180A0C9A70090A59702F9ADC
:104C20003DF098F90A46319B1A40309B9A4211D0C8
:104C3000C94ACC49515C1259D219537B8907890E54
:104C4000CF251D4069185173C17E491CC1762F9A2A
:104C50003DF080F9319AE0320A40309B20339A428D
:104C6000359D329B19D1BC4A1259D219537B090A7E
:104C70003C250D40C32119404919359D5173817E52
:104C8000491C8176B4480059C0192F994978890682
:104C9000090F002233F0C8FD329B34990831761C8D
:104CA0003798113037900FE70023AB4F3598379C7A
:104CB000042B04D0B4A90022CA545B1CF8E7B4AAA0
:104CC0000423214634F054FC002801D000F08AFE71
:104CD000241DB4A80178A4483954A4483D180020E4
:104CE00006468E4201D300F07DFE002801D000F080
:104CF00079FE0C23359821462A4634F039FC761C7F
:104D00000C349949795C0C35EBE7082225983DF085
:104D1000F9FF3098022801D100F0B0FD3098012849
:104D200000D172E2002801D000F05CFE01263402BE
:104D30002520C100B4A83DF045F828343498A0429D
:104D400000D062E2B4AA359837993EF00DFA0028F7
:104D500001D000F047FE24980278102A01D900F013
:104D600041FE24984078202801D900F03BFE7A4F7C
:104D70007F497A547918487000200399D2B2904242
:104D800001D300F001FD4A1E12787A4C3B599B1961
:104D90005B1E1A704A780B783C59A519A3556A70A6
:104DA000401C249A1278F61C091DE7E73098002869
:104DB00001D000F017FE0023674C35983799102B6F
:104DC00000D139E2B4AD0022EA545B1CF7E73D683C
:104DD000B4AA04233DF021FE00285F4A664901D0B1
:104DE00000F000FEB49840185321C900505015201F
:104DF0004001002414523498001F01D100F0F2FD4C
:104E00005E494968691A5E4A914201D900F0EAFD9B
:104E100080083799091DC2B2359825F08DF857489A
:104E20000078002801D100F0DDFD26F0B1FB5348E9
:104E3000047000F0D7FD1420784347490818514901
:104E4000455800963098019020463599379A349B02
:104E5000A84700F0C7FD0020102803D0B4A93DF0FA
:104E6000DDFBF9E70120000232903798011D002395
:104E70001A469DA80078824200D374E4002B00D02B
:104E800071E49DA840780128349203D0102402E0F8
:104E90001C2000200D24B4AF284637913A463EF03E
:104EA00063F90346812085002B484059B97A0B26C7
:104EB000714340183DF062F8329A114200D09AE0F6
:104EC00030930930B4AAD37A9B075B0C319F7F02E1
:104ED0000F40DB190170190A41701F4F7859917A00
:104EE00071434118887A00024004800F1AD0B4A898
:104EF000C07A01284AD10622084623493BF0F2FA3B
:104F0000B6987959B4AA937A7343C918030ACB7136
:104F10008871B7987959927A7243891808724AE071
:104F20001C200020B4AF384632F084F8B6980A4905
:104F30004959BA7A72438918020ACA718871B798B6
:104F400005494959BA7A724389180872B87A398979
:104F5000014F28F067F92EE01C20002026030000F6
:104F6000FF1FFC00B3020000C4060000040600009E
:104F7000BC050000C4050000FF0300000449002038
:104F8000FEFFFF7FBC0D00003C6B0400B4AF384651
:104F900032F050F8B798F2494959BA7A72438918F1
:104FA0000872EF484059B97AED4F71434018ED4A05
:104FB000110AC17182717959B4A8827A7243891831
:104FC0003DF08FF9329B1A434A72120A8A7279595C
:104FD000827A7243891800224A727959807A704322
:104FE0000818817A10220A4382728320800039587F
:104FF000491C3950309B37990919349A521CD84EA4
:10500000359D36E724343794B498D54FD649785433
:105010007A18B4A834904079411E88412C921077B8
:105020000C2231921E9C20461F993BF05BFA002017
:105030006070E070E0802D90A080CC4D3EF00AF9C9
:1050400007462946CA4ACB4CA0472B9B19785A7869
:105050001E463AF024FC2946239D2A46A047317B70
:10506000329A11403BF04EF903223846BF49A0471F
:10507000317B89073AF034FF307B2840400831F01B
:1050800091F904223846B94D2946A0473499C97D83
:105090003BF038F905223DF05CFDBA993BF032F95E
:1050A00006223DF056FD317B4907C90F3BF02AF936
:1050B00007223DF04EFD317B0907C90F3BF022F975
:1050C000357B13203090C401A54E315D6A0010205D
:1050D00002402E90EF230B40D11841403155082259
:1050E0003846A2490E46A34CA047E906C90F3BF03B
:1050F00009F90922384635463146A0472B9E317BB7
:105100008906C90F3BF0FEF80A223DF022FD349DCE
:10511000697E3BF0F7F80B2238469449A047317B73
:105120004906C90F3BF0EEF838469049319AA0473E
:10513000A97E3BF0E7F84B204001894A11500D222F
:1051400038468A490D46A047317BC9098279C3791F
:105150001B029A18037A1B04407A0006C0188018B4
:105160000170307BC00934F075FA0E223DF0F1FC7D
:105170003499C97E3BF0C6F80F223DF0EAFC254683
:10518000717B329A11403BF0BDF8707BC007C00FB5
:1051900033F0EAFB384675490C462E9AA847717BD6
:1051A00089073AF09DFE11223DF0D0FCBB993BF0FF
:1051B000A9F812223DF0CAFC317A727A3AF06FFBFC
:1051C00037462146309AA847B17AF27A120251182E
:1051D0003BF068F834980079411E092900D986E02F
:1051E0004000C3B2359C2046379D2946119A34F0C1
:1051F000BFF9B4A909794A005519002800D1D3E1B3
:10520000339B47330020329074E03AF0B9F8002421
:105210009D949DAF0426359D284637993A463346DE
:1052200032F00CFE002800D180E04D49524A8C52E9
:105230001C3000D122E3D5E3B4AA102332F0FEFDE6
:10524000002800D0CEE3B4984C4960526018B4A94D
:105250004A888281B59AC281CA880282B69A4282FD
:1052600049898182B7990184002001462EF0C4FA51
:10527000B8E38B208500705D002800D1B2E30124E3
:105280000021B4AB2798224615F028F8705D01285C
:1052900000D0A7E33CF0FDFAB4AB224615F01EF8AF
:1052A000A0E30026359D2C9F3098002807D0002EC3
:1052B00005D13298C2B22846394624F03DFE53202B
:1052C000000125548EE39DAA5C233DF0D8FC0446E2
:1052D00000286DD10020642852D0B4A93DF09EF979
:1052E000F9E7B4AA64233DF098FB044660E0359CDE
:1052F000379D2D9BB4A83299002900D16EE18079A9
:10530000002800D16AE10A2800D967E1430020465D
:105310002946109A34F02CF9B4A989794A00551914
:10532000002800D14EE1339B473357E131943A785E
:105330000B481149425440189DA94978417090008A
:10534000CB001818349B1B1F9BB2834200D095E200
:1053500033984730102A00D8E0E1319C65E7C04619
:105360001C200020FFFF00000C0D000057FC000077
:10537000FDFF000021100400BC050000C40900006E
:10538000B4A89DA95C223BF0ADF80C980078229B54
:10539000597BF8220A40072101405018587333986E
:1053A0004730CB900020C1439974090AD97418750D
:1053B000002C00D016E3B4AE3078012137910840BC
:1053C000EF4FF04D795DFE220A40101878559DACE4
:1053D000042220461699FD4DA8479F20C00038188A
:1053E000214639F035F808241D9815992246A8471A
:1053F000307802210140FD4BF85CFD22024050183C
:10540000F854892080003818359014992246A8470E
:105410004320C0003818B5991022D1413122130120
:10542000F950FF21F34AB954717813225201B9544B
:105430007188F14AB9522299097D8175007D002851
:105440003494329303D0082227981A9904E0C52097
:1054500080003918082227983BF044F81998007802
:10546000E649785410261C9C204613993246E04D9C
:10547000A847E248385C2074A5208000379D3D5441
:105480001B9812993246DA4B98473F200001395A4F
:1054900040220A433A5218980078D349329E8F1915
:1054A000F873229C2078B873B4A8007880098B2107
:1054B0008A00CD4931928854607B8107C90F797386
:1054C000B321C900C84A52584007C00FC003EB03BC
:1054D0009A438018C44A5050B7208000C249081827
:1054E0000C221799C24B9847607BAD218900BE4AB8
:1054F000525AC007000E80239A431018BA4A5052DD
:10550000CB982AF095FFA07CE17C0902081835F0C1
:1055100035FB607B34990840C00834F09BF87C88E8
:10552000B14FB7498C4208D0B85B884205D0F32010
:10553000C000385C3799084304E0F320C000385CB1
:1055400037998843F321C90078543198385C002892
:1055500010D0359E08223046AA493AF021F800289A
:1055600000D13FE2A648844200D13BE29BAA2046FC
:105570003146B8E008221A9D2846A2493AF010F8B0
:105580000028359EE6D0082228469F493AF008F8C0
:105590000028DFD0C5208000381808221A993AF078
:1055A000A1FF9A483C5AD5E72C98C1711018C088C1
:1055B0000023934A904200D09CE6481E94498A4AB0
:1055C000505497E62C9841771018808B00238C4A12
:1055D000904203D1481E8F49834A5054B4A8002BEF
:1055E00001D0FFF728FAC079002801D1FFF723FA8C
:1055F000042801D9FFF71FFA352189017A4A521888
:1056000043003DF005FB002801D0FFF714FAB4A8D1
:10561000C0797549804A885489184200895A784A65
:10562000914201D0FFF707FA401E6F497A4A885429
:10563000FFF701FAC52080003118082227983AF0B8
:1056400051FF0F9800786D49705410241C9D284616
:1056500006992246664FB8476848305C2874A520F2
:105660008000359D35541B9805992246B8473B4626
:105670003F200001315A40220A4332520D980078EF
:10568000329FF419E0730E980078A073B720800061
:1056900030180C220B9998476488FE498C4207D039
:1056A000F05B884204D0F320C000305C284303E064
:1056B000F320C000305CA843379F349AF321C9001F
:1056C0007054B05C002811D008223846F24939F0F5
:1056D00067FF002800D185E1EE48844200D181E1D6
:1056E0009CAA2046394623F0EFF87BE10822079D6B
:1056F0002846E94939F054FF0028E5D00822284619
:10570000E64939F04DFF0028DED0C5208000301872
:1057100008223DF0EDFCE548345AD5E71029319CCC
:1057200000D982E53296002A2146274676D037985E
:10573000071D0020012611460446002848D18C424E
:1057400046D2B4AA04232846394632F077FB002813
:105750000FD1B4A94A78D34DC94B5B599B195B1E35
:105760001A704988C64A5259359D93199155090AAC
:105770005970641C9DA90978F61C3F1DDDE7C046E1
:105780001C200020F504000000200721049A249B1F
:105790005B78984200D3F0E0931F1C785B78B925C2
:1057A000ED007E597618F61E737034701378072456
:1057B0001C407B595B185B1E1C701378DB087C59FE
:1057C0006354401C0831D21DE1E7C046E5040400E3
:1057D0000028319F22D00021A94AB14BD1523099E3
:1057E00002294BD024E5C0461C200020F50400000F
:1057F000E504040026030000A20200009502000058
:10580000FFFF0000446B04003C6B04001203000027
:10581000130D0000290D00003E0D0000B597B49750
:105820008800379940183190954C9DA84078874260
:1058300021D2329E31988119B4AA0823284632F029
:10584000FDFA0028C7D1B598B921C900625893194B
:105850009055000A5870B4A8C279072313406258C3
:1058600092199370C079C00861588919C8707F1C5B
:1058700008363296D9E7309802287ED139F080FD7B
:1058800000269D969DAF0424359D284637993A46BB
:105890003DF06AFC002800D0A1E03A7878488049C1
:1058A000425441189DA8407848709100C30059188F
:1058B000349B1B1F9BB28B4200D090E0102A00D972
:1058C0008DE0102800D98AE0002A314632962CD08B
:1058D00034943798061D00200127114604460028FD
:1058E0001FD18C421DD2B4AA04232846314632F07F
:1058F000A5FA00280FD1B4A94A786A4D604B5B59CC
:10590000DB195B1E1A7049885D4A5259359DD319BF
:10591000D155090A5970641C9DA90978FF1C361DD0
:10592000DDE70028329E349C59D12746B596B496BF
:105930008800379944183546514E9DA840788542D5
:105940001BD2E119B4AA0823359832F077FA00285F
:1059500044D1B598B921C9007258D319D055000A5D
:105960005870B4A882797358DB199A70C07971584D
:10597000C919C8706D1C0837DFE700240425404EA4
:10598000494FF05D844211D2B920C000305841190E
:105990008978032907D1405D2DF0D2FD002802D07F
:1059A000E0B236F0C7F9641C0835EAE71720800139
:1059B00030580021082902D03CF028FEFAE70020E8
:1059C00080280FD0B921C9002D4A51580A18095C06
:1059D0003BF0D2F900220A700830F1E7329E2848E5
:1059E0002F494652369A521C254F284CFEF745FB4C
:1059F0002078002803D025F0CBFD00202070002463
:105A000023483C50381884802A98483001D11BF034
:105A10005FFB1D483858002810D1204637F030FD74
:105A2000DF2000013C541B20C00138181821C1663A
:105A3000006E401C02D1012021997850114AB85CB7
:105A400004210143B9547FB07FB001B0F0BD339958
:105A50004731316038A918F0DBF9002803D03BF05A
:105A600067FAFEF74EFA30681B21C90179180866FB
:105A7000307ADF221201B8547068C866FEF741FA26
:105A80001C200020F10D0000EC0D00000449002056
:105A9000FC0D0000FFFF0000446B04003C6B0400A1
:105AA000BC050000C4050000BD0500001203000095
:105AB000F0B5CDB0F348F449002902D03CF0BDFA6E
:105AC000FAE70020142805D0F049091838223CF0E4
:105AD000B5FDF7E7EE48EF49002902D03CF0ADFAFA
